:100000000C9462000C948A000C948A000C948A0070
:100010000C948A000C948A000C948A000C948A0038
:100020000C948A000C948A000C948A000C948A0028
:100030000C948A000C948A000C948A000C948A0018
:100040000C946E040C948A000C943C040C941604DA
:100050000C948A000C948A000C948A000C948A00F8
:100060000C948A000C948A000000000025002800EF
:100070002B000000000023002600290000000008DB
:10008000000201000003040700000000000000005F
:1000900000000000240027002A00010204081020AC
:1000A000408001020408102001020408102004040A
:1000B0000404040404040202020202020303030310
:1000C00003038D0811241FBECFEFD8E0DEBFCDBFE4
:1000D00011E0A0E0B1E0E4E8F1E102C005900D928A
:1000E000AC31B107D9F722E0ACE1B1E001C01D921B
:1000F000A43EB207E1F710E0C2E6D0E004C02197C9
:10010000FE010E94BA08C136D107C9F70E94B8049F
:100110000C94C0080C940000AF92BF92CF92DF9273
:10012000EF92FF920F931F93CF93DF936C017B01AC
:100130008B01040F151FEB015E01AE18BF08C0173D
:10014000D10759F06991D601ED91FC910190F081B0
:10015000E02DC6010995892B79F7C501DF91CF9173
:100160001F910F91FF90EF90DF90CF90BF90AF90D5
:100170000895FC01538D448D252F30E0842F90E0AD
:10018000821B930B541710F0CF9608950197089592
:10019000FC01918D828D981761F0A28DAE0FBF2F5B
:1001A000B11D5D968C91928D9F5F9F73928F90E0B1
:1001B00008958FEF9FEF0895FC01918D828D981720
:1001C00031F0828DE80FF11D858D90E008958FEF5D
:1001D0009FEF0895FC01918D228D892F90E0805C26
:1001E0009F4F821B91098F739927089587E492E0AE
:1001F0000E94EA0021E0892B09F420E0822F089573
:1002000080E090E0892B29F00E94F60081110C9487
:1002100000000895FC01A48DA80FB92FB11DA35AA9
:10022000BF4F2C91848D90E001968F739927848F16
:10023000A689B7892C93A089B1898C918370806439
:100240008C93938D848D981306C00288F389E02DDA
:1002500080818F7D80830895EF92FF920F931F938B
:10026000CF93DF93EC0181E0888F9B8D8C8D981369
:100270001AC0E889F989808185FF15C09FB7F89475
:10028000EE89FF896083E889F989808183708064C1
:1002900080839FBF81E090E0DF91CF911F910F910C
:1002A000FF90EF900895F62E0B8D10E00F5F1F4F1B
:1002B0000F731127E02E8C8D8E110CC00FB607FC2A
:1002C000FACFE889F989808185FFF5CFCE010E94B8
:1002D0000A01F1CFEB8DEC0FFD2FF11DE35AFF4F1B
:1002E000F0829FB7F8940B8FEA89FB898081806246
:1002F000CFCF682F87E492E00C942C01CF93DF934B
:10030000EC01888D8823B9F0AA89BB89E889F9892D
:100310008C9185FD03C0808186FD0DC00FB607FC62
:10032000F7CF8C9185FFF2CF808185FFEDCFCE0195
:100330000E940A01E9CFDF91CF910895833081F0C7
:1003400028F4813099F08230A9F008958730A9F01F
:100350008830C9F08430B1F4809180008F7D03C073
:10036000809180008F7780938000089584B58F7787
:1003700084BD089584B58F7DFBCF8091B0008F77C9
:100380008093B00008958091B0008F7DF9CF1F93C6
:10039000CF93DF93282F30E0F901E458FF4F849189
:1003A000F901E656FF4FD491F901E255FF4FC49190
:1003B000CC23A9F0162F81110E949E01EC2FF0E0B2
:1003C000EE0FFF1FE859FF4FA591B4918FB7F89436
:1003D000EC91111108C0D095DE23DC938FBFDF9123
:1003E000CF911F910895DE2BF8CFCF93DF9390E04C
:1003F000FC01E656FF4F249182559F4FFC018491EA
:100400008823D1F090E0880F991FFC01E057FF4F3F
:10041000A591B491FC01E859FF4FC591D4916111A8
:100420000EC09FB7F8948C91E22FE0958E238C93A9
:100430002881E223E8839FBFDF91CF9108958FB792
:10044000F894EC91E22BEC938FBFF6CF3FB7F89482
:100450008091250190912601A0912701B09128015A
:1004600026B5A89B05C02F3F19F00196A11DB11D0F
:100470003FBFBA2FA92F982F8827BC01CD01620F4B
:10048000711D811D911D42E0660F771F881F991F06
:100490004A95D1F708958F929F92AF92BF92CF92D3
:1004A000DF92EF92FF924B015C010E9426026B01EA
:1004B0007C010E9426026C197D098E099F09683E05
:1004C000734081059105A8F321E0821A9108A108E3
:1004D000B10888EEC80E83E0D81EE11CF11C81141F
:1004E0009104A104B10429F7FF90EF90DF90CF9021
:1004F000BF90AF909F908F9008951F93CF93DF93FD
:10050000182FC3E0D0E061E0812F0E94C7016EE1A7
:1005100070E080E090E00E944B0260E0812F0E943A
:10052000C7016EE170E080E090E00E944B022197ED
:1005300051F7DF91CF911F910895809141029091E1
:1005400042020196909342028093410285E10C940D
:100550007901209134013091350180913F029091D1
:1005600040022032310511F4807F08952034310596
:1005700011F4807E08952038310511F4807C0895AF
:100580002115314009F48078089587E492E00E94B3
:10059000EA00892BD1F387E492E00E94C800089515
:1005A000CF93C82F0E94C502803251F484E10E948B
:1005B00079018C2F0E94790180E1CF910C9479010F
:1005C0008091410290914202019690934202809361
:1005D000410285E1F2CF0E94C502803231F484E10C
:1005E0000E94790180E10C947901809141029091FF
:1005F00042020196909342028093410285E1F3CF3B
:100600000F931F93CF93DF938C01CCE3D1E0CE0106
:100610008C5391408017910724F40E94C50289935E
:10062000F6CFDF91CF911F910F9108950F931F93F4
:10063000CF93DF932FB7F8948091210190912201FD
:10064000A0912301B09124012FBF40911C01509132
:100650001D0160911E0170911F018C019D01041B01
:10066000150B260B370BB901A8014832510561055E
:10067000710508F44DC080931C0190931D01A09357
:100680001E01B0931F018091010190910001813CF6
:1006900020F091959093000102C08032D0F3C09178
:1006A0000001C80FC093010161E089E00E94F501DB
:1006B000C11108C060E089E0DF91CF911F910F91D7
:1006C0000C94C701CF3F11F461E0F5CFE5E8F0E00D
:1006D000E491E33039F138F4E130B1F0E230E9F09F
:1006E000C7FDF2CFE7CFE73041F1E83071F1E430F8
:1006F000B9F780918000806280938000D0E0D09331
:100700008B00C0938A0004C084B5806884BDC7BDD7
:10071000DF91CF911F910F91089584B5806284BDC0
:10072000C8BDF6CF80918000806880938000D0E0C3
:10073000D0938900C0938800EBCF8091B00080688F
:100740008093B000C093B300E3CF8091B00080628B
:100750008093B000C093B400DBCF8EBD00000DB419
:1007600007FEFDCF8EB508951F93CF93DF93162F0D
:10077000D42FC22F0E94AD03812F0E94AD038D2F75
:100780000E94AD038C2FDF91CF911F910C94AD038C
:10079000EF92FF920F931F93CF93DF93EC018B01A6
:1007A000CB010E94000360E087E00E94C7018CE358
:1007B000E82E81E0F82E0C0F1D1FC017D10781F025
:1007C000F70121917F014C2F6D2F80EC0E94B40323
:1007D0006DE270E080E090E00E944B022196EDCF48
:1007E00061E087E00E94C70180E1DF91CF911F9116
:1007F0000F91FF90EF900895CF93DF93D82FC92FDB
:1008000060E087E00E94C70120E04D2F6C2F8CE450
:100810000E94B4036EE170E080E090E00E944B0221
:1008200061E087E0DF91CF910C94C7011F920F9296
:100830000FB60F9211242F933F934F935F936F93B3
:100840007F938F939F93AF93BF93EF93FF9387E42F
:1008500092E00E940A01FF91EF91BF91AF919F91A9
:100860008F917F916F915F914F913F912F910F9059
:100870000FBE0F901F9018951F920F920FB60F92F8
:1008800011242F938F939F93EF93FF93E09157023F
:10089000F09158028081E0915D02F0915E0282FD4C
:1008A0001BC09081809160028F5F8F7320916102E5
:1008B000821741F0E0916002F0E0E95BFD4F958F17
:1008C00080936002FF91EF919F918F912F910F90F4
:1008D0000FBE0F901F9018958081F4CF1F920F923A
:1008E0000FB60F9211242F933F938F939F93AF9343
:1008F000BF938091210190912201A0912301B09199
:1009000024013091200123E0230F2D3758F5019663
:10091000A11DB11D209320018093210190932201FC
:10092000A0932301B0932401809125019091260189
:10093000A0912701B09128010196A11DB11D8093BE
:10094000250190932601A0932701B0932801BF9120
:10095000AF919F918F913F912F910F900FBE0F906C
:100960001F90189526E8230F0296A11DB11DD2CF26
:10097000789484B5826084BD84B5816084BD85B57A
:10098000826085BD85B5816085BD80916E00816086
:1009900080936E001092810080918100826080932C
:1009A000810080918100816080938100809180002E
:1009B0008160809380008091B10084608093B10059
:1009C0008091B00081608093B00080917A00846053
:1009D00080937A0080917A00826080937A0080917F
:1009E0007A00816080937A0080917A008068809399
:1009F0007A001092C10061E086E00E94F50161E09A
:100A000085E00E94F501EFE7F0E08491EDE9F0E088
:100A1000D491E1EBF0E0C491CC2309F4B7C081118B
:100A20000E949E01EC2FF0E0EE0FFF1FEE58FF4FEB
:100A3000A591B491EC91ED2309F4A8C081E090E078
:100A40009093460280934502809145029091460220
:100A5000009709F04EC361E086E00E94C701E09173
:100A60005702F091580282E08083E0915302F091A6
:100A700054021082E0915502F091560287E680837D
:100A800010925F02E0915B02F0915C0286E080834D
:100A9000E0915902F0915A02808180618083E09157
:100AA0005902F0915A02808188608083E091590256
:100AB000F0915A02808180688083E0915902F09120
:100AC0005A0280818F7D808361E087E00E94F5017A
:100AD00087E090E00E947D0261E088E00E94F501DD
:100AE00088E090E00E947D0261E089E00E94F501CB
:100AF00089E090E00E947D020BE8A02EBB24B39415
:100B000088248394912C98EB492E90E0592E24EA66
:100B1000622E20E0722EC0914302D091440261E027
:100B2000209709F460E087E00E94C701009141022C
:100B30001091420261E00115110509F460E088E0BE
:100B40000E94C7010E94160387E492E00E94EA0017
:100B5000892B09F30E94C502813509F46DC208F0A2
:100B6000A6C0813409F430C1B0F4803309F413C154
:100B7000813309F417C1803209F0AEC20F5F1F4FF5
:100B8000109342020093410285E1E4C110924602B3
:100B90001092450259CF853409F42DC1803509F4EE
:100BA0002FC1823409F098C284E190E00E940003D2
:100BB00020913C012093290180913D0180932A01DD
:100BC00080913E0180932B0180913F0180932C0105
:100BD0008091400180932D018091410180932E01ED
:100BE0008091420180932F018091430180933001D5
:100BF00080914401809331018091460190E0982FCB
:100C0000882730914701830F911D90933301809382
:100C100032018091480190E0982F88273091490156
:100C2000830F911D909335018093340180914A0187
:100C300090E0982F882730914B01830F911D90935E
:100C400037018093360180914C0190E0B0E0A0E044
:100C5000BA2FA92F982F882730914D01830F911D0E
:100C6000A11DB11DDC019927882740914E0150E05C
:100C7000542F4427052E000C660B770B840F951F0D
:100C8000A61FB71F30914F01830F911DA11DB11DEC
:100C90008093380190933901A0933A01B0933B01BE
:100CA00081E0203E08F480E080933E0278C08136E7
:100CB00009F41EC1C0F4863509F4AFC1803609F4C9
:100CC00015C1853509F008C20E94C502C82F0E94CF
:100CD000C50290E0982F88278C0F911D90934002B9
:100CE00080933F025CC0843709F440C1853709F422
:100CF000D2C1843609F0F0C10E94C502C82FD0E0ED
:100D0000DC2FCC270E94C502C80FD11D0E94C5024E
:100D1000863409F0F4C0CE010E9400030E94C5028F
:100D2000803209F02BCF84E10E9479010E94A90250
:100D30006C013CE3E32E31E0F32EC7018C5391406C
:100D40008C179D070CF0D7C00E94A9028C159D0539
:100D500031F0C6010E94FC030E94A9026C010091BF
:100D60003F0210914002F7012081402F612F80E463
:100D70000E94B403F7012181402F612F88E40E9473
:100D8000B4030F5F1F4F1093400200933F02F2E045
:100D9000EF0EF11CD2CF10924202109241020E943B
:100DA000EB02B9CE0E94C502803209F0E7CE84E1A1
:100DB0000E94790147E050E064E171E087E492E04D
:100DC0000E948C0080E1C6C00E94C502813879F083
:100DD00020F4803841F080E007C0823851F0833938
:100DE000D1F783E501C082E00E94D00294CE81E079
:100DF000FBCF82E1F9CF85E090E00E940003CFCFE6
:100E0000CD2B69F660913E028AE00E94C70161E045
:100E10008AE00E94F501CFB7F89480913D028111DC
:100E200025C0F2018491F3019491E82FF0E0EE0FD8
:100E3000FF1FE057FF4FA591B4918C91982321F4A7
:100E400061E08AE00E94C70161E08AE00E94F5014A
:100E50008CB580618CBD8CB580648CBD61E08DE00B
:100E60000E94F50161E08BE00E94F50180913D0256
:100E70008F5F80933D02CFBF80913C02882351F069
:100E80008FB7F89490913C02913021F49DB39DB3BB
:100E90009DBB8FBF83E58CBD1DBC60E08DE00E94D3
:100EA000C70164E170E080E090E00E944B02C091D5
:100EB0003E0261E06C278AE00E94C701C5010197EC
:100EC000F1F76C2F8AE00E94C70162E370E080E0D6
:100ED00090E00E944B0220E040E063E58CEA0E9433
:100EE000B403909244028092430259CF0E94C502FB
:100EF0000E94C50254CFC6010E94FC0363CF853413
:100F000009F089C080913601909137018C179D07B7
:100F100090F000913F0210914002000F111FC1326A
:100F2000D105D8F060E270E0C8010E94C803005EFD
:100F30001F4FA097F4CF0F5F1F4F109342020093F3
:100F40004102C1E10E94C502803269F484E10E943D
:100F500079018C2F0E947901DECDBE01C8010E946B
:100F6000C803C0E1EFCF0E949D02D5CD0E94C5020B
:100F7000082F0E94C502F82E0E94C502D82F0E9499
:100F8000C502803219F00E949D02C5CD10E0102FDD
:100F900000270F0D111D84E10E947901D63419F547
:100FA000F12CE12CE016F1060CF00CCFC0913F02C1
:100FB000D091400220E04C2F6D2F80E20E94B403BC
:100FC0000E94790120E04C2F6D2F88E20E94B4032B
:100FD0000E9479012196D0934002C0933F0282E0A3
:100FE000E80EF11CDFCFD534B1F4C0913F02D091AF
:100FF0004002CC0FDD1F0C0F1D1F0C171D0709F43D
:10100000E1CE2FEF4C2F6D2F80EA0E94B4030E9497
:1010100079012196F2CF81E19DCF84E090E00E949A
:10102000000320913F0140913E0160913D0180917C
:101030003C010E94B403D8CE1092420210924102A9
:101040009FB7F89480913D02882319F081508093D6
:101050003D0280913D02811105C08CB58F7B8CBD16
:1010600010923C029FBF60E08BE00E94F50160E0BF
:101070008DE00E94F50160913E0281E068278AE0E0
:101080000E94C70160E08AE00E94F50110924402CC
:101090001092430284CE0E94C502803209F06ECDC8
:1010A00084E10E94790120E040E060E080E30E945A
:1010B000B4030E94790120E041E060E080E30E94F7
:1010C000B4030E94790120E042E060E080E30E94E6
:1010D000B4030E94790176CE0F5F1F4F1093420236
:1010E000009341020E94C502803209F04DCD82E199
:1010F00031CFC0E0D0E0019739F461E085E00E9493
:10110000C7010E941603FDCF2097F1F30E94F6005D
:101110008823D1F30E940000F7CFE7E4F2E01382C6
:10112000128288EE93E0A0E0B0E084839583A683EA
:10113000B78386E091E09183808385EC90E095878A
:10114000848784EC90E09787868780EC90E0918B91
:10115000808B81EC90E0938B828B82EC90E0958B7E
:10116000848B86EC90E0978B868B118E128E138E7B
:10117000148E0895EE0FFF1F0590F491E02D099451
:04118000F894FFCF11
:101184000880000000002C018C00B9007E01EA00F8
:0C119400C800DC004156522049535000B6
:00000001FF
