:100000000C9460010C940C180C94E1170C94B61726
:100010000C948B170C9460170C9435170C940A17DA
:100020000C94DF160C948A010C948A010C948A01BA
:100030000C945B190C948A010C948A010C948A012B
:100040000C9495160C948A010C945F160C9435163A
:100050000C948A010C948A010C948A010C948A01F4
:100060000C948A010C948A010C948A010C948A01E4
:100070000C948A010C948A010C948A010C948A01D4
:100080000C948A010C9437180C948A012803000000
:10009000000000090D0000000000000101C0800008
:1000A000000000000000000000060000000000004A
:1000B0000000000000000000000000000000000040
:1000C000000000000000FF3F0002000000000000F0
:1000D0000000000000000000000000000000000020
:1000E0000000000000000000000000000000000010
:1000F000000000000000000000000000010080007F
:1001000002008000030080000400800005008000E1
:1001100006008000070080000800800009008000C1
:100120000A0080000B0080000C0080000D008000A1
:100130000E0080000F008000100080001100800081
:100140001200800013008000140080001500800061
:10015000160080001700800018008000000080005A
:10016000000080000000800000008000000080008F
:100170001980FF001981FF00FF000000FF00000050
:10018000FF000000FF000000FF000000FF00000073
:10019000FF000000FF000000FF00000000003A0028
:1001A00037003400310022006100640000003B0091
:1001B00038003500320023006200650070007400D2
:1001C00078007C008000840088008C0090009400FF
:1001D00098009C00A000A400A800AC00B000B400EF
:1001E000B800BC00C000C400C800CC00D000D400DF
:1001F000D800DC00E000E400E800EC00F000F400CF
:10020000F800FC000001040108010C0100003900A5
:10021000360033003000210020006300050505058D
:100220000505050502020202020202020707040494
:100230000404040404040707030303030303030380
:100240000701010101010101010606060606060675
:10025000060102040810204080010204081020401A
:1002600080081001020408102040800102010204ED
:100270000810204080048040201008040201010280
:100280000408102040800000000A0B0C0000000051
:10029000000001040506000000000000000000004E
:1002A000000000000000000000000000000000004E
:1002B000000000000000000000000000B21A8F26BD
:1002C00011241FBECFEFD0E1DEBFCDBF11E0A0E013
:1002D000B1E0E2E8F0E500E00BBF02C007900D924C
:1002E000AE37B107D9F728E0AEE7B1E001C01D9203
:1002F000A430B207E1F711E0CFE5D1E004C02197C7
:10030000FE010E94C226CE35D107C9F70E948E1D7C
:100310000C9434280C9400009C016115710529F09F
:100320006130710571F080E0089580913F07821778
:10033000130681F09091420781E09217130699F716
:10034000089581E0409140075091410742175307BB
:1003500051F7F6CF81E0F4CF089581E080937202E7
:10036000089520914A0730914B072115310549F036
:1003700090E0880F991F820F931FFC01808191816B
:10038000089590E080E00895FC01538D448D252F61
:1003900030E0842F90E0821B930B541710F0CF961F
:1003A000089501970895FC01918D828D981761F051
:1003B000A28DAE0FBF2FB11D5D968C91928D9F5F68
:1003C0009F73928F90E008958FEF9FEF0895FC0147
:1003D000918D828D981731F0828DE80FF11D858DFA
:1003E00090E008958FEF9FEF0895FC01918D228D8D
:1003F000892F90E0805C9F4F821B91098F73992712
:100400000895FC01A48DA80FB92FB11DA35ABF4FA9
:100410002C91848D90E001968F739927848FA68903
:10042000B7892C93A089B1898C9180648C93938D2A
:10043000848D981306C00288F389E02D80818F7D1A
:1004400080830895EF92FF920F931F93CF93DF93D2
:10045000EC0181E0888F9B8D8C8D981316C0E88904
:10046000F989808185FF11C0EE89FF896083E88961
:10047000F98980818064808381E090E0DF91CF9171
:100480001F910F91FF90EF900895F62E0B8D10E0C5
:100490000F5F1F4F0F731127E02E8C8D8E110CC034
:1004A0000FB607FCFACFE889F989808185FFF5CF7F
:1004B000CE010E940102F1CFEB8DEC0FFD2FF11D5B
:1004C000E35AFF4FF0820B8FEA89FB8980818062BB
:1004D000D2CFCF93DF93EC01888D8823B9F0AA891E
:1004E000BB89E889F9898C9185FD03C0808186FDEF
:1004F0000DC00FB607FCF7CF8C9185FFF2CF80813E
:1005000085FFEDCFCE010E940102E9CFDF91CF91AF
:1005100008958BEA92E00E94F50121E0892B09F40D
:1005200020E0822F089580E090E0892B29F00E943E
:10053000890281110E94000080E090E0892B49F03F
:1005400080E090E0892B29F00E94000081110C943A
:1005500000000895E0912802F0912902309729F0D7
:10056000109232021092310209940895CF93DF93D2
:10057000AC01E0912602F09127023097F1F09091C2
:100580003402809133029817C0F090E0292F30E0B8
:100590002617370754F4D901AA56BE4F240F351F2A
:1005A000E90128812C939F5FF1CF10923402609370
:1005B0003302CB01DF91CF910994DF91CF91089560
:1005C000DC011296ED91FC91139711969C91119775
:1005D000808161110EC09095982390831496ED91BF
:1005E000FC911597908111968C9180958923808339
:1005F0000895623061F49095982390831496ED915C
:10060000FC911597808111969C91892BF0CF982BA6
:1006100090830895AF92BF92CF92DF92EF92FF92B4
:100620000F931F93CF93DF936C017B018B01040F1A
:10063000151FEB015E01AE18BF08C017D10759F0B6
:100640006991D601ED91FC910190F081E02DC601F8
:100650000995892B79F7C501DF91CF911F910F91F2
:10066000FF90EF90DF90CF90BF90AF9008958150B2
:100670008C3088F5E82FF0E0E05CFC4F0C94C2264B
:10068000680368036B034C035003530356036B0367
:100690006B035A03600364038FB58F778FBD089592
:1006A0008FB58F7DFBCF8FB5877FF8CF85B58F7DD9
:1006B00085BD089580918B008F7780938B0008957E
:1006C00080918B008F7DF9CF80918B00877FF5CF54
:1006D00083B78F7D83BF08951F93CF93DF93282F18
:1006E00030E0F901EA57FD4F8491F901EF5AFD4FCF
:1006F000D491F901E45EFD4FC491CC23A9F0162FEB
:1007000081110E943703EC2FF0E0EE0FFF1FE4553C
:10071000FE4FA591B4918FB7F894EC91111108C0D8
:10072000D095DE23DC938FBFDF91CF911F91089589
:10073000DE2BF8CFCF93DF9390E0FC01EF5AFD4F13
:100740002491845E9D4FFC0184918823D1F090E038
:10075000880F991FFC01E456FE4FA591B491FC014E
:10076000E455FE4FC591D49161110EC09FB7F89426
:100770008C91E22FE0958E238C932881E223E883ED
:100780009FBFDF91CF9108958FB7F894EC91E22B42
:10079000EC938FBFF6CF3FB7F894809122029091EF
:1007A0002302A0912402B091250222B706B600FED2
:1007B00005C02F3F19F00196A11DB11D3FBFBA2FF3
:1007C000A92F982F8827BC01CD01620F711D811DB3
:1007D000911D42E0660F771F881F991F4A95D1F738
:1007E00008958F929F92AF92BF92CF92DF92EF9235
:1007F000FF924B015C010E94CB036B017C010E94C4
:10080000CB036C197D098E099F09683E73408105F1
:100810009105A8F321E0821A9108A108B10888EE99
:10082000C80E83E0D81EE11CF11C81149104A104C0
:10083000B10429F7FF90EF90DF90CF90BF90AF9079
:100840009F908F90089561E088E00E946C0364E0BF
:1008500070E080E090E00E94F10360E088E00C949A
:100860006C030C9423042FB7F89460911E027091CE
:100870001F0280912002909121022FBF0895E82F3E
:10088000F0E0DF01AA0FBB1FA050BF4F11967C9371
:100890006E938830A8F4E15BFB4F0C94C22657049A
:1008A00061046E047C048A0491049C04A804809171
:1008B0006A008C7F482B40936A0089B7816089BFAA
:1008C000089580916A00837F440F551F440F551F80
:1008D000482B40936A0089B78260F1CF80916A000B
:1008E0008F7C74E0440F551F7A95E1F7482B4093B5
:1008F0006A0089B78460E3CF80916A008F7366E0F5
:10090000440F551F6A95E1F7482B40936A0089B759
:100910008860D5CF8AB78C7F482B4ABF89B7806162
:10092000CECF8AB7837F440F551F440F551F482BE6
:100930004ABF89B78062C3CF8AB78F7C24E0440F57
:10094000551F2A95E1F7482B4ABF89B78064B7CF76
:100950008AB78F7396E0440F551F9A95E1F7482B9D
:100960004ABF89B78068ABCF883010F40C943F043D
:1009700008950E94CB032091840130918501FB01F1
:10098000E21BF30B2091920230919302E217F307DE
:1009900008F438C12091940230919502709385013A
:1009A0006093840140919602509197024130510525
:1009B00099F148F04230510509F4B9C0433051056E
:1009C00009F4EFC00895E217F30708F0D4C080914E
:1009D00099028F5F809399028B3008F413C181E0F4
:1009E00090E0909397028093960241E050E069EB8B
:1009F00074E080918C020E94B4041092830182E51D
:100A000090E0909395028093940283E290E090931B
:100A10009302809392020895409183014130A9F09E
:100A200038F0433009F449C0443009F47CC00895DB
:100A3000E217F30730F491E090938301E093820191
:100A4000089584E0809383010895E217F30798F5F1
:100A500010928301909199029F5F909399028E2F3B
:100A6000EE0F990B20918201821B910927FD93952E
:100A700097FF03C091958195910949970CF4C2C0E5
:100A8000109297021092960282E990E0909395025C
:100A90008093940282E590E0909393028093920277
:100AA0001092990240917A0250E069EB74E08091D3
:100AB0008C020C94B40483E0C5CFE217F30700F373
:100AC00080917A02833061F582E080937A0282E03D
:100AD00090E0909397028093960282E990E0909341
:100AE00095028093940282E590E090939302809324
:100AF000920210929B0210929D0210929E021092FE
:100B00009F021092A0021092A1021092A202809164
:100B1000990280939C021092990210929A02C2CF7D
:100B200040937A02D4CFE217F30788F6A9CF509109
:100B300099025F5F5093990240919A02440FE21725
:100B4000F307E0F040939A02583009F05BC0E0915F
:100B50009B02E630A9F4109297021092960282E965
:100B600090E0909395028093940282E590E09093B8
:100B70009302809392021092990208954160E2CF0D
:100B800083E090E0909397028093960281E08E0F2D
:100B900080939B02F0E0EA56FD4F80919A02878392
:100BA0000895E217F307F8F4109297021092960254
:100BB0001092990282E990E09093950280939402BA
:100BC00082E590E0909393028093920288E0EBE9B3
:100BD000F2E0A3EAB2E001900D928A95E1F781E09C
:100BE00080939802089580919B02863009F4B3CFD8
:100BF00082E090E09093970280939602109299027F
:100C000010929A02089585ED80937400809174008B
:100C100084FDFCCF1092300208952091D601260F5A
:100C20003327331F21323105ECF420913002FC01CF
:100C300090E080E0243069F082E00895A091D60130
:100C40002191AC014A545E4FA40FB52FB11D2C93D6
:100C50000196861798F38091D601680F6093D601AC
:100C600080E0089581E008950895E0913402809134
:100C70003302E81730F4F0E0EA56FE4F808190E04E
:100C800008958FEF9FEF0895909134028091330281
:100C90002FEF3FEF981748F4E92FF0E0EA56FE4FA8
:100CA000208130E09F5F90933402C90108958091C4
:100CB000330290913402891B990B0895CF93DF93EF
:100CC000CB01EA01642F0E940D06CE01DF91CF9186
:100CD000089544E050E06EE771E088E493E00C94FE
:100CE0005E06CF93DF931F92CDB7DEB7698361E0D5
:100CF000CE0101960E940D0681E090E00F90DF91F9
:100D0000CF91089590E080E00895CF93DF93DC01C8
:100D1000EC91F0E0EE0FFF1FE45FFD4FC591D49121
:100D2000988111968C91982381E009F480E0DF91FD
:100D3000CF910895DC0170E0FB01EF5AFD4FE49183
:100D40001196EC931197645E7D4FFB0124912C93D7
:100D500030E0220F331FF901E456FE4F8591949144
:100D600013969C938E931297F901E455FE4F85914B
:100D7000949115969C938E9314970895FC0180810D
:100D8000813089F4CB01845893408897C0F0613852
:100D9000F3E07F07A1F06C5F734081E0653071057F
:100DA00078F080E00895823021F4CB018C5A934092
:100DB000ECCF833061F7CB01845D9340E6CF81E0D7
:100DC0000895CF93DF93EC0161E08D8D9E8D0E949D
:100DD000E002AD8DBE8D1496ED91FC91159790813A
:100DE00011968C9180958923808361E070E080E08A
:100DF00090E00E94F10360E08D8D9E8DDF91CF9198
:100E00000C94E00280E090E0892B29F0809191021F
:100E100083FD0C9400000895E82FF0E0E95CFD4F9D
:100E2000608308950F931F93CF93DF93FC0182811A
:100E3000813089F040F0823009F47AC0DF91CF919F
:100E40001F910F91089561E08081DF91CF911F91F3
:100E50000F910C946C030181C02FD0E0108161E0F0
:100E6000812F0E949A03209719F460E0812FEDCF23
:100E7000CF3FD10511F461E0F9CFE12FF0E0EA575F
:100E8000FD4FE491E150EC3008F04DC0F0E0E55B3F
:100E9000F84F0C94C2265707570793075C07620761
:100EA000680770079307930775077F07890783B75C
:100EB000806283BF01BFC2CF8FB580688FBDDBBDAD
:100EC000CABDBCCF8FB580628FBDD9BDC8BDB6CFFE
:100ED0008FB588608FBDD0937900C0937800AECF76
:100EE00085B5806285BD03BDA9CF80918B008068E8
:100EF00080938B00D0938700C09386009FCF809112
:100F00008B00806280938B00D0938500C093840017
:100F100095CF80918B00886080938B00D093830065
:100F2000C09382008BCFC038D1050CF0A4CF9DCFE9
:100F30008181E381F0E0E95CFD4F80837FCF0F93F7
:100F40001F93CF93DF93D62F8C01C0E0CD1741F0D4
:100F5000F801819191918F010E941207CF5FF6CF26
:100F6000DF91CF911F910F9108950F931F93CF930E
:100F7000DF93162F082FEC0188E493E00E944406CB
:100F800089938C2F801B8117B8F3812FDF91CF912C
:100F90001F910F9108958F929F92AF92BF92CF921F
:100FA000DF92EF92FF920F931F93CF930E94CB0398
:100FB000AB01BC018091560390915703A091580357
:100FC000B09159038A019B01081B190B2A0B3B0B9B
:100FD00080915E03882309F47FC080916003909123
:100FE0005F03E92FEE0FFF0BA82F082E000CBB0BA1
:100FF000C3E68C02E00DF11D1124EC5AFC4F178B57
:10100000068B053F11402105310508F054C09F5F54
:1010100090935F0390915F039332C9F593E69A9F93
:1010200090019B9F300D11242C5A3C4FF901E45A3A
:10103000FF4FC0905A03D0905B03E0905C03F090A8
:101040005D034A015B018C189D08AE08BF0875015D
:101050006401C082D182E282F38229593F4FE1E0EC
:10106000F0E0D901ED93FC938F5F8A3094F5809383
:101070006003E0916003B3E6EB02F0011124E55454
:10108000FC4F1182108210925E0310925F03409316
:101090005603509357036093580370935903CF91AD
:1010A0001F910F91FF90EF90DF90CF90BF90AF9086
:1010B0009F908F90089510925F0391E090935E034C
:1010C00040935A0350935B0360935C0370935D03FA
:1010D000A1CF10926003CDCF053F1140210531050E
:1010E000B0F281E080935E0340935A0350935B0318
:1010F00060935C0370935D03CACFE82FF0E0E95C76
:10110000FD4F60830895CF93FC018281813051F0BF
:1011100020F0823079F0CF91089560E08081CF9106
:101120000C946C03C08161E08C2F0E949A0360E0F4
:101130008C2FF5CFE381F0E0E95CFD4F1082EBCF1F
:1011400080937302882321F08BEF97E00C941207B1
:101150008BEF97E00C948308CF93C82F80917D028A
:101160008C1731F081E0C11101C080E00E94A0081D
:10117000C0937D0260E070E0CB01C1110E94330496
:1011800060937E0270937F0280938002909381022D
:1011900080917D028C1739F081E0C11101C080E09F
:1011A000CF910C94A008CF910895EF92FF920F93E6
:1011B0001F93CF93DF938C01FC01C581D6812097CB
:1011C00051F0E480F12CEF1431F0899199910E9453
:1011D0008308F394F8CFF801C085D185209751F0AA
:1011E000078110E0011731F0899199910E948308DD
:1011F0001F5FF8CFDF91CF911F910F91FF90EF907C
:1012000008950F931F93CF938C01C42F0E948C01DC
:101210008823E1F180914207482F50E0C03128F542
:10122000882319F12C2F30E080914F0790915007BF
:101230000C2E02C0969587950A94E2F780FF15C0A0
:101240000417150719F580914A0790914B070097ED
:10125000E9F0220F331F820F931FFC0180819181DF
:10126000CF911F910F910C94D5080417150771F0B9
:1012700080914A0790914B07009741F04C2F50E026
:10128000440F551F480F591FFA01E8CFCF911F9106
:101290000F910895CF9380914D0790914E07892B20
:1012A000A1F1C0E080914907C81778F58C2F869589
:1012B0008695869590E0E0914D07F0914E07E80FF6
:1012C000F91F208130E04C2F50E063E0880F991F18
:1012D0006A95E1F7BA01681B790B02C0359527952D
:1012E0006A95E2F720FF0FC080914A0790914B0763
:1012F000009749F0440F551F840F951FFC01808112
:1013000091810E94D508CF5FCDCF10924C07CF912D
:1013100008950F931F93CF93DF93EC018B81882364
:1013200079F08B0189819A818617970729F0CE0180
:101330000E94D5081A83098389819A81019731F423
:101340008D819E81009769F06C8105C088859985A3
:10135000009739F06F81DF91CF911F910F910C941D
:101360009F07DF91CF911F910F9108950F931F93C6
:10137000CF938C01C42F0E948C01882309F444C0B0
:1013800080914207482F50E0C03148F5882339F159
:101390002C2F30E080914F07909150070C2E02C007
:1013A000969587950A94E2F780FF19C004171507F0
:1013B00059F580914A0790914B07009729F1609168
:1013C000460770914707220F331F820F931FFC01BE
:1013D00080819181CF911F910F910C9489090417FD
:1013E000150791F080914A0790914B07009761F0A3
:1013F00060914407709145074C2F50E0440F551FF2
:10140000480F591FFA01E4CFCF911F910F91089512
:10141000CF93C0E080914907C81798F480914A079C
:1014200090914B07009759F02C2F30E0220F331F7B
:10143000820F931FFC01808191810E94D508CF5FAC
:10144000E9CF80914D0790914E07892BC1F1C0E003
:1014500080914907C81798F58C2F869586958695B3
:1014600090E0E0914D07F0914E07E80FF91F2081C1
:1014700030E04C2F50E063E0880F991F6A95E1F748
:10148000BA01681B790B02C0359527956A95E2F77A
:1014900020FF13C080914A0790914B07009769F095
:1014A0006091440770914507440F551F840F951FA5
:1014B000FC01808191810E948909CF5FC9CF81E0C1
:1014C00080934C07CF9108950E94AC08EBE7F2E0BF
:1014D00081E087831086E4E8F2E088E0DF011D9276
:1014E0008A95E9F708950C949926CF93863823E0DE
:1014F000920719F130F481389340D1F08FEFCF91FA
:101500000895873823E09207D9F088389340B1F7DF
:1015100086E893E00E94730AC82F87E893E00E9450
:10152000730A90E02FEFC29F800D911D112402C01D
:1015300081E893E0CF910C94730A86E893E0FACFA8
:1015400087E893E0F7CFCF93C82F8FE290E00E9417
:10155000730A811109C085E190E0CC2311F086E186
:1015600090E0CF910C94730A80E0CF910895CF93CF
:10157000C82F8FE290E00E94730A811106C08C2F61
:1015800090E0CA96CF910C94730A80E0CF910895B1
:10159000DF92EF92FF920F931F93CF93DF938C0113
:1015A0007B01D42EE9010E948C018111D092480761
:1015B0008DE190E00E94730AD82EB701C8010E9405
:1015C0008C018823B1F0809142078017110629F51C
:1015D0008091460790914707C817D90751F080912D
:1015E00043078823A9F0219761F4109247071092CE
:1015F0004607DF91CF911F910F91FF90EF90DF9001
:10160000089581E090E09093470780934607F1CFDB
:10161000D0934707C0934607ECCF80914407909141
:101620004507C817D90729F3D0FE0EC0219729F422
:101630001092450710924407DCCF81E090E0909330
:10164000450780934407D5CFD0934507C0934407FF
:10165000D0CF0F931F93CF93C82F81E090E00E94CB
:10166000730A0FE710E021E030E04C2F70E060E0FB
:1016700090E00E94C80ACF911F910F9108950F9397
:101680001F93CF936130710529F4CF911F910F9172
:101690000C94290BC82F81E090E00E94730A0FE799
:1016A00010E030E020E04C2F70E060E090E00E941D
:1016B000C80ACF911F910F9108951F93CF93DF9385
:1016C000EC0180917302882359F08FE090E00E9432
:1016D000730A182F80E190E00E94730A181306C065
:1016E000CE01DF91CF911F910C94730A8BEF97E09D
:1016F0000E9483080FB6F894A89581B5886181BDD2
:1017000011BC0FBEFFCF0C945D0BCF93DF932091E4
:101710008E0230918F022F3F320721F0C901DF91F5
:10172000CF9108958091910287FF2BC086FF0FC053
:1017300089E090E00E94830BC82F81E090E00E9436
:10174000830B9C2F90938F0280938E0215C089E0AB
:1017500090E00E94830BC82F81E090E00E94830BF1
:1017600090E4C99F90011124207C31708F73282B45
:1017700030938F0220938E0280918E0290918F027F
:10178000CECF85FF0CC081E190E00E94830BC82F73
:1017900082E190E00E94830BC05CDD0BD2CF81E040
:1017A00090E00E94830B90E0CDCFFF920F931F93A8
:1017B000CF93DF93EC018B01F22E4330510509F4F6
:1017C0007EC068F441305105E9F04230510509F41A
:1017D00058C0DF91CF911F910F91FF900895453030
:1017E000510509F4D4C008F488C04630510589F782
:1017F00040E024FF2CC0DF91CF911F910F91FF900B
:101800000C94B6098091680281112BC040E0B801A8
:10181000CE01F4FE23C00E94B60941E0B801CE011A
:10182000F0FE26C00E94B60942E0B801CE01F1FEEA
:1018300022C00E94B60943E0B801CE01F2FE1EC0EC
:101840000E94B60944E0B801CE01F3FCD4CFDF9189
:10185000CF911F910F91FF900C9401090E940109F3
:10186000DCCF8DE190E00E94830B81FDCFCFD5CFFF
:101870000E940109D9CF0E940109DDCF0E94010910
:10188000E1CF45E020FF12C00E94B60946E0B80152
:10189000CE01F1FE0EC00E94B60947E0B801CE01AC
:1018A000F2FE0AC00E94B60948E0CDCF0E940109AD
:1018B000EDCF0E940109F1CF0E940109F5CF49E067
:1018C00020FF12C00E94B6094AE0B801CE01F1FE25
:1018D0000EC00E94B6094BE0B801CE01F2FE0AC06C
:1018E0000E94B6094CE0AFCF0E940109EDCF0E94E3
:1018F0000109F1CF0E940109F5CF4DE020FF32C070
:101900000E94B6094EE0B801CE01F1FE2EC00E9441
:10191000B6094FE0B801CE01F2FE2AC00E94B60916
:1019200040E1B801CE01F3FE26C00E94B60941E1B4
:10193000B801CE01F4FE22C00E94B60942E1B8010E
:10194000CE01F5FE1EC00E94B60943E1B801CE01EA
:10195000F6FE1AC00E94B60944E1B801CE01F7FEB6
:1019600076CF49CF0E940109CDCF0E940109D1CF86
:101970000E940109D5CF0E940109D9CF0E94010917
:10198000DDCF0E940109E1CF0E940109E5CF45E1C9
:1019900020FF2EC00E94B60946E1B801CE01F1FE3B
:1019A0002AC00E94B60947E1B801CE01F2FE26C066
:1019B0000E94B60948E1B801CE01F3FE22C00E94A0
:1019C000B60949E1B801CE01F4FE1EC00E94B60975
:1019D0004AE1B801CE01F5FE1AC00E94B6094BE1FA
:1019E000B801CE01F6FE16C00E94B6094CE1B5CF93
:1019F0000E940109D1CF0E940109D5CF0E9401099F
:101A0000D9CF0E940109DDCF0E940109E1CF0E94D8
:101A10000109E5CF0E940109E9CFCF93C82F81E0EA
:101A200090E00E94730A2C2F42E050E070E060E0EA
:101A300090E00E94D50B81E090E00E94730A2C2F69
:101A400030E094E0359527959A95E1F743E050E032
:101A500070E060E090E0CF910C94D50BCF93823092
:101A6000910511F1C62F8330910520F4019779F08B
:101A7000CF91089583309105D9F00497C9F781E09B
:101A800090E00E94730A2C2F45E050E007C081E0EF
:101A900090E00E94730A2C2F41E050E070E060E07B
:101AA00090E0CF910C94D50B862FCF910C940D0D17
:101AB00081E090E00E94730A2C2F44E050E0EECFCA
:101AC0001F93CF93DF93EC01162F0E9499261817CE
:101AD00021F0612FCE010E94A126CE01DF91CF918E
:101AE0001F910C94730ACF93DF93863823E09207FB
:101AF00039F138F481389340E9F08FEFDF91CF91DD
:101B00000895873823E09207F1F088389340A9F7C9
:101B1000C62F86E893E00E94730AD82F87E893E0E7
:101B20000E94730A90E06C2F2FEFD29F800D911DC1
:101B3000112402C081E893E0DF91CF910C94600DF5
:101B400086E893E0F9CF87E893E0F6CF0F931F93F1
:101B5000CF93DF930FB6F894A89581B5886181BDC6
:101B600011BC0FBE0FB7F894D0E0C0E0FE01E457FF
:101B7000FF4F1491CE010E949926181721F0612F72
:101B8000CE010E94A1262196C03181E0D80771F7CD
:101B900081E893E00E949926813029F061E081E894
:101BA00093E00E94A126CCE1D1E01FEF89919991A9
:101BB000FC0111830E941207F1E0CA35DF07B1F77B
:101BC0000FBF88E19BE00FB6F894A89581BD0FBECA
:101BD00091BDDF91CF911F910F9108952F923F9268
:101BE0004F925F926F927F928F929F92AF92BF922D
:101BF000CF92DF92EF92FF920F931F93CF93DF93D9
:101C000000D000D000D0CDB7DEB78C01E0E0AE2E22
:101C1000E0E0BE2EF0E02F2EF0E03F2E412C512CC4
:101C200032014394B0E08B2EB0E09B2E80E0C82EB2
:101C300080E0D82ED8015B960D90BC91A02DBD837D
:101C4000AC83109709F450C28C91803409F451C1CF
:101C500008F04BC0893209F4C4C108F5843209F494
:101C60009DC198F4813209F465C1833209F46EC1D3
:101C7000811113C0E0E0F0E0EF2B79F0AC81BD8181
:101C800011968C910E94000008C0863209F472C13E
:101C900008F44DC0883209F498C180E015C28D3235
:101CA00009F4BFC170F48B3209F4B0C108F4A4C1C7
:101CB000C114D10491F3EC81FD81618185E090E054
:101CC0008DC18F3209F4C2C108F4B6C1803309F462
:101CD000C8C1813311F7E0E0F0E0EF2BF1F2AC8105
:101CE000BD8111966C9182E0C6C1813609F4B4C001
:101CF00048F5803509F452C188F4823409F410C1E2
:101D000008F403C1833449F6A114B10431F2AC8163
:101D1000BD8111966C9184E090E0F4C08E3509F499
:101D2000ADC1803609F490C0813509F0B6CFAC81E1
:101D3000BD8111969C9180E8890F97FF41C10E9457
:101D4000290BABCF8D3609F49BC0A0F4833609F480
:101D500090C008F488C08C3609F09FCF80E090E0F6
:101D6000892B09F49ACFAC81BD8111968C910E9488
:101D7000000093CF873709F498C108F58E3609F033
:101D80008CCFAC81BD811396ED91FC911497309767
:101D900009F4AAC180818F3609F07FCF2114310464
:101DA00009F47BCF11962C91622F661F6627661F60
:101DB0008181B0E88B9FC0011124822B97C08B37A3
:101DC00009F4E2C18F3709F068CFAC81BD8111966B
:101DD000EC90F12CBFEFEB1ABCEFFB0AB701C80186
:101DE0000E94BE06882309F46EC1E5E8EE16E3E022
:101DF000FE0609F468C1FDEAEF16F3E0FF0609F4F8
:101E000089C225EDE21623E0F20609F483C234E824
:101E1000E31633E0F30659F04CEAE41643E0F40627
:101E200031F084EDE81683E0F80609F065C2AC8174
:101E3000BD8112968C91883009F05EC20E94A60D79
:101E4000C8010E94E10666C2EC81FD81618181E0EA
:101E500090E00E942E0D21CFAC81BD8111968C9116
:101E60000E940D0D1ACFEC81FD81618183E090E02D
:101E7000F0CFAC81BD8111966C9184E090E0E9CF08
:101E8000EC81FD816181862F8F778183211431045C
:101E900009F403CF661F6627661FD8015B96ED9194
:101EA000FC918181811121C081E0809395016111B4
:101EB0000EC08091950187FDF0CE60E090E00E9419
:101EC0000000809195018F5F80939501F2CF809102
:101ED000950187FDE2CE61E090E00E9400008091D4
:101EE00095018F5F80939501F2CF90E00E940000F2
:101EF000D4CEA114B10409F4D0CEEC81FD8161816E
:101F000081E090E00E940000C8CEA114B10409F461
:101F1000C4CEAC81BD8111966C9182E090E0F2CF8D
:101F2000A114B10409F4B9CEEC81FD81618183E093
:101F300090E0E8CFE0E0F0E0EF2B09F4AECEAC812A
:101F4000BD8111968C910E940000A7CEE0E0F0E0E8
:101F5000EF2B09F4A2CEAC81BD8111968C9190E05B
:101F600087FF05C0819590E09195819591090E9428
:101F7000000093CEE0E0F0E0EF2B09F48ECEAC81D0
:101F8000BD8111968C9190E087FF05C0819590E00E
:101F90009195819591090E9400007FCE8114910452
:101FA00009F47BCEEC81FD81918180E8890F61E0AD
:101FB00070E097FD02C070E060E00E9400006DCE0E
:101FC00070E060E00E943F0B68CEC114D10409F4B8
:101FD00064CEEC81FD81618181E090E00E9400008F
:101FE0005CCEC114D10409F458CEAC81BD811196E8
:101FF0006C9182E090E0F2CFC114D10409F44DCE8F
:10200000EC81FD81618183E090E0E8CFC114D104CF
:1020100009F443CEAC81BD8111966C9184E090E0CF
:10202000DDCFC114D10409F438CEAC81BD81119645
:102030006C9186E090E0D2CFC114D10409F42DCE8A
:10204000EC81FD81618187E090E0C8CFC114D104AB
:1020500009F423CEAC81BD8111966C9188E090E0AB
:10206000BDCFE0E0F0E0EF2B09F417CEAC81BD81ED
:1020700011966C9181E00E9400000FCEAC81BD8171
:102080001396ED91FC911497309771F180818F3503
:1020900009F003CE20E030E0232B09F4FECD91813E
:1020A00011968C910E940000F8CDEC81FD81E180B9
:1020B000F12CFFEFEF1AFCEFFF0AB701C8010E94F5
:1020C000BE0681112AC081E0D8015B96ED91FC919A
:1020D0005C9723813481148213825C963C932E9307
:1020E0005B97813009F4A6CD26960FB6F894DEBF33
:1020F0000FBECDBFDF91CF911F910F91FF90EF9059
:10210000DF90CF90BF90AF909F908F907F906F9017
:102110005F904F903F902F90089521E8E21623E0C2
:10212000F20601F134E8E31633E0F30659F145E82D
:10213000E41643E0F406A1F08CEAE81683E0F80622
:1021400009F19DEAE91693E0F90651F0A4EDEA16CB
:10215000A3E0FA06B9F0B5EDEB16B3E0FB0671F4B7
:102160008AE002C0F8018081AC81BD8112969C9109
:102170009813A9CFC8010E94E106A5CFC7010E940C
:10218000750AF2CF8DE0F0CFEC81FD81F181F9830A
:10219000EF2EF12C2FEFE21A2CEFF20AB701C80153
:1021A0000E94BE06882309F48ECFAC81BD811296B1
:1021B000BC91BA838B2F90E09C0144E03595279524
:1021C0004A95E1F7E22FE170EE83E09394019C01E0
:1021D00053E0359527955A95E1F7F22FF170FB837F
:1021E000F09393019C0135952795422F4170440F40
:1021F00095958795959587958170880F880F840FA1
:10220000B170B80FBC83B093920181E8E81683E007
:10221000F806B9F4D8018C9180939101E130B1F1C5
:102220008091910190E00C8002C0959587950A9469
:10223000E2F781709927BB81B817190609F043CFDF
:1022400099CFE4E8EE16E3E0FE0651F0FCEAEF1663
:10225000F3E0FF0629F024EDE21623E0F20691F503
:102260008DE0809391019E819130D1F6C701845811
:102270009340029708F427CF89818B5A823008F463
:1022800022CF8981835D823008F41DCFD301C20142
:102290000C8004C0880F991FAA1FBB1F0A94D2F795
:1022A00020919101EA81E3FF22C0822B809391016A
:1022B00060919101C7010E94730D90919101891362
:1022C00002CF58CF35E8E31633E0F30651F04DEA7C
:1022D000E41643E0F40629F085EDE81683E0F806FD
:1022E00011F48AE0BECFC7010E94750ABACF482F09
:1022F0004095822F8423DACFEC81FD816281C70172
:102300000E94730DD8015B96ED91FC919281891723
:1023100009F496CDB1E8EB16B3E0FB0609F0D3CE95
:1023200081E893E00E94730AF8018083CCCEAF92DB
:10233000BF92CF92DF92EF92FF920F931F93CF93B2
:10234000DF93C0913502D0913602109190011111A6
:102350001AC0FE0190E080E025813681232B09F030
:102360005AC025E0289FF001299FF00D11243296D4
:10237000EC0FFD1FF0938F01E0938E01309709F46D
:102380003FC014821382A0908E01B0908F01A114DF
:10239000B104B1F10E943304C0908A01D0908B0146
:1023A000E0908C01F0908D016C197D098E099F09D8
:1023B0006A30710581059105C8F1109290010E9463
:1023C000330460938A0170938B0180938C01909306
:1023D0008D018D8D9E8D0E948506F501908188234B
:1023E00019F19160908381E0809390010E94CB036A
:1023F000609386017093870180938801909389018F
:10240000DF91CF911F910F91FF90EF90DF90CF90D0
:10241000BF90AF900895019635968530910509F0EB
:102420009BCFF0E0E0E0A6CF9E7FDCCF0E94CB0305
:10243000C0908601D0908701E0908801F0908901DA
:102440006C197D098E099F0965317105810591051A
:10245000B8F20E94CB036C197D098E099F09643F75
:1024600071408105910560F68D8D9E8D212F27701D
:10247000C12CD12C7601C39404C0CC0CDD1CEE1C05
:10248000FF1C2A95D2F7103108F049C00E9485063A
:10249000E12FE695E695E695EA0DFB2DF11D8823E3
:1024A000D1F18081C82AC08201E0010F0093900120
:1024B0000E94CB036093860170938701809388010B
:1024C00090938901177F173019F0083109F098CFE0
:1024D0000E94330460938A0170938B0180938C0176
:1024E00090938D01003141F1083109F089CF0B8DB6
:1024F0001C8D80918E0190918F019C8F8B8FCE01CE
:102500000E94EE0DE0918E01F0918F0114821382F2
:102510001C8F0B8F2CC0C0948081C822C4CF0E9416
:102520008506F5019281882319F0C92AC282BCCFA1
:10253000C0949C219283B8CFA0918E01B0918F015D
:102540008C91982F977F973709F45ACF8B3709F4DE
:1025500057CFEB8DFC8D309721F4BC8FAB8F07C02C
:10256000FC01838194810097D9F7B483A3831092EF
:10257000900146CF1F93CF93DF93EC01162F08975E
:1025800079F4662319F10E94A60D80E090E0892B72
:10259000B9F0612FCE01DF91CF911F910C94000013
:1025A00080E090E0892BA9F781E0C11590E1D9077F
:1025B00008F080E0111105C0DF91CF911F910895BF
:1025C00081E027972297C0F780E0F6CF80E090E087
:1025D000892BF9F681E0F0CF0F931F93CF93DF9310
:1025E00020917302222329F08F30910541F48FE06E
:1025F00090E0DF91CF911F910F910C94600D162FF9
:10260000EC018FE090E00E94730A082F80E190E0D7
:102610000E94730A08130CC0C730D10529F0C830D6
:10262000D10519F4183029F0FFCF612FCE01E1CF89
:10263000FFCF0E94A60D88E0DF91CF911F910F91EF
:1026400008958331910588F48131910530F481300A
:10265000910519F08930910531F42FEF3FEF309358
:102660008F0220938E020C94EC128D319105D9F7D4
:10267000677F6093910220917B022F73362F307C0D
:10268000232B20937B02E9CF1F93CF93DF93182F47
:10269000E6E9F2E085E1DF011D928A95E9F782E93A
:1026A00090E0909395028093940282E590E090935D
:1026B000930280939202CBE7D2E0688319828FEF76
:1026C0009FEF9C8B8B8B1D8A83E080937A0243E083
:1026D00050E069EB74E089890E94B4048DE190E0D8
:1026E0000E94830B682F6F738DE190E00E9421138D
:1026F0008E8B612F87E090E00E9421136DE088E0CF
:1027000090E00E94211380E0DF91CF911F910C9403
:10271000640A89B78F7789BF8CEA91E090930F01A3
:1027200080930E0161E08AE00E94441310927902C6
:102730001092780208950F931F930E94CB0300918B
:102740007402109175022091760230917702601B1D
:10275000710B820B930B613F79448240910508F421
:1027600056C08091730281110BC0809178029091C4
:10277000790281309105B1F188F0029709F444C0E3
:102780000E94CB036093740270937502809376026B
:102790009093770281E01F910F91089580E390E07C
:1027A0000E945D0B80FF0EC041E050E06BEC77E0D3
:1027B00087E00E943F0481E090E09093790280934B
:1027C0007802DECF8DE190E00E945D0B82FFD8CFD2
:1027D00041E050E06DEA71E087E00E943F0482E052
:1027E00090E0EBCF89B78F7789BF8CEA91E0909327
:1027F0000F0180930E018DE190E00E945D0B82FD40
:10280000E7CF0E948913BCCF10927202FACF80E00A
:10281000C2CFBF92CF92DF92EF92FF920F931F939E
:10282000CF93DF938B01B42E690182FF23C083FF16
:1028300017C061E0C8010E94BA128823D9F16B2D3C
:10284000C8010E9421138B1135C0F601DF91CF9191
:102850001F910F91FF90EF90DF90CF90BF90099460
:1028600060E0C8010E94BA12882321F1C8010E94C9
:10287000830BE9CF842F8770C1E0D0E07E0101C0D7
:10288000EE0C8A95EAF7D42FD870CB010E94830B07
:10289000C82FB4FE1CC061E0C8010E94BA12882390
:1028A00049F0DD2389F0CE296C2FC8010E94211345
:1028B0008C1759F2DF91CF911F910F91FF90EF90FC
:1028C000DF90CF90BF900895E094CE21EDCF60E0EF
:1028D000C8010E94BA12882369F3CE21DD2319F0C2
:1028E000C111B3CFE7CFCC2309F4AFCFE3CFCF9261
:1028F000DF92EF92FF920F931F93CF93DF937C01B0
:102900006B01C42F122FD42FD07E80917B0287FFC2
:102910002CC0D03EC1F580917C028823A1F190E0CB
:102920000E94830BD82F80917C0290E001960E9438
:10293000830B982F8D2FE816F90629F56C2F70E080
:10294000762F662766277370612B6F5F7F4F22E0BB
:1029500037E0402F8C2FDF91CF911F910F91FF9087
:10296000EF90DF90CF900C94091480FD32C0D036E8
:1029700009F464C088F4D03209F447C0D03409F4B3
:102980005DC0DD2379F1DF91CF911F910F91FF9011
:10299000EF90DF90CF900895D03A09F483C090F47F
:1029A0002C2F2F7141E050E0D03869F7B601C701F4
:1029B000DF91CF911F910F91FF90EF90DF90CF901B
:1029C0000C94D50BD03C09F476C0D03E09F4B6CFB8
:1029D000DACF0E94850B8E159F0549F2E114F104B0
:1029E00031F2D1CF8C2F8E7071F680E090E0892B80
:1029F00051F28C2F8170DF91CF911F910F91FF9039
:102A0000EF90DF90CF900C940000CF71CF3109F0A0
:102A1000BACF412F4F7771F0413071F0111F11275C
:102A2000111F212F30E00FE710E0B601C7010E940F
:102A3000C80AA9CF41E0F2CF40E0F0CF2C2F30E020
:102A40008C2F8F71813029F030F0803121F081316D
:102A5000F9F440E001C041E025FB222720F90DE117
:102A600010E030E0B601C7010E94C80A80E090E0A3
:102A7000892B09F488CF4C2FB601C701DF91CF9184
:102A80001F910F91FF90EF90DF90CF900C9400007A
:102A9000C901880F991F8E71C4FB442740F9482B48
:102AA0004250DACF2C2F2F7043E050E0C4FF7ECF8E
:102AB00042E050E07BCFCF71CE3139F0CF3109F019
:102AC00062CF212F45E050E071CF212F44E050E04C
:102AD0006DCF0F931F93CF93DF93CDB7DEB72997B9
:102AE0000FB6F894DEBF0FBECDBF181619069CF5C1
:102AF00088E493E00E944406992782309105D9F03A
:102B00008330910599F1019759F464E08EE791E0E3
:102B10000E94B507809181018823B9F18130F1F1DC
:102B200090913302809134029817A9F088E493E0E1
:102B30000E944406F5CF69E0CE0101960E94B507D8
:102B4000088519852E813F816B817C814D8189812A
:102B50009A810E94C80A29960FB6F894DEBF0FBE6C
:102B6000CDBFDF91CF911F910F91089567E0CE0106
:102B700001960E94B5074D815E816B817C812F811A
:102B800089819A810E94D50BE6CF80917F01909137
:102B900080010E945D0B80937E01C2CF60917E0117
:102BA00080917F01909180010E94EC12F4CFCF922E
:102BB000DF92EF92FF920F931F93CF93DF93EC017D
:102BC0007B0141305105F9F4CD80DE802496C1149B
:102BD000D104E9F462E070E081E090E00E94DF2639
:102BE0008C01009731F0FC01F182E08288818F5FD7
:102BF0008883C801DF91CF911F910F91FF90EF90D3
:102C0000DF90CF900895C884D9842796E0CF88813B
:102C10008F5F8883C82FD0E062E070E0CE010E9411
:102C2000DF268C0120E0BE0161507109822F90E007
:102C30008617970774F4880F991FF601E80FF91F9C
:102C400040815181800F911FFC01518340832F5F90
:102C5000EDCFC150D048CC0FDD1FC00FD11FF9827E
:102C6000E882C6010E949727C4CF1F920F920FB629
:102C70000F9211240BB60F922F933F934F935F93B4
:102C80006F937F938F939F93AF93BF93EF93FF9334
:102C90008BEA92E00E940102FF91EF91BF91AF9108
:102CA0009F918F917F916F915F914F913F912F9164
:102CB0000F900BBE0F900FBE0F901F9018951F9294
:102CC0000F920FB60F9211240BB60F922F938F9382
:102CD0009F93EF93FF93E091BB02F091BC02808140
:102CE000E091C102F091C20282FD1DC090818091ED
:102CF000C4028F5F8F732091C502821741F0E0916B
:102D0000C402F0E0E555FD4F958F8093C402FF911A
:102D1000EF919F918F912F910F900BBE0F900FBE4F
:102D20000F901F9018958081F2CF1F920F920FB6CF
:102D30000F9211242F933F938F939F93AF93BF9341
:102D400080911E0290911F02A0912002B091210259
:102D500030911D0223E0230F2D3768F126E8230F61
:102D60000296A11DB11D20931D0280931E02909317
:102D70001F02A0932002B093210280912202909121
:102D80002302A0912402B09125020196A11DB11D3C
:102D90008093220290932302A0932402B0932502F1
:102DA000BF91AF919F918F913F912F910F900FBE47
:102DB0000F901F9018950196A11DB11DD4CF1F92A1
:102DC0000F920FB60F9211240BB60F922F933F93D1
:102DD0004F935F936F937F938F939F93AF93BF9323
:102DE000EF93FF93E0910E01F0910F010995FF9190
:102DF000EF91BF91AF919F918F917F916F915F9173
:102E00004F913F912F910F900BBE0F900FBE0F90DF
:102E10001F9018951F920F920FB60F9211240BB6A8
:102E20000F922F933F934F935F936F937F938F9363
:102E30009F93AF93BF93EF93FF93E0910C01F091B9
:102E40000D010995FF91EF91BF91AF919F918F91E6
:102E50007F916F915F914F913F912F910F900BBE9A
:102E60000F900FBE0F901F9018951F920F920FB6E4
:102E70000F9211240BB60F922F933F934F935F93B2
:102E80006F937F938F939F93AF93BF93EF93FF9332
:102E9000E0910A01F0910B010995FF91EF91BF912B
:102EA000AF919F918F917F916F915F914F913F91E2
:102EB0002F910F900BBE0F900FBE0F901F90189583
:102EC0001F920F920FB60F9211240BB60F922F93F1
:102ED0003F934F935F936F937F938F939F93AF93A2
:102EE000BF93EF93FF93E0910801F09109010995D9
:102EF000FF91EF91BF91AF919F918F917F916F91D2
:102F00005F914F913F912F910F900BBE0F900FBE8D
:102F10000F901F9018951F920F920FB60F921124C9
:102F20000BB60F922F933F934F935F936F937F93C3
:102F30008F939F93AF93BF93EF93FF93E09106011D
:102F4000F09107010995FF91EF91BF91AF919F918A
:102F50008F917F916F915F914F913F912F910F9042
:102F60000BBE0F900FBE0F901F9018951F920F92DF
:102F70000FB60F9211240BB60F922F933F934F93DE
:102F80005F936F937F938F939F93AF93BF93EF93D1
:102F9000FF93E0910401F09105010995FF91EF91F4
:102FA000BF91AF919F918F917F916F915F914F9161
:102FB0003F912F910F900BBE0F900FBE0F901F905F
:102FC00018951F920F920FB60F9211240BB60F9205
:102FD0002F933F934F935F936F937F938F939F9321
:102FE000AF93BF93EF93FF93E0910201F091030140
:102FF0000995FF91EF91BF91AF919F918F917F9133
:103000006F915F914F913F912F910F900BBE0F9059
:103010000FBE0F901F9018951F920F920FB60F9230
:1030200011240BB60F922F933F934F935F936F939F
:103030007F938F939F93AF93BF93EF93FF93E09111
:103040000001F09101010995FF91EF91BF91AF91BE
:103050009F918F917F916F915F914F913F912F91B0
:103060000F900BBE0F900FBE0F901F9018951F92E0
:103070000F920FB60F9211240BB60F922F933F931E
:103080004F935F936F937F938F939F93AF93BF9370
:10309000EF93FF9380917100887F803609F44DC0D3
:1030A00008F040C0883209F4A9C028F5803109F43D
:1030B0009DC0C8F4882309F4FBC0883009F496C089
:1030C000FF91EF91BF91AF919F918F917F916F9100
:1030D0005F914F913F912F910F900BBE0F900FBEBC
:1030E0000F901F901895883109F488C0803241F7FD
:1030F0008093F90114C0803409F49DC040F48033FA
:10310000B9F38833E9F68093F90185ECB0C08035D6
:1031100009F485C0883509F496C0883489F60E9480
:103120000306CECF883909F48CC038F5883729F0EA
:1031300050F4883611F0803719F683E0809330021E
:103140001092F80157C0883809F47BC0803919F013
:10315000803809F0B5CF8091F801803208F071C055
:10316000E091F80181E08E0F8093F8018091730067
:10317000F0E0E852FE4F80833DC0803B39F0E0F440
:10318000803A09F479C0883A09F09ACF84E08093B4
:1031900030021092D7011092D601E0912C02F091EA
:1031A0002D0209958091D60181110FC081E0809395
:1031B000D6011092B60109C0803C09F4A6CF883C24
:1031C00009F4A3CF883B09F07BCFE091D70181E0E0
:1031D0008E0F8093D701F0E0EA54FE4F80818093F8
:1031E00073009091D7018091D60129C080911C0273
:1031F0008093730085EC8093740062CF90911B02E2
:1032000080911A02981758F5E0911B0281E08E0F09
:1032100080931B02F0E0E650FE4F8081E9CFE09101
:103220001B0281E08E0F80931B0280917300F0E0FF
:10323000E650FE4F808390911B0280911A029817EE
:10324000C8F285E8D8CFE0911B0281E08E0F809311
:103250001B0280917300F0E0E650FE4F8083809166
:103260002F0281115CCF81E080932E0284EA80934B
:1032700074001092300224CF85EC80937400109279
:1032800030028091F801803230F4E091F801F0E0F2
:10329000E852FE4F10826091F80170E0E0912A023E
:1032A000F0912B0288ED91E009951092F80108CF7A
:1032B0001092F90134CF1F920F920FB60F92112482
:1032C0008F939F937894809156029091550289171D
:1032D00008F0E9C0AF9A90915402891708F0E5C050
:1032E000AD9A90915302891708F0E1C09091620065
:1032F00094609093620090915202891708F0DBC0AD
:1033000090916200916090936200909151028917B0
:1033100008F0D5C0909162009860909362009091FF
:103320005002891708F0CFC090916200906190938D
:10333000620090914F02891708F0C9C09091620015
:1033400092609093620090914E02891708F0C3C07A
:103350001A9A90914D02891708F0BFC01B9A90915C
:103360004C02891708F0BBC01C9A90914B02891738
:1033700008F0B7C01D9A90914A02891708F0B3C0AF
:103380009091620090629093620090914902891737
:1033900008F0ADC0959A90914802891708F0A9C02D
:1033A000909165009860909365009091470289170D
:1033B00008F0A3C0C79A90914602891708F09FC0F1
:1033C000C69A90914502891708F09BC0C59A9091C2
:1033D0004402891708F097C0C49A90914302891754
:1033E00008F093C09091650094609093650090916F
:1033F0004202891708F08DC0AB9A9091410289175B
:1034000008F089C0DF9A90914002891708F085C0C2
:10341000DE9A90913F02891708F081C0DD9A909161
:103420003E02891708F07DC0DC9A90913D02891711
:1034300008F079C0DB9A90913C02891708F075C0BA
:10344000AC9A90913B02891708F071C09091650089
:1034500091609093650090913A02891708F06BC0D3
:103460009091650092609093650090913902891760
:1034700008F065C0A89A90913802891708F061C0D9
:10348000A99A90913702891708F05DC0AA9A809195
:1034900056028F5F809356029F918F910F900FBEBF
:1034A0000F901F901895AF9816CFAD981ACF9091A6
:1034B00062009B7F1ECF909162009E7F24CF9091EF
:1034C0006200977F2ACF909162009F7E30CF9091CB
:1034D00062009D7F36CF1A983CCF1B9840CF1C9836
:1034E00044CF1D9848CF909162009F7D4CCF959816
:1034F00052CF90916500977F56CFC7985CCFC69802
:1035000060CFC59864CFC49868CF909165009B7FC9
:103510006CCFAB9872CFDF9876CFDE987ACFDD98FC
:103520007ECFDC9882CFDB9886CFAC988ACF909103
:1035300065009E7F8ECF909165009D7F94CFA89867
:103540009ACFA9989ECFAA98A2CFCF93DF93EC01F0
:1035500061E088810E949A0360E08881DF91CF91C9
:103560000C946C039F92AF92BF92CF92DF92EF9236
:10357000FF920F931F93CF93DF931092AE0210929E
:10358000AD0288EE93E0A0E0B0E08093AF029093AC
:10359000B002A093B102B093B2022EE531E03093B5
:1035A000AC022093AB0220E930E03093B8022093C4
:1035B000B70229E230E03093BA022093B9022BE23D
:1035C00030E03093BC022093BB022AE230E030931B
:1035D000BE022093BD0225E930E03093C002209363
:1035E000BF022CE230E03093C2022093C10210925D
:1035F000C4021092C5021092C6021092C702109225
:103600004B0310924A0380934C0390934D03A09375
:103610004E03B0934F0380E791E09093490380936A
:1036200048031092560310925703109258031092B9
:10363000590310925A0310925B0310925C0310928C
:103640005D0310925E0310925F031092600387E0A7
:1036500090E0909355038093540383E190E00E949F
:10366000730AC82F82E190E00E94730AD82F81E18B
:1036700090E00E94730A182F81E090E00E94730A84
:1036800021E030E03093450720934407309347070B
:10369000209346071092480710924C0710924E074D
:1036A00010924D0780933F07212F205C330BC901F7
:1036B0002D2F382FC9019093410780934007CF7772
:1036C000C0934207109243078DE18093490762E05F
:1036D00070E08DE190E00E94DF2690934B0780938D
:1036E0004A070097C9F0EC0110E0EE24E394F12CB6
:1036F0008AE090E00E94FB26FC01F282E1821382C4
:10370000148216821582178211861086108389937F
:1037100099931F5F1D3161F767E08FE597E00E9485
:103720009A066BE089E597E00E949A061EE11093E5
:10373000FB07C2E0C093FD071092FE07DFEFD093B6
:10374000FC071092FF078BEF97E00E94A51A0DE18E
:103750000093F607C093F80781E08093F907D093B0
:10376000F7071092FA0786EF97E00E94A51A8CE1FE
:10377000F82EF092F107C093F307C093F407D093AB
:10378000F2071092F50781EF97E00E94A51A9BE1DE
:10379000E92EE092EC07C093EE0723E0B22EB09240
:1037A000EF07D093ED071092F0078CEE97E00E94A0
:1037B000A51A3AE1D32ED092E707C093E90744E077
:1037C000A42EA092EA07D093E8071092EB0787EEA9
:1037D00097E00E94A51A80E28093E207C093E40775
:1037E00055E0952E9092E507D093E3071092E607F7
:1037F00082EE97E00E94A51A89E28093DD07C093CC
:10380000DF0786E08093E007D093DE071092E107A0
:103810008DED97E00E94A51A88E28093D807C093A7
:10382000DA0787E08093DB07D093D9071092DC0793
:1038300088ED97E00E94A51A87E28093D307C09392
:10384000D50788E08093D607D093D4071092D70786
:1038500083ED97E00E94A51A86E28093CE07C0937D
:10386000D00789E08093D107D093CF071092D20779
:103870008EEC97E00E94A51A85E28093C907C09359
:10388000CB078AE08093CC07D093CA071092CD076C
:1038900089EC97E00E94A51A8FE18093C407C0933A
:1038A000C6078BE08093C707D093C5071092C8075F
:1038B00084EC97E00E94A51A84E28093BF07C0932E
:1038C000C1076CE0C62EC092C207D093C007109209
:1038D000C3078FEB97E00E94A51AC092BA07C09366
:1038E000BC077DE0C72EC092BD07D093BB071092E6
:1038F000BE078AEB97E00E94A51AC092B507C09355
:10390000B707EEE0CE2EC092B807D093B60710925C
:10391000B90785EB97E00E94A51AC092B007C09343
:10392000B207FFE0CF2EC092B307D093B107109239
:10393000B40780EB97E00E94A51AC092AB07C09332
:10394000AD07A0E1CA2EC092AE07D093AC0710928B
:10395000AF078BEA97E00E94A51AC092A607C09312
:10396000A80781E18093A907D093A7071092AA071F
:1039700086EA97E00E94A51AB7E1CB2EC092A10774
:10398000C093A30782E18093A407D093A20710926B
:10399000A50781EA97E00E94A51A82E380939C071D
:1039A000C0939E0783E180939F07D0939D07109259
:1039B000A0078CE997E00E94A51A90929707C09300
:1039C000990784E180939A07D093980710929B07F8
:1039D00087E997E00E94A51AA0929207C0939407E6
:1039E00085E180939507D09393071092960782E91B
:1039F00097E00E94A51AB0928D07C0938F0786E1C9
:103A000080939007D0938E07109291078DE897E0EE
:103A10000E94A51AC0938807C0938A07C0928B079B
:103A2000D093890710928C0788E897E00E94A51A26
:103A30008EE280938307C093850788E18093860791
:103A4000D09384071092870783E897E00E94A51A15
:103A500081E380937E07C093800789E1809381078B
:103A6000D0937F07109282078EE797E00E94A51AF5
:103A700080E380937907C0937B07D0927C07D09333
:103A80007A0710927D0789E797E00E94A51A8DE2D8
:103A900080937407C0937607E0927707D0937507F9
:103AA0001092780784E797E00E94A51A8FE280932E
:103AB0006F07C0937107F0927207D093700710924E
:103AC00073078FE697E00E94A51A81E280936A0748
:103AD000C0936C0700936D07D0936B0710926E072D
:103AE0008AE697E00E94A51A83E280936507C09357
:103AF000670710936807D09366071092690785E6F9
:103B000097E0DF91CF911F910F91FF90EF90DF90A1
:103B1000CF90BF90AF909F900C94A51ACF93DF9356
:103B2000CDB7DEB762970FB6F894DEBF0FBECDBF3C
:103B3000789483B78C6483BF87B7816087BF82E046
:103B40008EBD8EB581608EBD8FB581608FBD85B510
:103B5000846085BD85B5806485BD80918A00836061
:103B600080938A0080918B00816080938B0087E82E
:103B700086B91AB80FB6F894A89581B5886181BD49
:103B800011BC0FBE61E08DE00E949A032FB7F8943C
:103B900090E080E0FC01E95CFD4F108201968F31DE
:103BA0009105C1F7AF98AD98809162008B7F8093AB
:103BB0006200809162008E7F80936200809162003B
:103BC000877F80936200809162008F7E8093620085
:103BD000809162008D7F809362001A981B981C98D8
:103BE0001D98809162008F7D8093620095988091EE
:103BF0006500877F80936500C798C698C598C4986C
:103C0000809165008B7F80936500AB98DF98DE988C
:103C1000DD98DC98DB98AC98809165008E7F80936E
:103C20006500809165008D7F80936500A898A998B4
:103C3000AA982FBF9FB7F894A79AA59A8091610080
:103C40008460809361008091610081608093610055
:103C50008091610088608093610080916100806143
:103C60008093610080916100826080936100129A6C
:103C7000139A149A159A8091610080628093610072
:103C80008D9A80916400886080936400BF9ABE9A88
:103C9000BD9ABC9A80916400846080936400A39A6A
:103CA000D79AD69AD59AD49AD39AA49A8091640036
:103CB00081608093640080916400826080936400DE
:103CC000A09AA19AA29A9FBF1FBC89E08EBD8CE0EA
:103CD00093E09BBD8ABD87B7806187BF1092560273
:103CE00061E088E00E949A0360E08FE597E00E941F
:103CF000E002E0915B07F0915C07908180915A07A8
:103D0000809589238083E0915D07F0915E07808133
:103D100090915A07892B8083D12CC12CBB24B3945A
:103D2000F601E454FE4FE4910E2F10E0C8010E940A
:103D3000730AF82EC80101960E94730AE82EC80182
:103D400002960E94730AA82EC80103960E94730A65
:103D500090914907F91638F5F601E45EFE4F0081AF
:103D60001181D8011196AC92119714968C938F2DD6
:103D7000E11014C10E94B1014C0141E050E0B801D2
:103D80000E94D715F401968385838F2D0E94B1017F
:103D90007C0150E040E0B8010E94D715D701199688
:103DA0009C938E931897A895F2E0CF0ED11C4EE30A
:103DB000C416D10409F0B4CF61E070E084E090E073
:103DC0000E94DF2690934E0780934D07892B91F038
:103DD00010E000E0E0904D07F0904E07E00EF11E7D
:103DE000802F0E94B70AD7018C930F5F1F4F0430BA
:103DF000110581F780E00E94A30A082F10E081E0FE
:103E00000E94A30A282F30E0322F222722273E7F4C
:103E1000000F111F202B312B3093500720934F0799
:103E200080FF05C021603093500720934F0789E63B
:103E300095E1909327028093260289E696E090937D
:103E400029028093280210923402109233021092B9
:103E50003202109231021092300281E080932F02E0
:103E600010922E0261E083E10E946C0361E082E126
:103E70000E946C03809171008E7F8093710080910D
:103E800071008D7F8093710088E48093700085E4D9
:103E9000809374008AEA92E090932D0280932C0222
:103EA00086EB92E090932B0280932A0282E080932B
:103EB00072008CE08093700060E086E10E949A03BB
:103EC000ECE9F2E08491E7E6F2E00491E2E3F2E06B
:103ED000149111117BC081E0809371028091710275
:103EE00081119EC081E090E00E94730A21E030E0E1
:103EF00030935E0220935D0280935F0281E190E047
:103F00000E94730A21E130E0309361022093600245
:103F10008093620282E190E00E94730A22E130E025
:103F20003093640220936302809365028DE190E0F8
:103F30000E945D0B81FD5AC08DE190E09093670275
:103F4000809366021092680287E080938C028093CF
:103F50008D0260E00E949A0361E087E00E946C039A
:103F600060E089E00E94441388E19BE00FB6F8947A
:103F7000A89581BD0FBE91BD72E0472E512C809156
:103F80007102882309F4A9C08091570290915802C8
:103F90000E94EE0DA8950E949302F1CF0E94B101FC
:103FA000FC01B382F0E8EF1609F4EFCEB1E8EB12B2
:103FB000FACE8F2D0E94B1017C0141E050E0B801A2
:103FC0000E94D715F70196838583EDCE81110E945B
:103FD0003703E12FF0E0EE0FFF1FE45FFD4FA591E7
:103FE000B491EC91E02309F476CF78CF8DE190E0A5
:103FF0000E945D0B85FD0DC0809116019091170107
:10400000A09118018093660290936702A0936802C2
:104010009BCF8091190190911A01A0911B01F2CFC1
:104020008FE190E00E94FB268C0186E0F8018183FD
:1040300086E090E00E94FB267C016AE00E949A06DE
:10404000D8015E96FC92EE925D9710935802009311
:10405000570281E893E00E94730AF801808384305C
:1040600010F081E08083109336020093350260E007
:10407000D80111968C910E949A0360E0F801858D19
:10408000968D0E94E002D80116961C921E921597FA
:104090001B961C921E921A9750961C921E921F9766
:1040A00055961C921E9254975A961C921E9259979E
:1040B0005C961C921E925B9711968C919CEF980FC8
:1040C000943020F08251843008F08FEF42E050E0CD
:1040D00067E971E10E94B40447CF809169028111C0
:1040E0000DC00E94CB03609374027093750280939D
:1040F00076029093770281E0809369028091780242
:10410000909179028130910509F4B1C260F1029772
:1041100009F040CF80914C07811102C00E94080A2B
:1041200080917202882309F4E8C589E597E00E942E
:10413000850681117FC080914407909145070197C2
:1041400009F0D4C5109245071092440780914C079E
:10415000811102C00E94080A89E597E00E94850645
:104160008823D1F367C080917D028823B1F00E943B
:10417000330400917E0210917F02209180023091E1
:104180008102601B710B820B930B653171058105F8
:10419000910518F080E00E94640A809198028823BB
:1041A00009F448C0F89488E0E3EAF2E0A1E5B7E05A
:1041B00001900D928A95E1F71092980278943091CF
:1041C000A302E5EAF2E090E080E0391721F02191C6
:1041D00082279F5FFACF81112DC080E090E0892B6C
:1041E00021F081E597E00E94000080915307811142
:1041F00028C090915407911124C080E090E0892B51
:1042000019F080E00E94000080917D028823A9F0CF
:1042100081E00E94AC0880914C0781110E944A09FC
:104220000E94CB03609374027093750280937602B0
:10423000909377020E949B13ADCE81E00E94640AA6
:10424000EACF90917D02992309F486C0805780318E
:1042500008F07FC081E00E94AC0810915107809166
:10426000840218130AC0412F50E066E872E083E52B
:1042700097E00E942028892B61F01092830288E049
:10428000E1E5F7E0A4E8B2E001900D928A95E1F74C
:10429000C2CF809183028F5F80938302133009F035
:1042A00040C090915307892F8770F0905407853054
:1042B00029F4F09282020E942304ADCF0DE110E0B8
:1042C000843091F0282F30E08430F0F400918202A5
:1042D0000023D1F00150110B000F111F000F111F0F
:1042E000020F131F0F5F1F4F93FF10C061E0C80143
:1042F0000E94BA12882309F48ECF6F2DC8010E9444
:104300002113F81288CFD7CF8901ECCF60E0C80124
:104310000E94BA12882309F47ECFC8010E94830B41
:10432000F0CF143009F077CF80915307682F70E0F9
:10433000762F66276627737090915407692B6F5FFD
:104340007F4F21E334E0409155078C700E9409149F
:1043500062CF80E00E94640AE0915307EF3F61F46E
:1043600080915407811157CF80E090E0892B09F4A8
:1043700052CF0E9400004FCFE7FD0DC000915607BD
:10438000209155074091540770E060E08E2F90E037
:104390000E94771440CFE03C08F058C130917B0276
:1043A00037FF39CF20915407822F90E08C01009580
:1043B0001095000F111F000F111F007C1170EF737B
:1043C0000E2B95958795B82FB370BB2E8091510712
:1043D000853041F52C782C3029F50E94850B80170B
:1043E000910721F00F3F114009F015CF809154073C
:1043F00090E0982F88278827937000915507080F21
:10440000192F111D0F5F1F4FF090560761E0C80173
:104410000E94BA126F2D882309F4FDCEC8010E94B4
:104420002113F9CE6801F1E0CF1AD108CC0CDD1CC4
:10443000CC0CDD1CCB2876014FEFE41AF40A8091F6
:1044400090028823F9F036FF41C0C70160E071E0B7
:104450000E94AE26682F81E090E00E942113C701E0
:10446000F7FE02C081509F4F692F89E090E00E94C3
:10447000211380E090E0892B19F0C7010E94000011
:104480001092900280917B0280FD39C0809151078B
:10449000843009F04FC0809154078978813009F049
:1044A000BACE6091550780E090E0892B19F0C701E2
:1044B0000E94000080E090E0892B09F4ACCE40918E
:1044C00055076B2DC7010E940000A5CEB8016F7380
:1044D000772781E090E00E942113B801E6E075950E
:1044E0006795EA95E1F789E090E00E94211380E06A
:1044F00090E0892B29F2C8010E940000C1CF86FFFD
:104500000DC00E94850B8E159F0509F4BFCF5DEF8E
:10451000E51657E0F5060CF0B9CF7DCE0E94850B6D
:104520008017910709F4B2CF0F3F81E0180709F413
:10453000ADCF71CE833069F540915407942F9170BF
:10454000C92E43FBDD24D0F880E090E0892B31F0C8
:1045500047702D2DB801C7010E94000080917B0299
:1045600086FF0BC080E090E0892B09F454CE4D2DDE
:104570006C2DC7010E9400004ECE80E090E0892B98
:1045800009F449CE2D2D4C2D6B2DC8010E94000041
:1045900042CE863009F03FCE80915407982F99780B
:1045A000913021F08F78803809F035CE80917B02F0
:1045B00086FF28C00E94850B8E159F05E9F4809127
:1045C000550790E0382F2227222733700091560795
:1045D000020F132F111D0F5F1F4FF0905707959576
:1045E000879595958795837099278230910599F0E5
:1045F000039709F40BCF0FCEADEFEA16A7E0FA064A
:10460000F4F609CE0E94850B80179107C1F20F3F87
:104610001140A9F200CEF4FEFECD61E0C8010E9477
:10462000BA12882309F4F7CDC8010E94830B9F2D8D
:10463000977061E070E001C0660F9A95EAF7F3FEAB
:1046400002C0682BEBCE60956823E8CEE83E08F008
:10465000E2CDE05CFF0B8091540700915707209159
:1046600056074091550761E070E09E2F91CE00EB18
:1046700013E09AE0E92EF12CDD24D39423E6C22E38
:1046800033E0B32E42E0A42E5BE1352EF8018385A2
:104690009485019709F056C1E654F1098081918112
:1046A000329660807180680E791ED80151961C92F6
:1046B000519752961C92529716961C9216971A96DC
:1046C0001C921A971D961C921D971E961C921E975F
:1046D0001F961C921F9717961C92179750961C9224
:1046E000509753961C92539719961C9219971596AA
:1046F0001C921E9214979301359527954801BCE5AD
:104700008B1A9108F40161E070E086899789A72FE0
:10471000A69541E050E04C0F5D1F4A0F511DDA0194
:1047200041E0281739070CF040E04C93713248F40F
:10473000408D518D840F951F8E579109C19708F4B4
:1047400060E07E5F3496743201F7FE013196CE9CB4
:104750009001CF9C300D112442E357E0421B530BD4
:1047600090E080E0708171118FC071817111A6C0DD
:10477000D401A80FB91F1D961C920196329689305C
:10478000910581F7F80180819181A281B3818551E2
:104790009540A109B10983359B40A105B10508F0F9
:1047A0006EC1662309F46BC181E046E964167104A9
:1047B0000CF080E0D80151968C93F801EC54F1098B
:1047C000908131978081B9E08B9F802D1124939D3A
:1047D000800D112432979081890F31964081942F5A
:1047E000990F940F890FF8018683EB54F10946E97C
:1047F000641671040CF42EC181E09081913009F0AF
:1048000080E0D8011D968C938989880F9F85890F38
:10481000880F9D85890F880F9B85890F91E009F08E
:1048200090E0F801968791E0813009F090E0D8019E
:104830001F969C9381118150F80187838289882378
:1048400009F456C08C85880F9E85890F880F98893A
:10485000890F880F9A89890FEEEFE80FEE3008F084
:1048600047C0F0E0EA5CFB4D0C94C2266B246B243D
:104870007324732416251625782478241B251B25DC
:104880001F251F25242524257130C1F42180A1E096
:104890002A1206C0DA01A80FB91F1D962C926DCFFF
:1048A00021100CC0D401A80FB91F1D96AC92853001
:1048B00008F463CFD80152967C935FCF853048F0DF
:1048C000DA01A80FB91F1D96BC92D8015296DC924E
:1048D00054CF60E057CFD8011996AC9219978170E8
:1048E00053968C9305C041E050E0F8015583448312
:1048F00089E090E0FAE0EF16F10411F08E199F09BB
:10490000D8011C965C924E921B97C89EB001C99E1E
:10491000700D1124FB01E554FC4F808191810297B9
:1049200089F46F597C4F49E050E08FE397E0821B98
:10493000930B0E942028892B29F443E050E0F801D2
:1049400054874387F1E0EF1AF1080D591F4FE11426
:10495000F10409F09BCEEBEBF3E090E080E02081E6
:1049600031812330310509F092C023E6289F800170
:10497000299F100D1124F801E554FC4F84E090E0CC
:10498000918380830F591C4F0115110509F452CCF6
:10499000680145E5C40ED11CD601EC91E0905F02A0
:1049A000F0E0F12CCF018E199F098130910509F4B7
:1049B000D8C00CF074C0892B09F02DCC80915C021A
:1049C000D801A45ABF4F9C91992309F48EC08061ED
:1049D00080935C0290915C02D801A85ABF4F8C91E1
:1049E000823009F49DC008F082C0813009F48CC087
:1049F00020915C0241E050E070E060E0CF010E9455
:104A0000D50BF801ED5AFF4F8081918181309105DE
:104A100009F09CC033960DE110E021E030E04081C8
:104A200070E060E0C7010E94C80AF5CBD801199672
:104A3000BC92199754CFF8015582448259CFD801BE
:104A40001996DC9219974BCF44E0F80141878170A9
:104A5000838B4ECF8081811112C08F85880F9D85F9
:104A6000890F880F9B85890FD8011A968C9381E056
:104A70009989913009F080E0F801808B39CFE5E029
:104A8000F0E0D8011C96FC93EE931B975BCF019648
:104A9000ED59FF4F8A30910509F061CFCBCB8230C1
:104AA000910509F4AAC0039709F0B5CB80E390E023
:104AB0000E945D0B83FFAFCB80915902F801E85A49
:104AC000FF4F9081923009F4FBC008F0E0C09130B4
:104AD00009F4EAC0F60180812091590244E050E0D7
:104AE00070E060E08350990B57C08F7E71CF8330A8
:104AF00009F1843009F07CCFD801AE59BF4F8C91B9
:104B0000882311F1986007C0D801AE59BF4F8C912E
:104B1000882321F0916090935C026ACF9E7FFBCF47
:104B2000D801AE59BF4F8C91882311F09260F3CF1A
:104B30009D7FF1CFD801AE59BF4F8C91882311F0E2
:104B40009460E9CF9B7FE7CF977FE5CF029709F08D
:104B500062CBF801EA5AFF4F0DE110E030E020E0AF
:104B60005ECF80E390E00E945D0B81FF54CB80918B
:104B70005B02F801E85AFF4F9081923041F178F4DE
:104B80009130C9F0F601808120915B0242E050E053
:104B900070E060E08150990B0E94D50B3CCB9330C4
:104BA00001F1943079F7F801EE59FF4F9081992384
:104BB00011F1886007C0F801EE59FF4F90819923E9
:104BC00021F0816080935B02DDCF8E7FFBCFF80107
:104BD000EE59FF4F9081992311F08260F3CF8D7FC2
:104BE000F1CFF801EE59FF4F9081992311F08460C5
:104BF000E9CF8B7FE7CF877FE5CF80E390E00E940E
:104C00005D0B82FF08CB80915A02F801E85AFF4FF2
:104C10009081923031F168F49130B9F0D6018C91E5
:104C200020915A0243E050E070E060E08250990B1E
:104C3000B3CF933001F1943089F7F801EE59FF4F6B
:104C40009081992311F1886007C0F801EE59FF4F58
:104C50009081992321F0816080935A02DFCF8E7F6B
:104C6000FBCFF801EE59FF4F9081992311F082603C
:104C7000F3CF8D7FF1CFF801EE59FF4F908199234B
:104C800011F08460E9CF8B7FE7CF877FE5CF93304A
:104C900009F1943009F01ECFF801EE59FF4F9081D1
:104CA000992311F1886007C0F801EE59FF4F9081F8
:104CB000992321F08160809359020CCF8E7FFBCF26
:104CC000F801EE59FF4F9081992311F08260F3CFE4
:104CD0008D7FF1CFF801EE59FF4F9081992311F0AC
:104CE0008460E9CF8B7FE7CF877FE5CF81E090E0DD
:104CF000909345078093440729CA8FE597E00E9467
:104D00008506811107C081E090E09093450780936C
:104D1000440790CA10924507109244078BCA60E07E
:104D200089E597E00E94E00260E08FE597E00C944F
:104D3000E002E199FECF9FBB8EBBE09A99278DB32D
:104D40000895262FE199FECF9FBB8EBB2DBB0FB6DA
:104D5000F894E29AE19A0FBE0196089597FB072E08
:104D600016F4009407D077FD09D00E94CB2607FCEB
:104D700005D03EF4909581959F4F0895709561956B
:104D80007F4F0895EE0FFF1F0024001C0BBE0790FD
:104D9000F691E02D0994AA1BBB1B51E107C0AA1F85
:104DA000BB1FA617B70710F0A61BB70B881F991FCC
:104DB0005A95A9F780959095BC01CD0108950F9360
:104DC0001F93CF93DF93869F8001879F100D969F3F
:104DD000100D1124C8010E94FB26EC01009729F058
:104DE000A80170E060E00E942D28CE01DF91CF91F4
:104DF0001F910F9108950F931F93CF93DF938230EC
:104E0000910510F482E090E0E0910208F09103082F
:104E100030E020E0B0E0A0E0309799F421153105B2
:104E200009F44AC0281B390B24303105D8F58A8192
:104E30009B816115710589F1FB0193838283FE01DA
:104E400011C0408151810281138148175907E0F058
:104E50004817590799F4109761F012960C9312971E
:104E600013961C933296CF01DF91CF911F910F9132
:104E700008950093020810930308F4CF211531051B
:104E800051F04217530738F0A901DB019A01BD0127
:104E9000DF01F801C1CFEF01F9CF909303088093B0
:104EA0000208CDCFFE01E20FF31F819391932250B0
:104EB000310939832883D7CF209100083091010828
:104EC000232B41F4209112013091130130930108FA
:104ED0002093000820911001309111012115310516
:104EE00041F42DB73EB74091140150911501241B98
:104EF000350BE0910008F0910108E217F307A0F4E8
:104F00002E1B3F0B2817390778F0AC014E5F5F4F1F
:104F10002417350748F04E0F5F1F50930108409348
:104F20000008819391939FCFF0E0E0E09CCFCF9376
:104F3000DF930097E9F0FC01329713821282A0916F
:104F40000208B0910308ED0130E020E01097A1F4D1
:104F500020813181820F931F209100083091010838
:104F60002817390709F061C0F0930108E0930008A1
:104F7000DF91CF910895EA01CE17DF07E8F54A8166
:104F80005B819E0141155105B1F7E901FB83EA837D
:104F900049915991C40FD51FEC17FD0761F4808129
:104FA00091810296840F951FE901998388838281FC
:104FB00093819B838A83F0E0E0E012968D919C912F
:104FC00013970097B9F52D913C911197CD01029659
:104FD000820F931F2091000830910108281739078C
:104FE00039F6309751F51092030810920208B093E9
:104FF0000108A0930008BCCFD383C28340815181B4
:10500000840F951FC817D90761F44E5F5F4F8881E1
:105010009981480F591F518340838A819B819383D3
:1050200082832115310509F0B0CFF0930308E09396
:1050300002089ECFFD01DC01C0CF13821282D7CFC0
:10504000FB01DC0104C08D910190801921F44150D5
:105050005040C8F7881B990B0895DC0101C06D937F
:1050600041505040E0F7089511E0CFE5D1E004C091
:10507000FE010E94C2262196C036D107C9F7F894D6
:02508000FFCF60
:10508200AC01000000000000000000000000000071
:105092000000040880001D00021D0022FB07F60725
:1050A200F107EC07E707E207DD07D807D307CE07CA
:1050B200C907C407BF07BA07B507B007AB07A607FA
:1050C200A1079C07970792078D07880783077E072A
:1050D200790774076F076A0765070000000022025C
:1050E2000A03C4016902F501D301E70100000000CF
:0E50F20071065E068206340657064406350631
:00000001FF
