:100000000C9460010C947D190C9452190C942719CE
:100010000C94FC180C94D1180C94A6180C947B1812
:100020000C9450180C948A010C948A010C948A0147
:100030000C94CC1A0C948A010C948A010C948A01B9
:100040000C9406180C948A010C948A010C948A0171
:100050000C948A010C948A010C948A010C948A01F4
:100060000C948A010C948A010C948A010C948A01E4
:100070000C948A010C948A010C948A010C948A01D4
:100080000C948A010C94A8190C948A01280300008E
:100090000000000A0D0000000000000101C0800007
:1000A000000000000000000000060000000000004A
:1000B0000000000000000000000000000000000040
:1000C000000000000000FF3F0002000000000000F0
:1000D0000000000000000000000000000000000020
:1000E0000000000000000000000000000000000010
:1000F000000000000000000000000000010080007F
:1001000002008000030080000400800005008000E1
:1001100006008000070080000800800009008000C1
:100120000A0080000B0080000C0080000D008000A1
:100130000E0080000F008000100080001100800081
:100140001200800013008000140080001500800061
:10015000160080001700800018008000000080005A
:10016000000080000000800000008000000080008F
:100170001980FF001981FF00FF000000FF00000050
:10018000FF000000FF000000FF000000FF00000073
:10019000FF000000FF000000FF00000000003A0028
:1001A00037003400310022006100640000003B0091
:1001B00038003500320023006200650070007400D2
:1001C00078007C008000840088008C0090009400FF
:1001D00098009C00A000A400A800AC00B000B400EF
:1001E000B800BC00C000C400C800CC00D000D400DF
:1001F000D800DC00E000E400E800EC00F000F400CF
:10020000F800FC000001040108010C0100003900A5
:10021000360033003000210020006300050505058D
:100220000505050502020202020202020707040494
:100230000404040404040707030303030303030380
:100240000701010101010101010606060606060675
:10025000060102040810204080010204081020401A
:1002600080081001020408102040800102010204ED
:100270000810204080048040201008040201010280
:100280000408102040800000000A0B0C0000000051
:10029000000001040506000000000000000000004E
:1002A000000000000000000000000000000000004E
:1002B000000000000000000000000000231CC82710
:1002C00011241FBECFEFD0E1DEBFCDBF11E0A0E013
:1002D000B1E0E4EFF2E500E00BBF02C007900D9241
:1002E000AE36B107D9F727E0AEE6B1E001C01D9206
:1002F000A838B207E1F711E0CFE5D1E004C02197BB
:10030000FE010E94FB27CE35D107C9F70E94C11E0E
:100310000C946D290C9400002091CB0281E02132D5
:1003200008F044C08091A7028111FCCF8091CA02DD
:1003300092E09093A70291E09093A6029FEF909392
:10034000A5021092A4022093A302AAEAB2E0E3E875
:10035000F2E090E0291331C0109282029091820263
:10036000880F892B8093820280918102813049F528
:1003700010928102809182028093730080917400B8
:1003800083FDF8CF85EC809374008091A7028230C2
:10039000E1F38091A5028F3FB1F08091A5028032F8
:1003A000A1F08091A502803391F084E01092A9021F
:1003B0001092CB021092A80208953D9131939F5F55
:1003C000C9CF85EEE0CF80E0F1CF82E0EFCF83E0D0
:1003D000EDCF2091CE063091CF062115310549F0A1
:1003E00090E0880F991F820F931FFC0180819181FB
:1003F000089590E080E008959C016115710529F051
:100400006130710571F080E008958091C306821714
:10041000130681F09091C60681E09217130699F7B2
:10042000089581E04091C4065091C50642175307D4
:1004300051F7F6CF81E0F4CFFF920F931F93CF9344
:10044000DF938C01F42EE9010E94FC018823B1F0B6
:100450008091C6068017110619F58091CA06909101
:10046000CB068C179D0751F08091C706882399F021
:10047000219751F41092CB061092CA06DF91CF91CA
:100480001F910F91FF90089581E090E09093CB062B
:100490008093CA06F3CFD093CB06C093CA06EECFA3
:1004A0008091C8069091C906C817D90739F3F0FEA4
:1004B0000EC0219729F41092C9061092C806DECF0B
:1004C00081E090E09093C9068093C806D7CFD0937F
:1004D000C906C093C806D2CF089581E08093480230
:1004E0000895E091FD01F091FE01309729F01092FE
:1004F000A9021092CB0209940895CF93DF93AC0127
:10050000E091FF01F09100023097F1F09091FC0131
:100510008091FB019817C0F090E0292F30E026175A
:10052000370754F4D901AB58BE4F240F351FE901EA
:1005300028812C939F5FF1CF1092FC016093FB0107
:10054000CB01DF91CF910994DF91CF910895DC0128
:100550001296ED91FC91139711969C9111978081C1
:1005600061110EC09095982390831496ED91FC91A3
:100570001597908111968C91809589238083089599
:10058000623061F49095982390831496ED91FC91DC
:100590001597808111969C91892BF0CF982B908391
:1005A000089581508C3088F5E82FF0E0E652FD4F39
:1005B0000C94FB27020302030503E602EA02ED02A4
:1005C000F00205030503F402FA02FE028FB58F77ED
:1005D0008FBD08958FB58F7DFBCF8FB5877FF8CF07
:1005E00085B58F7D85BD089580918B008F77809331
:1005F0008B00089580918B008F7DF9CF80918B00C7
:10060000877FF5CF83B78F7D83BF08951F93CF93E7
:10061000DF93282F30E0F901EA57FD4F8491F9016B
:10062000EF5AFD4FD491F901E45EFD4FC491CC2304
:10063000A9F0162F81110E94D102EC2FF0E0EE0FED
:10064000FF1FE455FE4FA591B4918FB7F894EC913C
:10065000111108C0D095DE23DC938FBFDF91CF91BD
:100660001F910895DE2BF8CFCF93DF9390E0FC012C
:10067000EF5AFD4F2491845E9D4FFC0184918823A5
:10068000D1F090E0880F991FFC01E456FE4FA59130
:10069000B491FC01E455FE4FC591D49161110EC097
:1006A0009FB7F8948C91E22FE0958E238C9328814C
:1006B000E223E8839FBFDF91CF9108958FB7F8942D
:1006C000EC91E22BEC938FBFF6CF3FB7F89480917B
:1006D000F1019091F201A091F301B091F40122B7E0
:1006E00006B600FE05C02F3F19F00196A11DB11DF1
:1006F0003FBFBA2FA92F982F8827BC01CD01620FC9
:10070000711D811D911D42E0660F771F881F991F83
:100710004A95D1F708958F929F92AF92BF92CF9250
:10072000DF92EF92FF924B015C010E9465036B0127
:100730007C010E9465036C197D098E099F09683E42
:10074000734081059105A8F321E0821A9108A10860
:10075000B10888EEC80E83E0D81EE11CF11C81149C
:100760009104A104B10429F7FF90EF90DF90CF909E
:10077000BF90AF909F908F90089561E088E00E94B5
:10078000060364E070E080E090E00E948B0360E08C
:1007900088E00C9406030C94BD032FB7F894609185
:1007A000ED017091EE018091EF019091F0012FBF6A
:1007B0000895E82FF0E0DF01AA0FBB1FAF5FBE4F27
:1007C00011967C936E938830A8F4E751FC4F0C94FB
:1007D000FB27F103FB030804160424042B0436044E
:1007E000420480916A008C7F482B40936A0089B74D
:1007F000816089BF089580916A00837F440F551FEF
:10080000440F551F482B40936A0089B78260F1CF8F
:1008100080916A008F7C74E0440F551F7A95E1F750
:10082000482B40936A0089B78460E3CF80916A00C7
:100830008F7366E0440F551F6A95E1F7482B40938C
:100840006A0089B78860D5CF8AB78C7F482B4ABFAA
:1008500089B78061CECF8AB7837F440F551F440F7D
:10086000551F482B4ABF89B78062C3CF8AB78F7C98
:1008700024E0440F551F2A95E1F7482B4ABF89B75A
:100880008064B7CF8AB78F7396E0440F551F9A954F
:10089000E1F7482B4ABF89B78068ABCF883010F4A6
:1008A0000C94D90308950E9465032091DA013091D8
:1008B000DB01FB01E21BF30B20916802309169021E
:1008C000E217F30708F438C120916A0230916B02F5
:1008D0007093DB016093DA0140916C0250916D02DC
:1008E0004130510599F148F04230510509F4B9C041
:1008F0004330510509F4EFC00895E217F30708F0FB
:10090000D4C080916F028F5F80936F028B3008F4A8
:1009100013C181E090E090936D0280936C0241E0FE
:1009200050E063E574E0809162020E944E041092F0
:10093000D90182E590E090936B0280936A0283E292
:1009400090E0909369028093680208954091D901E4
:100950004130A9F038F0433009F449C0443009F47B
:100960007CC00895E217F30730F491E09093D90129
:10097000E093D801089584E08093D9010895E217A7
:10098000F30798F51092D90190916F029F5F9093B1
:100990006F028E2FEE0F990B2091D801821B9109C7
:1009A00027FD939597FF03C09195819591094997EC
:1009B0000CF4C2C010926D0210926C0282E990E0B9
:1009C00090936B0280936A0282E590E090936902B3
:1009D0008093680210926F024091500250E063E5EC
:1009E00074E0809162020C944E0483E0C5CFE2175C
:1009F000F30700F380915002833061F582E0809329
:100A0000500282E090E090936D0280936C0282E944
:100A100090E090936B0280936A0282E590E090935D
:100A20006902809368021092710210927302109210
:100A30007402109275021092760210927702109250
:100A4000780280916F028093720210926F0210926E
:100A50007002C2CF40935002D4CFE217F30788F65A
:100A6000A9CF50916F025F5F50936F024091700267
:100A7000440FE217F307E0F040937002583009F09A
:100A80005BC0E0917102E630A9F410926D02109201
:100A90006C0282E990E090936B0280936A0282E597
:100AA00090E0909369028093680210926F0208951B
:100AB0004160E2CF83E090E090936D0280936C02FE
:100AC00081E08E0F80937102F0E0E459FD4F809138
:100AD000700287830895E217F307F8F410926D020D
:100AE00010926C0210926F0282E990E090936B0278
:100AF00080936A0282E590E0909369028093680295
:100B000088E0E1E7F2E0A9E7B2E001900D928A9572
:100B1000E1F781E080936E02089580917102863042
:100B200009F4B3CF82E090E090936D0280936C0261
:100B300010926F02109270020895CF93DF93DC0140
:100B4000EC91F0E0EE0FFF1FE45FFD4FC591D491F3
:100B5000988111968C91982381E009F480E0DF91CF
:100B6000CF910895DC0170E0FB01EF5AFD4FE49155
:100B70001196EC931197645E7D4FFB0124912C93A9
:100B800030E0220F331FF901E456FE4F8591949116
:100B900013969C938E931297F901E455FE4F85911D
:100BA000949115969C938E9314970895FC018081DF
:100BB000813089F4CB01845893408897C0F0613824
:100BC000F3E07F07A1F06C5F734081E06530710551
:100BD00078F080E00895823021F4CB018C5A934064
:100BE000ECCF833061F7CB01845D9340E6CF81E0A9
:100BF0000895CF93DF93EC0161E08D8D9E8D0E946F
:100C0000A702AD8DBE8D1496ED91FC911597908144
:100C100011968C9180958923808361E070E080E05B
:100C200090E00E948B0360E08D8D9E8DDF91CF91CF
:100C30000C94A70280E090E0892B29F08091670254
:100C400083FD0C940000089585ED809374008091DD
:100C5000740084FDFCCF1092A70208952091B50185
:100C6000260F3327331F21323105ECF42091A702E0
:100C7000FC0190E080E0243069F082E00895A091CA
:100C8000B5012191AC014B565E4FA40FB52FB11D9C
:100C90002C930196861798F38091B501680F6093A5
:100CA000B50180E0089581E008950895E091FC0188
:100CB0008091FB01E81730F4F0E0EB58FE4F8081A3
:100CC00090E008958FEF9FEF08959091FC0180913F
:100CD000FB012FEF3FEF981748F4E92FF0E0EB58B6
:100CE000FE4F208130E09F5F9093FC01C901089581
:100CF0008091FB019091FC01891B990B0895CF9283
:100D0000DF92EF92FF920F931F93CF93DF937C01BB
:100D1000CB018A012091A802222389F0EB016B010B
:100D2000C40ED51ECC15DD0569F06991D701ED9192
:100D3000FC910190F081E02DC7010995F3CF642F5C
:100D40000E942E06C801DF91CF911F910F91FF9055
:100D5000EF90DF90CF90089544E050E061E771E0BC
:100D60008CEC92E00C947F06CF93DF931F92CDB76B
:100D7000DEB769832091A8022223F9F02091CB02EB
:100D8000203258F021E030E0FC013383228390E0F0
:100D900080E00F90DF91CF9108958091A902E82F14
:100DA000F0E0E655FD4F998190838F5F8093A90213
:100DB0008093CB0281E090E0ECCF61E0CE01019620
:100DC0000E942E06F7CF90E080E00895E82FF0E033
:100DD000EF5FFD4F608308950F931F93CF93DF93D1
:100DE000FC018281813089F040F0823009F47AC0C0
:100DF000DF91CF911F910F91089561E08081DF9184
:100E0000CF911F910F910C9406030181C02FD0E068
:100E1000108161E0812F0E943403209719F460E073
:100E2000812FEDCFCF3FD10511F461E0F9CFE12F54
:100E3000F0E0EA57FD4FE491E150EC3008F04DC08E
:100E4000F0E0EB5DF84F0C94FB27310731076D079D
:100E500036073C0742074A076D076D074F075907DA
:100E6000630783B7806283BF01BFC2CF8FB580683D
:100E70008FBDDBBDCABDBCCF8FB580628FBDD9BD74
:100E8000C8BDB6CF8FB588608FBDD0937900C093B1
:100E90007800AECF85B5806285BD03BDA9CF8091B6
:100EA0008B00806880938B00D0938700C09386006E
:100EB0009FCF80918B00806280938B00D0938500C0
:100EC000C093840095CF80918B00886080938B00C5
:100ED000D0938300C09382008BCFC038D1050CF033
:100EE000A4CF9DCF8181E381F0E0EF5FFD4F808350
:100EF0007FCF0F931F93CF93DF93D62F8C01C0E04A
:100F0000CD1741F0F801819191918F010E94EC067B
:100F1000CF5FF6CFDF91CF911F910F9108950F937F
:100F20001F93CF93DF93162F082FEC018CEC92E0E8
:100F30000E94650689938C2F801B8117B8F3812F3F
:100F4000DF91CF911F910F9108950F931F93CF932E
:100F50008A01C22F91E09093A8028093CA02109256
:100F6000A9021092CB028CEC92E00E94B4064C2FA6
:100F700050E0B8018CEC92E00E947F06CF911F9167
:100F80000F910C948C011F93CF93DF9300D01F928D
:100F9000CDB7DEB7209170012223C1F09A838983F7
:100FA0006B8310E080917001181780F4E0916E015E
:100FB000F0916F01E10FF11D23E0AE014F5F5F4F34
:100FC00066E080810E94A5071F5FECCF0F900F9015
:100FD0000F90DF91CF911F9108958F929F92AF92C2
:100FE000BF92CF92DF92EF92FF920F931F93CF9316
:100FF0000E946503AB01BC018091DA029091DB0293
:10100000A091DC02B091DD028A019B01081B190B43
:101010002A0B3B0B8091E202882309F47FC0809168
:10102000E4029091E302E92FEE0FFF0BA82F082EA8
:10103000000CBB0BC3E68C02E00DF11D1124E8523D
:10104000FD4F178B068B053F11402105310508F038
:1010500054C09F5F9093E3029091E3029332C9F5ED
:1010600093E69A9F90019B9F300D112428523D4F8B
:10107000F901E45AFF4FC090DE02D090DF02E09009
:10108000E002F090E1024A015B018C189D08AE0875
:10109000BF0875016401C082D182E282F3822959BE
:1010A0003F4FE1E0F0E0D901ED93FC938F5F8A3090
:1010B00094F58093E402E091E402B3E6EB02F001E0
:1010C0001124E15CFC4F118210821092E202109216
:1010D000E3024093DA025093DB026093DC027093E8
:1010E000DD02CF911F910F91FF90EF90DF90CF9095
:1010F000BF90AF909F908F9008951092E30291E07F
:101100009093E2024093DE025093DF026093E0028C
:101110007093E102A1CF1092E402CDCF053F1140C0
:1011200021053105B0F281E08093E2024093DE02B6
:101130005093DF026093E0027093E102CACFE82F80
:10114000F0E0EF5FFD4F60830895CF93FC01828153
:10115000813051F020F0823079F0CF91089560E035
:101160008081CF910C940603C08161E08C2F0E9496
:10117000340360E08C2FF5CFE381F0E0EF5FFD4FAB
:101180001082EBCF80934902882361F00FB6F89468
:10119000A89581B5886181BD11BC0FBE8FE797E02E
:1011A0000C94EC068FE797E00E94A50888E19BE08D
:1011B0000FB6F894A89581BD0FBE91BD0895CF9349
:1011C000C82F809153028C1731F081E0C11101C00A
:1011D00080E00E94C208C093530260E070E0CB013F
:1011E000C1110E94CD036093540270935502809305
:1011F000560290935702809153028C1739F081E088
:10120000C11101C080E0CF910C94C208CF91089524
:10121000EF92FF920F931F93CF93DF938C01FC010A
:10122000C581D681209751F0E480F12CEF1431F084
:10123000899199910E94A508F394F8CFF801C0858F
:10124000D185209751F0078110E0011731F0899185
:1012500099910E94A5081F5FF8CFDF91CF911F9150
:101260000F91FF90EF9008952091CE063091CF0618
:101270002115310551F090E0880F991F820F931FBF
:10128000FC01808191810C9408090895CF9380918D
:10129000D006882369F18091D1069091D206892BDE
:1012A00029F1C0E08091CD06C81700F58C2F8695F6
:1012B0008695869590E0E091D106F091D206E80FF0
:1012C000F91F208130E043E0880F991F4A95E1F72C
:1012D0004C2F481B02C0359527954A95E2F720FF11
:1012E00003C08C2F0E943409CF5FDCCF1092D00650
:1012F000CF9108950F931F93CF938C01C42F0E9419
:10130000FC018823E1F18091C606482F50E0C031EE
:1013100028F5882319F12C2F30E08091D306909185
:10132000D4060C2E02C0969587950A94E2F780FFAA
:1013300015C00417150719F58091CE069091CF06B8
:101340000097E9F0220F331F820F931FFC01808169
:101350009181CF911F910F910C94080904171507E3
:1013600071F08091CE069091CF06009741F04C2FFE
:1013700050E0440F551F480F591FFA01E8CFCF9195
:101380001F910F9108950F931F93CF93DF93EC015B
:101390008B81882379F08B0189819A818617970741
:1013A00029F0CE010E9408091A83098389819A8154
:1013B000019731F48D819E81009769F06C8105C0A1
:1013C00088859985009739F06F81DF91CF911F91C2
:1013D0000F910C947907DF91CF911F910F91089590
:1013E0002091CE063091CF062115310571F0609124
:1013F000C8067091C90690E0880F991F820F931F4D
:10140000FC01808191810C94C3090895CF93809150
:10141000D006811138C0C0E08091CD06C81728F4ED
:101420008C2F0E943409CF5FF7CF8091D106909125
:10143000D206892B29F1C0E08091CD06C81700F5AE
:101440008C2F86958695869590E0E091D106F09157
:10145000D206E80FF91F208130E043E0880F991F82
:101460004A95E1F74C2F481B02C0359527954A95C0
:10147000E2F720FF03C08C2F0E94F009CF5FDCCF82
:1014800081E08093D006CF9108952091C8063091D5
:10149000C9062817390761F09093C9068093C806DA
:1014A0008091D006882321F00E9446090C94060AF8
:1014B00008950F931F93CF938C01C62F823091050F
:1014C00009F45BC048F4019791F16C2FC801CF91EA
:1014D0001F910F910C94C3078330910509F48BC0C1
:1014E000049799F785E160FFC0C00E94F00986E18A
:1014F000C1FFBEC00E94F00987E1C2FFBCC00E94CC
:10150000F00988E1C3FFBAC00E94F00989E1C4FF75
:10151000B8C00E94F0098AE1C5FFB6C00E94F00978
:101520008BE1C6FFB4C00E94F0098CE14AC080E0A4
:1015300064FF17C00E94F00981E0C0FF15C00E943F
:10154000F00982E0C1FF13C00E94F00983E0C2FFEE
:1015500011C00E94F00984E0C3FF35C00E94F00969
:10156000B4CF0E943409E8CF0E943409EACF0E9428
:101570003409ECCF0E943409EECF85E060FF26C02D
:101580000E94F00986E0C1FF24C00E94F00987E0B4
:10159000C2FF22C00E94F00988E0C3FF20C00E9461
:1015A000F00989E0C4FF1EC00E94F0098AE0C5FF6F
:1015B0001CC00E94F0098BE0C6FF1AC00E94F0090F
:1015C0008CE0C7FDCBCF0E9434097FCF0E94340945
:1015D000D9CF0E943409DBCF0E943409DDCF0E94AD
:1015E0003409DFCF0E943409E1CF0E943409E3CFF0
:1015F0000E943409E5CF8DE060FF22C00E94F0090F
:101600008EE0C1FF20C00E94F0098FE0C2FF1EC023
:101610000E94F00980E1C3FF1CC00E94F00981E133
:10162000C4FF1AC00E94F00982E1C5FF18C00E94E1
:10163000F00983E1C6FF16C00E94F00984E1C1CF22
:101640000E943409DDCF0E943409DFCF0E943409A3
:10165000E1CF0E943409E3CF0E943409E5CF0E9414
:101660003409E7CF0E943409E9CF0E9434093FCF03
:101670000E94340941CF0E94340943CF0E943409AB
:1016800045CF0E94340947CF0E94340949CF0E94B8
:1016900034094BCF0F931F93CF938C01C42F0E941B
:1016A000FC01882309F444C08091C606482F50E00D
:1016B000C03148F5882339F12C2F30E08091D306D2
:1016C0009091D4060C2E02C0969587950A94E2F765
:1016D00080FF19C00417150759F58091CE06909127
:1016E000CF06009729F16091CA067091CB06220FB0
:1016F000331F820F931FFC0180819181CF911F9135
:101700000F910C94C3090417150791F08091CE0630
:101710009091CF06009761F06091C8067091C9065C
:101720004C2F50E0440F551F480F591FFA01E4CFCA
:10173000CF911F910F910895EF92FF920F931F93F6
:10174000CF93DF93C0E0D1E0D093A802C093CA0248
:101750001092A9021092CB020E948C01811105C047
:10176000809170018F5F80937001CF5FCF3761F7F9
:10177000D0917001DD2311F161E070E08D2F90E0D8
:101780000E9418287C0190936F0180936E01C0E045
:1017900010E001E00093A802C093CA021092A902CF
:1017A0001092CB020E948C01811105C0F701E10F5C
:1017B000F11DC0831F5FCF5FCF3761F78D2FDF91A2
:1017C000CF911F910F91FF90EF9008950E94DF0835
:1017D000E1E5F2E081E087831086EAE5F2E088E067
:1017E000DF011D928A95E9F708950C94D227EF92B4
:1017F000FF920F931F93CF93DF9300D01F92CDB72B
:10180000DEB7F82E8B0181E090E00E94F50B90E0AE
:101810002091C3062817190629F02091C60628171B
:10182000190611F4F092CC068DE190E00E94F50BC0
:10183000E82E81E090E00E94F50B90E021E030E09E
:101840000130110511F030E020E04E2D70E060E035
:101850000E941C02809170018823C1F0F9821B83D1
:101860000A8310E080917001181780F4E0916E01F6
:10187000F0916F01E10FF11D23E0AE014F5F5F4F6B
:1018800065E080810E94A5071F5FECCF0F900F904D
:101890000F90DF91CF911F910F91FF90EF900895DE
:1018A000CF93863823E0920719F130F481389340C2
:1018B000D1F08FEFCF910895873823E09207D9F0C8
:1018C00088389340B1F786E893E00E94F50BC82F63
:1018D00087E893E00E94F50B90E02FEFC29F800D08
:1018E000911D112402C081E893E0CF910C94F50B77
:1018F00086E893E0FACF87E893E0F7CFCF93C82F3D
:101900008FE290E00E94F50B811109C085E190E023
:10191000CC2311F086E190E0CF910C94F50B80E0A0
:10192000CF910895CF93C82F8FE290E00E94F50BDE
:10193000811106C08C2F90E0CA96CF910C94F50BC4
:1019400080E0CF9108951F93CF93DF93EC018091B6
:101950004902882359F08FE090E00E94F50B182F80
:1019600080E190E00E94F50B181306C0CE01DF91D4
:10197000CF911F910C94F50B8FE797E00E94A5087B
:10198000FFCF0C94A30CCF93DF932091640230918E
:1019900065022F3F320721F0C901DF91CF910895F1
:1019A0008091670287FF2BC086FF0FC089E090E01F
:1019B0000E94C10CC82F81E090E00E94C10C9C2FB6
:1019C000909365028093640215C089E090E00E94C4
:1019D000C10CC82F81E090E00E94C10C90E4C99F27
:1019E00090011124207C31708F73282B3093650275
:1019F000209364028091640290916502CECF85FFAE
:101A00000CC081E190E00E94C10CC82F82E190E0FF
:101A10000E94C10CC05CDD0BD2CF81E090E00E943F
:101A2000C10C90E0CDCFBF92CF92DF92EF92FF92A8
:101A30000F931F93CF93DF9300D01F92CDB7DEB7E4
:101A400030913302311150C1B22E6A017B018C01F9
:101A50004330510509F497C060F541305105C9F193
:101A60004230510509F470C0B701C8010E94FC0161
:101A7000882309F439C180917001882309F434C1A5
:101A8000DA82C982BB8210E080917001181708F0D9
:101A90002BC1E0916E01F0916F01E10FF11D23E088
:101AA000AE014F5F5F4F63E080810E94A5071F5F1B
:101AB000EBCF4530510509F4D0C008F483C046305F
:101AC000510591F640E0C80124FF28C00E944A0B4E
:101AD000CBCF80913002811127C040E0B701C8010F
:101AE000B4FE1FC00E944A0B41E0B701C801B0FE1E
:101AF00022C00E944A0B42E0B701C801B1FE1EC0DD
:101B00000E944A0B43E0B701C801B2FE1AC00E940E
:101B10004A0B44E0B701C801B3FCD8CF0E947A0950
:101B2000A3CF0E947A09E0CF8DE190E00E94C10C22
:101B300081FDD3CFD9CF0E947A09DDCF0E947A09E7
:101B4000E1CF0E947A09E5CF45E0C80120FF12C02D
:101B50000E944A0B46E0B701C801B1FE0EC00E94C8
:101B60004A0B47E0B701C801B2FE0AC00E944A0B07
:101B700048E0D0CF0E947A09EDCF0E947A09F1CFD8
:101B80000E947A09F5CF49E0C80120FF12C00E94E7
:101B90004A0B4AE0B701C801B1FE0EC00E944A0BD1
:101BA0004BE0B701C801B2FE0AC00E944A0B4CE0EC
:101BB000B1CF0E947A09EDCF0E947A09F1CF0E943D
:101BC0007A09F5CF4DE0C80120FF32C00E944A0BD0
:101BD0004EE0B701C801B1FE2EC00E944A0B4FE093
:101BE000B701C801B2FE2AC00E944A0B40E1B7010A
:101BF000C801B3FE26C00E944A0B41E1B701C801EB
:101C0000B4FE22C00E944A0B42E1B701C801B5FEF2
:101C10001EC00E944A0B43E1B701C801B6FE1AC0BC
:101C20000E944A0B44E1B701C801B7FE77CF4ECFFF
:101C30000E947A09CDCF0E947A09D1CF0E947A09F9
:101C4000D5CF0E947A09D9CF0E947A09DDCF0E94B0
:101C50007A09E1CF0E947A09E5CF45E1C80120FF6A
:101C60002EC00E944A0B46E1B701C801B1FE2AC04E
:101C70000E944A0B47E1B701C801B2FE26C00E948C
:101C80004A0B48E1B701C801B3FE22C00E944A0BCB
:101C900049E1B701C801B4FE1EC00E944A0B4AE1E7
:101CA000B701C801B5FE1AC00E944A0B4BE1B7014B
:101CB000C801B6FE16C00E944A0B4CE1B4CF0E9488
:101CC0007A09D1CF0E947A09D5CF0E947A09D9CF5B
:101CD0000E947A09DDCF0E947A09E1CF0E947A0939
:101CE000E5CF0E947A09E9CF0F900F900F90DF9116
:101CF000CF911F910F91FF90EF90DF90CF90BF9009
:101D000008958F929F92AF92BF92CF92DF92EF92FF
:101D1000FF920F931F93CF93DF9300D000D01F92B9
:101D2000CDB7DEB750913302511138C04801590187
:101D3000142F6B017C010E94FC0181111093CC06D1
:101D40008DE190E00E94F50B9501482FB601C70187
:101D50000E941C02B601C7010E94FC018823F1F019
:101D6000809170018823D1F01983BB82AA829D8261
:101D70008C82F12C80917001F81680F4E0916E0154
:101D8000F0916F01EF0DF11D25E0AE014F5F5F4F48
:101D900062E080810E94A507F394ECCF0F900F9032
:101DA0000F900F900F90DF91CF911F910F91FF90A7
:101DB000EF90DF90CF90BF90AF909F908F9008955D
:101DC0001F93CF93DF93EC01162F0E94D227181791
:101DD00021F0612FCE010E94DA27CE01DF91CF9151
:101DE0001F910C94F50BCF93DF93863823E0920775
:101DF00039F138F481389340E9F08FEFDF91CF91DA
:101E00000895873823E09207F1F088389340A9F7C6
:101E1000C62F86E893E00E94F50BD82F87E893E061
:101E20000E94F50B90E06C2F2FEFD29F800D911D3B
:101E3000112402C081E893E0DF91CF910C94E00E71
:101E400086E893E0F9CF87E893E0F6CF0F931F93EE
:101E5000CF93DF930FB7F894D0E0C0E0FE01E457D2
:101E6000FF4F1491CE010E94D227181721F0612F45
:101E7000CE010E94DA272196C03181E0D80771F7A0
:101E800081E893E00E94D227813029F061E081E867
:101E900093E00E94DA27CDE1D1E01FEF899199917B
:101EA000FC0111830E94EC06F1E0CB35DF07B1F7AE
:101EB0000FBFDF91CF911F910F9108952F923F9205
:101EC0004F925F926F927F928F929F92AF92BF924A
:101ED000CF92DF92EF92FF920F931F93CF93DF93F6
:101EE00000D000D000D0CDB7DEB78C01E0E0AE2E40
:101EF000E0E0BE2EF0E02F2EF0E03F2E412C512CE2
:101F000032014394B0E08B2EB0E09B2E80E0C82ECF
:101F100080E0D82ED8015B960D90BC91A02DBD839A
:101F2000AC83109709F48DC28C91823409F4A7C157
:101F300008F053C08A3209F418C220F5843209F43B
:101F4000DCC198F4813209F4A4C1833209F4ADC133
:101F5000811116C0E0E0F0E0EF2B91F0AC81BD8183
:101F600011968C910E9400000BC0863209F4B1C119
:101F700008F4D1C1883209F4E1C1893209F4EAC117
:101F800080E04FC28F3209F41AC298F48C3209F4FF
:101F900001C208F4F4C18D3209F406C28E3281F711
:101FA000C114D10469F3EC81FD81618187E090E087
:101FB000CEC1813309F41BC208F40CC2803409F489
:101FC00052C18134E9F6A114B104D1F2AC81BD81D2
:101FD00011966C9182E090E04FC1853609F4E8C01B
:101FE00008F045C0803609F4C7C070F5803509F4A3
:101FF00084C160F4833421F6A114B10409F2AC81E8
:10200000BD8111966C9184E090E036C1813509F470
:1020100082C18E3509F0B4CFAC81BD811396ED91AC
:10202000FC911497309709F40CC280818F3509F028
:10203000A7CF20E030E0232B09F4A2CF91811196A5
:102040008C910E9400009CCF823609F4A4C008F451
:102050009BC0833609F4A5C0843609F091CFEC818A
:10206000FD81618185E090E00E94C30789CF8D36B4
:1020700009F4B8C0B8F4873609F4A7C008F49FC0C3
:10208000883609F4A9C08C3609F07ACF80E090E058
:10209000892B09F475CFAC81BD8111968C910E947A
:1020A00000006ECF873709F4ADC108F58E3609F010
:1020B00067CFAC81BD811396ED91FC911497309759
:1020C00009F4BFC180818F3609F05ACF2114310441
:1020D00009F456CF11962C91622F661F6627661F52
:1020E0008181B0E88B9FC0011124822BB9C08B374E
:1020F00009F4F7C18F3709F043CFAC81BD81119648
:10210000EC90F12CBFEFEB1ABCEFFB0AB701C80152
:102110000E94D605882309F483C1E5E8EE16E3E0C2
:10212000FE0609F47DC1FDEAEF16F3E0FF0609F4AF
:102130009EC225EDE21623E0F20609F498C234E8C7
:10214000E31633E0F30659F04CEAE41643E0F406F4
:1021500031F084EDE81683E0F80609F07AC2AC812C
:10216000BD8112968C91883009F073C20E94260FAF
:10217000C8010E94F9057BC2EC81FD81618181E08B
:1021800090E00E94590AFCCEAC81BD8111966C9101
:1021900082E090E0F6CFEC81FD81618183E090E008
:1021A000F0CFAC81BD8111966C9184E090E0E9CFD5
:1021B000AC81BD8111966C9186E090E055CFEC81A9
:1021C000FD81618187E090E04FCFAC81BD811196A8
:1021D0006C9188E090E048CFEC81FD81618189E0DD
:1021E00090E042CFAC81BD8111966C911197862F02
:1021F0008F7711968C93D8015B96ED91FC915C974B
:1022000081832114310409F4BBCE661F6627661F43
:102210005B96ED91FC918181811121C081E08093D9
:10222000EB0161110EC08091EB0187FDA9CE60E04A
:1022300090E00E9400008091EB018F5F8093EB01A2
:10224000F2CF8091EB0187FD9BCE61E090E00E9490
:1022500000008091EB018F5F8093EB01F2CF90E063
:102260000E9400008DCEA114B10409F489CEEC8146
:10227000FD81618181E090E00E94000081CEA11487
:10228000B10409F47DCEEC81FD81618183E090E0B1
:10229000F3CFE0E0F0E0EF2B09F472CEAC81BD812A
:1022A00011968C910E9400006BCEE0E0F0E0EF2BE5
:1022B00009F466CEAC81BD8111968C9190E087FFC8
:1022C00005C0819590E09195819591090E9400004B
:1022D00057CEE0E0F0E0EF2B09F452CEAC81BD81A7
:1022E00011968C9190E087FF05C0819590E09195C3
:1022F000819591090E94000043CEEC81FD8191817E
:1023000080E8890F70E060E097FF02C061E070E054
:102310000E94F70B35CE8114910409F431CEAC81C3
:10232000BD8111969C9180E8890F61E070E097FD76
:1023300002C070E060E00E94000022CEC114D1040F
:1023400009F41ECEEC81FD81618181E090E00E9464
:10235000000016CEC114D10409F412CEAC81BD81A7
:1023600011966C9182E090E0F2CFC114D10409F48F
:1023700007CEEC81FD81618183E090E0E8CFC1145C
:10238000D10409F4FDCDAC81BD8111966C9184E03E
:1023900090E0DDCFC114D10409F4F2CDEC81FD81D0
:1023A000618185E090E0D3CFC114D10409F4E8CD78
:1023B000AC81BD8111966C9186E090E0C8CFC114CC
:1023C000D10409F4DDCDAC81BD8111966C9188E01A
:1023D00090E0BDCFE0E0F0E0EF2B09F4D1CDAC818F
:1023E000BD8111966C9181E00E940000C9CDE0E0B2
:1023F000F0E0EF2B09F4C4CDAC81BD8111966C9156
:1024000082E0F2CFEC81FD81E180F12CFFEFEF1A49
:10241000FCEFFF0AB701C8010E94D60581112AC04E
:1024200081E0D8015B96ED91FC915C97238134812A
:10243000148213825C963C932E935B97813009F44F
:1024400069CD26960FB6F894DEBF0FBECDBFDF91E3
:10245000CF911F910F91FF90EF90DF90CF90BF90A1
:10246000AF909F908F907F906F905F904F903F9034
:102470002F90089521E8E21623E0F20601F134E8F6
:10248000E31633E0F30659F145E8E41643E0F406B9
:10249000A1F08CEAE81683E0F80609F19DEAE91656
:1024A00093E0F90651F0A4EDEA16A3E0FA06B9F0BC
:1024B000B5EDEB16B3E0FB0671F48AE002C0F8015B
:1024C0008081AC81BD8112969C919813A9CFC801DF
:1024D0000E94F905A5CFC7010E94500CF2CF8DE0F4
:1024E000F0CFEC81FD81F181F983EF2EF12C2FEFFC
:1024F000E21A2CEFF20AB701C8010E94D605882320
:1025000009F48ECFAC81BD811296BC91BA838B2F1A
:1025100090E09C0144E0359527954A95E1F7E22F3C
:10252000E170EE83E093EA019C0153E03595279535
:102530005A95E1F7F22FF170FB83F093E9019C01CA
:1025400035952795422F4170440F95958795959520
:1025500087958170880F880F840FB170B80FBC8386
:10256000B093E80181E8E81683E0F806B9F4D801F1
:102570008C918093E701E130B1F18091E70190E027
:102580000C8002C0959587950A94E2F7817099278F
:10259000BB81B817190609F043CF99CFE4E8EE16CE
:1025A000E3E0FE0651F0FCEAEF16F3E0FF0629F047
:1025B00024EDE21623E0F20691F58DE08093E70129
:1025C0009E819130D1F6C70184589340029708F458
:1025D00027CF89818B5A823008F422CF8981835D8D
:1025E000823008F41DCFD301C2010C8004C0880FD3
:1025F000991FAA1FBB1F0A94D2F72091E701EA8115
:10260000E3FF22C0822B8093E7016091E701C701BD
:102610000E94F30E9091E701891302CF58CF35E85D
:10262000E31633E0F30651F04DEAE41643E0F40616
:1026300029F085EDE81683E0F80611F48AE0BECFB4
:10264000C7010E94500CBACF482F4095822F842397
:10265000DACFEC81FD816281C7010E94F30ED801BF
:102660005B96ED91FC919281891709F481CDB1E8D7
:10267000EB16B3E0FB0609F0D3CE81E893E00E94AD
:10268000F50BF8018083CCCEAF92BF92CF92DF9250
:10269000EF92FF920F931F93CF93DF93C091F501B9
:1026A000D091F6011091E60111111AC0FE0190E0DF
:1026B00080E025813681232B09F05AC025E0289F30
:1026C000F001299FF00D11243296EC0FFD1FF093BD
:1026D000E501E093E401309709F43FC014821382CE
:1026E000A090E401B090E501A114B104B1F10E9401
:1026F000CD03C090E001D090E101E090E201F090C4
:10270000E3016C197D098E099F096A307105810505
:102710009105C8F11092E6010E94CD036093E0019B
:102720007093E1018093E2019093E3018D8D9E8D82
:102730000E949D05F5019081882319F19160908395
:1027400081E08093E6010E9465036093DC01709351
:10275000DD018093DE019093DF01DF91CF911F9126
:102760000F91FF90EF90DF90CF90BF90AF900895C2
:10277000019635968530910509F09BCFF0E0E0E0B9
:10278000A6CF9E7FDCCF0E946503C090DC01D09075
:10279000DD01E090DE01F090DF016C197D098E090A
:1027A0009F096531710581059105B8F20E946503A5
:1027B0006C197D098E099F09643F7140810591055F
:1027C00060F68D8D9E8D212F2770C12CD12C760126
:1027D000C39404C0CC0CDD1CEE1CFF1C2A95D2F760
:1027E000103108F049C00E949D05E12FE695E6955D
:1027F000E695EA0DFB2DF11D8823D1F18081C82AD1
:10280000C08201E0010F0093E6010E94650360931E
:10281000DC017093DD018093DE019093DF01177F6F
:10282000173019F0083109F098CF0E94CD0360935A
:10283000E0017093E1018093E2019093E3010031A4
:1028400041F1083109F089CF0B8D1C8D8091E40195
:102850009091E5019C8F8B8FCE010E945E0FE091DD
:10286000E401F091E501148213821C8F0B8F2CC0C0
:10287000C0948081C822C4CF0E949D05F501928139
:10288000882319F0C92AC282BCCFC0949C219283AC
:10289000B8CFA091E401B091E5018C91982F977F7A
:1028A000973709F45ACF8B3709F457CFEB8DFC8D4E
:1028B000309721F4BC8FAB8F07C0FC0183819481DA
:1028C0000097D9F7B483A3831092E60146CF1F93F4
:1028D000CF93DF93EC01162F089779F4662319F153
:1028E0000E94260F80E090E0892BB9F0612FCE0185
:1028F000DF91CF911F910C94000080E090E0892B34
:10290000A9F781E0C11590E1D90708F080E0111125
:1029100005C0DF91CF911F91089581E027972297FD
:10292000C0F780E0F6CF80E090E0892BF9F681E0F7
:10293000F0CF0F931F93CF93DF932091490222236F
:1029400029F08F30910541F48FE090E0DF91CF9135
:102950001F910F910C94E00E162FEC018FE090E088
:102960000E94F50B082F80E190E00E94F50B081300
:102970000DC0C730D10531F0C830D10521F4183071
:1029800031F0FFCFFFCF612FCE01E0CFFFCF0E940C
:10299000260F88E0DF91CF911F910F910895833129
:1029A000910588F48131910530F48130910519F059
:1029B0008930910531F42FEF3FEF3093650220937A
:1029C00064020C9499148D319105D9F7677F609357
:1029D0006702209151022F73362F307C232B2093D6
:1029E0005102E9CFCF93DF93ECE6F2E095E1DF010E
:1029F0001D929A95E9F722E930E030936B0220931B
:102A00006A0222E530E03093690220936802C1E552
:102A1000D2E0888319828FEF9FEF9C8B8B8B1D8A6E
:102A200083E08093500243E050E063E574E08989DD
:102A30000E944E048DE190E00E94C10C682F6F73DC
:102A40008DE190E00E94CF148E8B6AE087E090E0E9
:102A50000E94CF146DE088E090E00E94CF1480E0E7
:102A6000DF91CF910C94E60B89B78F7789BF8CE605
:102A700092E09093100180930F0181E00E94F21484
:102A800010924F0210924E0208950F931F930E94CE
:102A9000650300914A0210914B0220914C02309143
:102AA0004D02601B710B820B930B613F7944824096
:102AB000910508F456C08091490281110BC08091A4
:102AC0004E0290914F0281309105B1F188F002974A
:102AD00009F444C00E94650360934A0270934B025C
:102AE00080934C0290934D0281E01F910F910895C5
:102AF00080E390E00E94A30C80FF0EC041E050E014
:102B00006DEE77E087E00E94D90381E090E090933A
:102B10004F0280934E02DECF8DE190E00E94A30C25
:102B200082FFD8CF41E050E06DE672E087E00E947E
:102B3000D90382E090E0EBCF89B78F7789BF8CE62D
:102B400092E09093100180930F018DE190E00E943C
:102B5000A30C82FDE7CF0E943415BCCF109248022F
:102B6000FACF80E0C2CFBF92CF92DF92EF92FF9276
:102B70000F931F93CF93DF938B01B42E690182FFD4
:102B800023C083FF17C061E0C8010E946714882337
:102B9000D9F16B2DC8010E94CF148B1135C0F601FD
:102BA000DF91CF911F910F91FF90EF90DF90CF9029
:102BB000BF90099460E0C8010E946714882321F146
:102BC000C8010E94C10CE9CF842F8770C1E0D0E01A
:102BD0007E0101C0EE0C8A95EAF7D42FD870CB01A4
:102BE0000E94C10CC82FB4FE1CC061E0C8010E9445
:102BF0006714882349F0DD2389F0CE296C2FC801A2
:102C00000E94CF148C1759F2DF91CF911F910F9131
:102C1000FF90EF90DF90CF90BF900895E094CE2189
:102C2000EDCF60E0C8010E946714882369F3CE21CC
:102C3000DD2319F0C111B3CFE7CFCC2309F4AFCF17
:102C4000E3CFCF92DF92EF92FF920F931F93CF9338
:102C5000DF937C016B01C42F122FD42FD07E809183
:102C6000510287FF2CC0D03EC1F5809152028823CB
:102C7000A1F190E00E94C10CD82F8091520290E007
:102C800001960E94C10C982F8D2FE816F90629F5A0
:102C90006C2F70E0762F662766277370612B6F5F4D
:102CA0007F4F2AE136E0402F8C2FDF91CF911F918B
:102CB0000F91FF90EF90DF90CF900C94B31580FDB3
:102CC00032C0D03609F464C088F4D03209F447C069
:102CD000D03409F45DC0DD2379F1DF91CF911F91EC
:102CE0000F91FF90EF90DF90CF900895D03A09F4C4
:102CF00083C090F42C2F2F7141E050E0D03869F759
:102D0000B601C701DF91CF911F910F91FF90EF9016
:102D1000DF90CF900C94130DD03C09F476C0D03ED8
:102D200009F4B6CFDACF0E94C30C8E159F0549F285
:102D3000E114F10431F2D1CF8C2F8E7071F680E066
:102D400090E0892B51F28C2F8170DF91CF911F91F0
:102D50000F91FF90EF90DF90CF900C940000CF7117
:102D6000CF3109F0BACF412F4F7771F0413071F078
:102D7000111F1127111F212F30E00FE710E0B601BE
:102D8000C7010E94810EA9CF41E0F2CF40E0F0CF11
:102D90002C2F30E08C2F8F71813029F030F0803172
:102DA00021F08131F9F440E001C041E025FB222708
:102DB00020F90DE110E030E0B601C7010E94810E5C
:102DC00080E090E0892B09F488CF4C2FB601C70131
:102DD000DF91CF911F910F91FF90EF90DF90CF90F7
:102DE0000C940000C901880F991F8E71C4FB442701
:102DF00040F9482B4250DACF2C2F2F7043E050E09F
:102E0000C4FF7ECF42E050E07BCFCF71CE3139F0AE
:102E1000CF3109F062CF212F45E050E071CF212F53
:102E200044E050E06DCFCF93DF9300D000D01F92ED
:102E3000CDB7DEB718161906E4F58CEC92E00E94C7
:102E40006506992783309105E1F18CF48130910575
:102E500009F460C00297E9F09091FB018091FC01B8
:102E6000981739F18CEC92E00E946506F5CF853019
:102E7000910509F444C0A4F1069771F763E0CE010F
:102E800001960E948F076B8189819A810E94590A5D
:102E900010C065E0CE0101960E948F0780E090E0AF
:102EA000892B39F04C815D816A817B8189810E9407
:102EB00000000F900F900F900F900F90DF91CF9127
:102EC000089563E0CE0101960E948F0780E090E0B4
:102ED000892B79F36B8189819A810E940000E9CF67
:102EE00063E0CE0101960E948F0780E090E0892B7D
:102EF00001F36A817B8189810E940000DACF63E05F
:102F0000CE0101960E948F076A817B8189810E9490
:102F1000F70BCFCF64E081E791E00E948F078091AB
:102F20007401882361F0813009F096CF60917101BE
:102F300080917201909173010E94991406C0809152
:102F40007201909173010E94A30C8093710184CF50
:102F5000CF92DF92EF92FF920F931F93CF93DF9365
:102F6000EC017B0141305105F9F4CD80DE802496DF
:102F7000C114D104E9F462E070E081E090E00E94C5
:102F800018288C01009731F0FC01F182E0828881E1
:102F90008F5F8883C801DF91CF911F910F91FF90C0
:102FA000EF90DF90CF900895C884D9842796E0CF22
:102FB00088818F5F8883C82FD0E062E070E0CE0107
:102FC0000E9418288C0120E0BE0161507109822FF7
:102FD00090E08617970774F4880F991FF601E80FA1
:102FE000F91F40815181800F911FFC015183408363
:102FF0002F5FEDCFC150D048CC0FDD1FC00FD11FC8
:10300000F982E882C6010E94D028C4CF1F920F9295
:103010000FB60F9211242F933F938F939F93AF93EB
:10302000BF938091ED019091EE01A091EF01B091DD
:10303000F0013091EC0123E0230F2D3768F126E8F1
:10304000230F0296A11DB11D2093EC018093ED0189
:103050009093EE01A093EF01B093F0018091F10104
:103060009091F201A091F301B091F4010196A11D9C
:10307000B11D8093F1019093F201A093F301B093FD
:10308000F401BF91AF919F918F913F912F910F903C
:103090000FBE0F901F9018950196A11DB11DD4CFA2
:1030A0001F920F920FB60F9211240BB60F922F930F
:1030B0003F934F935F936F937F938F939F93AF93C0
:1030C000BF93EF93FF93E0910F01F09110010995E9
:1030D000FF91EF91BF91AF919F918F917F916F91F0
:1030E0005F914F913F912F910F900BBE0F900FBEAC
:1030F0000F901F9018951F920F920FB60F921124E8
:103100000BB60F922F933F934F935F936F937F93E1
:103110008F939F93AF93BF93EF93FF93E0910D0134
:10312000F0910E010995FF91EF91BF91AF919F91A1
:103130008F917F916F915F914F913F912F910F9060
:103140000BBE0F900FBE0F901F9018951F920F92FD
:103150000FB60F9211240BB60F922F933F934F93FC
:103160005F936F937F938F939F93AF93BF93EF93EF
:10317000FF93E0910B01F0910C010995FF91EF9104
:10318000BF91AF919F918F917F916F915F914F917F
:103190003F912F910F900BBE0F900FBE0F901F907D
:1031A00018951F920F920FB60F9211240BB60F9223
:1031B0002F933F934F935F936F937F938F939F933F
:1031C000AF93BF93EF93FF93E0910901F0910A0150
:1031D0000995FF91EF91BF91AF919F918F917F9151
:1031E0006F915F914F913F912F910F900BBE0F9078
:1031F0000FBE0F901F9018951F920F920FB60F924F
:1032000011240BB60F922F933F934F935F936F93BD
:103210007F938F939F93AF93BF93EF93FF93E0912F
:103220000701F09108010995FF91EF91BF91AF91CE
:103230009F918F917F916F915F914F913F912F91CE
:103240000F900BBE0F900FBE0F901F9018951F92FE
:103250000F920FB60F9211240BB60F922F933F933C
:103260004F935F936F937F938F939F93AF93BF938E
:10327000EF93FF93E0910501F09106010995FF910D
:10328000EF91BF91AF919F918F917F916F915F91DE
:103290004F913F912F910F900BBE0F900FBE0F904B
:1032A0001F9018951F920F920FB60F9211240BB614
:1032B0000F922F933F934F935F936F937F938F93CF
:1032C0009F93AF93BF93EF93FF93E0910301F0912E
:1032D00004010995FF91EF91BF91AF919F918F915B
:1032E0007F916F915F914F913F912F910F900BBE06
:1032F0000F900FBE0F901F9018951F920F920FB650
:103300000F9211240BB60F922F933F934F935F931D
:103310006F937F938F939F93AF93BF93EF93FF939D
:10332000E0910101F09102010995FF91EF91BF91A8
:10333000AF919F918F917F916F915F914F913F914D
:103340002F910F900BBE0F900FBE0F901F901895EE
:103350001F920F920FB60F9211240BB60F922F935C
:103360003F934F935F936F937F938F939F93AF930D
:10337000BF93EF93FF9380917100887F803609F4AB
:103380004DC008F040C0883209F4A9C028F580314A
:1033900009F49DC0C8F4882309F4FBC0883009F4FF
:1033A00096C0FF91EF91BF91AF919F918F917F91C7
:1033B0006F915F914F913F912F910F900BBE0F90A6
:1033C0000FBE0F901F901895883109F488C0803285
:1033D00041F78093A50214C0803409F49DC040F4E5
:1033E0008033B9F38833E9F68093A50285ECB0C049
:1033F000803509F485C0883509F496C0883489F68B
:103400000E942406CECF883909F48CC038F588375D
:1034100029F050F4883611F0803719F683E0809354
:10342000A7021092D70157C0883809F47BC08039B1
:1034300019F0803809F0B5CF8091D701803208F0BB
:1034400071C0E091D70181E08E0F8093D701809108
:103450007300F0E0E954FE4F80833DC0803B39F0BB
:10346000E0F4803A09F479C0883A09F09ACF84E010
:103470008093A7021092B6011092B501E091F90174
:10348000F091FA0109958091B50181110FC081E099
:103490008093B5011092950109C0803C09F4A6CF34
:1034A000883C09F4A3CF883B09F07BCFE091B601BB
:1034B00081E08E0F8093B601F0E0EB56FE4F8081E5
:1034C000809373009091B6018091B50129C08091DD
:1034D00082028093730085EC8093740062CF909198
:1034E000A4028091A302981758F5E091A40281E00C
:1034F0008E0F8093A402F0E0ED57FD4F8081E9CF5D
:10350000E091A40281E08E0F8093A4028091730069
:10351000F0E0ED57FD4F80839091A4028091A302CB
:103520009817C8F285E8D8CFE091A40281E08E0F09
:103530008093A40280917300F0E0ED57FD4F8083EB
:103540008091A60281115CCF81E08093810284EAA0
:10355000809374001092A70224CF85EC80937400AE
:103560001092A7028091D701803230F4E091D70108
:10357000F0E0E954FE4F10826091D70170E0E091D5
:10358000F701F091F80187EB91E009951092D701CE
:1035900008CF1092A50234CF1F920F920FB60F9250
:1035A00011248F939F9378948091200290911F0211
:1035B000891708F0E9C0AF9A90911E02891708F0A8
:1035C000E5C0AD9A90911D02891708F0E1C0909175
:1035D000620094609093620090911C02891708F039
:1035E000DBC09091620091609093620090911B0209
:1035F000891708F0D5C0909162009860909362009E
:1036000090911A02891708F0CFC0909162009061E2
:103610009093620090911902891708F0C9C09091A7
:10362000620092609093620090911802891708F0EE
:10363000C3C01A9A90911702891708F0BFC01B9A4D
:1036400090911602891708F0BBC01C9A9091150240
:10365000891708F0B7C01D9A90911402891708F0D5
:10366000B3C09091620090629093620090911302B7
:10367000891708F0ADC0959A90911202891708F049
:10368000A9C0909165009860909365009091110297
:10369000891708F0A3C0C79A90911002891708F003
:1036A0009FC0C69A90910F02891708F09BC0C59AD7
:1036B00090910E02891708F097C0C49A90910D025C
:1036C000891708F093C0909165009460909365000D
:1036D00090910C02891708F08DC0AB9A90910B0263
:1036E000891708F089C0DF9A90910A02891708F0BB
:1036F00085C0DE9A90910902891708F081C0DD9A91
:1037000090910802891708F07DC0DC9A9091070219
:10371000891708F079C0DB9A90910602891708F0A2
:1037200075C0AC9A90910502891708F071C090910C
:10373000650091609093650090910402891708F0EC
:103740006BC0909165009260909365009091030228
:10375000891708F065C0A89A90910202891708F0AD
:1037600061C0A99A90910102891708F05DC0AA9AD8
:10377000809120028F5F809320029F918F910F9004
:103780000FBE0F901F901895AF9816CFAD981ACF17
:10379000909162009B7F1ECF909162009E7F24CF0C
:1037A00090916200977F2ACF909162009F7E30CFE8
:1037B000909162009D7F36CF1A983CCF1B9840CFE6
:1037C0001C9844CF1D9848CF909162009F7D4CCFAC
:1037D000959852CF90916500977F56CFC7985CCF50
:1037E000C69860CFC59864CFC49868CF90916500A3
:1037F0009B7F6CCFAB9872CFDF9876CFDE987ACF75
:10380000DD987ECFDC9882CFDB9886CFAC988ACFCC
:10381000909165009E7F8ECF909165009D7F94CFA3
:10382000A8989ACFA9989ECFAA98A2CFCF93DF93BA
:10383000EC0161E088810E94340360E08881DF91BF
:10384000CF910C9406039F92AF92BF92CF92DF92DA
:10385000EF92FF920F931F93CF93DF931092CF02BB
:103860001092CE0288EE93E0A0E0B0E08093D00208
:103870009093D102A093D202B093D3028FE591E04E
:103880009093CD028093CC021092DA021092DB0268
:103890001092DC021092DD021092DE021092DF0222
:1038A0001092E0021092E1021092E2021092E30202
:1038B0001092E40287E090E09093D9028093D802BE
:1038C00083E190E00E94F50BC82F82E190E00E9416
:1038D000F50BD82F81E190E00E94F50B182F81E0C5
:1038E00090E00E94F50B21E030E03093C906209370
:1038F000C8063093CB062093CA061092CC061092CD
:10390000D0061092D2061092D1068093C306212FC2
:10391000205C330BC9012D2F382FC9019093C506A8
:103920008093C406CF77C093C6061092C7068DE178
:103930008093CD0662E070E08DE190E00E9418284F
:103940009093CF068093CE060097C9F0EC0110E06B
:10395000EE24E394F12C8AE090E00E943428FC01EC
:10396000F282E182138214821682158217821186F6
:1039700010861083899399931F5F1D3161F767E06B
:1039800083EE96E00E94B2056BE08DED96E00E941A
:10399000B2051EE110937F07C2E0C0938107109229
:1039A0008207DFEFD0938007109283078FE797E0BD
:1039B0000E94161C0DE100937A07C0937C0781E0FA
:1039C00080937D07D0937B0710927E078AE797E06C
:1039D0000E94161C8CE1F82EF0927507C0937707B1
:1039E000C0937807D09376071092790785E797E020
:1039F0000E94161C9BE1E92EE0927007C0937207AB
:103A000023E0B22EB0927307D0937107109274071F
:103A100080E797E00E94161C3AE1D32ED0926B0704
:103A2000C0936D0744E0A42EA0926E07D0936C075C
:103A300010926F078BE697E00E94161C80E280933D
:103A40006607C093680755E0952E90926907D0935A
:103A5000670710926A0786E697E00E94161C89E2C3
:103A600080936107C093630786E080936407D093D7
:103A700062071092650781E697E00E94161C88E2B3
:103A800080935C07C0935E0787E080935F07D093C5
:103A90005D07109260078CE597E00E94161C87E294
:103AA00080935707C093590788E080935A07D093B3
:103AB000580710925B0787E597E00E94161C86E284
:103AC00080935207C093540789E080935507D093A1
:103AD00053071092560782E597E00E94161C85E274
:103AE00080934D07C0934F078AE080935007D0938F
:103AF0004E07109251078DE497E00E94161C8FE14B
:103B000080934807C0934A078BE080934B07D0937C
:103B1000490710924C0788E497E00E94161C84E243
:103B200080934307C09345076CE0C62EC0924607BA
:103B3000D09344071092470783E497E00E94161C35
:103B4000C0923E07C09340077DE0C72EC092410758
:103B5000D0933F07109242078EE397E00E94161C15
:103B6000C0923907C0933B07EEE0CE2EC0923C07CF
:103B7000D0933A0710923D0789E397E00E94161C04
:103B8000C0923407C0933607FFE0CF2EC0923707AC
:103B9000D09335071092380784E397E00E94161CF3
:103BA000C0922F07C0933107A0E1CA2EC0923207FE
:103BB000D0933007109233078FE297E00E94161CD3
:103BC000C0922A07C0932C0781E180932D07D093E0
:103BD0002B0710922E078AE297E00E94161CB7E18D
:103BE000CB2EC0922507C093270782E18093280738
:103BF000D09326071092290785E297E00E94161CB1
:103C000082E380932007C093220783E180932307F8
:103C1000D09321071092240780E297E00E94161C9F
:103C200090921B07C0931D0784E180931E07D093D9
:103C30001C0710921F078BE197E00E94161CA092B0
:103C40001607C093180785E180931907D0931707CB
:103C500010921A0786E197E00E94161CB092110795
:103C6000C093130786E180931407D0931207109234
:103C7000150781E197E00E94161CC0930C07C093C2
:103C80000E07C0920F07D0930D07109210078CE01B
:103C900097E00E94161C8EE280930707C0930907E5
:103CA00088E180930A07D093080710920B0787E0FA
:103CB00097E00E94161C81E380930207C0930407DB
:103CC00089E180930507D09303071092060782E0ED
:103CD00097E00E94161C80E38093FD06C093FF06C8
:103CE000D0920007D093FE06109201078DEF96E068
:103CF0000E94161C8DE28093F806C093FA06E092AB
:103D0000FB06D093F9061092FC0688EF96E00E941D
:103D1000161C8FE28093F306C093F506F092F60628
:103D2000D093F4061092F70683EF96E00E94161CDB
:103D300081E28093EE06C093F0060093F106D093E3
:103D4000EF061092F2068EEE96E00E94161C83E2B9
:103D50008093E906C093EB061093EC06D093EA0635
:103D60001092ED0689EE96E0DF91CF911F910F91B1
:103D7000FF90EF90DF90CF90BF90AF909F900C940A
:103D8000161CCF93DF93CDB7DEB762970FB6F894CA
:103D9000DEBF0FBECDBF789483B78C6483BF87B777
:103DA000816087BF82E08EBD8EB581608EBD8FB58C
:103DB00081608FBD85B5846085BD85B5806485BD16
:103DC00080918A00836080938A0080918B0081605B
:103DD00080938B0087E886B91AB80FB6F894A89537
:103DE00081B5886181BD11BC0FBE2FB7F89490E0FA
:103DF00080E0FC01EF5FFD4F108201968F3191054D
:103E0000C1F7AF98AD98809162008B7F809362007C
:103E1000809162008E7F8093620080916200877F34
:103E200080936200809162008F7E80936200809117
:103E300062008D7F809362001A981B981C981D98D1
:103E4000809162008F7D80936200959880916500DB
:103E5000877F80936500C798C698C598C49880915D
:103E600065008B7F80936500AB98DF98DE98DD98C6
:103E7000DC98DB98AC98809165008E7F809365001C
:103E8000809165008D7F80936500A898A998AA9875
:103E90002FBF9FB7F894A79AA59A8091610084607C
:103EA00080936100809161008160809361008091C6
:103EB00061008860809361008091610080618093DF
:103EC000610080916100826080936100129A139A70
:103ED000149A159A809161008062809361008D9A96
:103EE00080916400886080936400BF9ABE9ABD9AF6
:103EF000BC9A80916400846080936400A39AD79AEE
:103F0000D69AD59AD49AD39AA49A80916400816063
:103F10008093640080916400826080936400A09A22
:103F2000A19AA29A9FBF1FBC89E08EBD8CE093E04E
:103F30009BBD8ABD87B7806187BF1092200261E078
:103F400088E00E94340360E083EE96E00E94A702BE
:103F5000E091DF06F091E00690818091DE06809589
:103F600089238083E091E106F091E20680819091BF
:103F7000DE06892B80832CEBC22E21E0D22E3DE180
:103F8000E32E31E0F32E4BE5842E41E0942E77248E
:103F90007394F601049110E0C8010E94F50B682E9D
:103FA000C80101960E94F50BB82EC80102960E9426
:103FB000F50BA82EC80103960E94F50B9091CD0633
:103FC000691610F5D7010D911C91F801A182848327
:103FD000862DB110C1C00E94E9015C0141E050E0B2
:103FE000B8010E94A817D50116969C938E93159739
:103FF000862D0E94E9015C0150E040E0B8010E947A
:10400000A817F50191878087A895B2E0CB0ED11C47
:10401000E2E0EE0EF11C8E149F0409F0BACF61E0CD
:1040200070E084E090E00E9418289093D20680937C
:10403000D106892B91F010E000E0E090D106F090DD
:10404000D206E00EF11E802F0E94920CD7018C93B5
:104050000F5F1F4F0430110581F780E00E947E0C36
:10406000082F10E081E00E947E0C282F30E0322FD4
:10407000222722273E7F000F111F202B312B309348
:10408000D4062093D30680FF05C021603093D40668
:104090002093D30660E086E10E943403ECE9F2E06D
:1040A0008491E7E6F2E00491E2E3F2E01491111169
:1040B0006EC0FF24F394F09233028FE190E00E94EF
:1040C00034288C0186E0F801818386E090E00E942C
:1040D00034286C016AE00E94B205D8015E96DC9239
:1040E000CE925D97109332020093310281E893E003
:1040F0000E94F50BF8018083843008F04EC11093C4
:10410000F6010093F50160E0F80181810E9434031B
:1041100060E0D8015D968D919C910E94A702F80104
:104120001682158213861286108A1786158A148ABB
:10413000128E118E148E138E81819CEF980F943005
:1041400020F08251843008F08FEF42E050E064E4C8
:1041500073E10E944E042AC00E94E901DC0113961B
:104160007C92B0E8BB1609F443CFF1E8BF124CCF04
:10417000862D0E94E9015C0141E050E0B8010E94F7
:10418000A817D50116969C938E9315973DCF811154
:104190000E94D102E12FF0E0EE0FFF1FE45FFD4F20
:1041A000A591B491EC91E02309F483CF81E090E0F4
:1041B0000E94F50B21E030E0309326022093250287
:1041C0008093270281E190E00E94F50B21E130E02D
:1041D000309329022093280280932A0282E190E002
:1041E0000E94F50B22E130E030932C0220932B0249
:1041F00080932D028DE190E00E94A30C81FDCFC041
:104200008DE190E090932F0280932E021092300265
:1042100087E0809362028093630260E00E9434032F
:1042200061E087E00E94060380E00E94F21483E1CF
:1042300097E1909300028093FF018CEA96E09093BF
:10424000FE018093FD011092FC011092FB0110927F
:10425000A9021092CB021092A70281E08093A602DD
:104260001092810261E083E10E94060361E082E135
:104270000E940603809171008E7F8093710080916F
:1042800071008D7F8093710088E48093700085E4D5
:104290008093740081E792E09093FA018093F90192
:1042A0008DE792E09093F8018093F70182E080938C
:1042B00072008CE0809370000E949C0B88E19BE070
:1042C0000FB6F894A89581BD0FBE91BD72E0472E40
:1042D000512C8091400281110DC00E9465036093B2
:1042E0004A0270934B0280934C0290934D0281E0FE
:1042F000809340028091380281110DC00E94CD034D
:1043000060933402709335028093360290933702A3
:1043100081E08093380280914E0290914F0281306B
:10432000910509F4D7C208F454C0029709F400C6F5
:10433000A89580913302882339F0809131029091C1
:1043400032020E945E0FA89580910001882309F433
:10435000C0CF0E94CD03009134021091350220910C
:10436000360230913702601B710B820B930B693E52
:1043700073408105910508F4ACCF0E949C0B81111C
:10438000109200010E94CD036093340270933502B5
:10439000809336029093370299CFF082B0CE8DE1B0
:1043A00090E00E94A30C85FD0DC0809117019091B3
:1043B0001801A091190180932E0290932F02A093CF
:1043C000300226CF80911A0190911B01A0911C010F
:1043D000F2CF809153028823B1F00E94CD03009167
:1043E0005402109155022091560230915702601BE1
:1043F000710B820B930B653171058105910518F0E6
:1044000080E00E94E60B80916E02882309F445C08B
:10441000F89488E0E9E7F2E0A5EDB6E001900D92AE
:104420008A95E1F710926E02789430917902EBE769
:10443000F2E090E080E0391721F0219182279F5F20
:10444000FACF81112AC080E090E0892B21F085ED20
:1044500096E00E9400008091D706811125C09091BE
:10446000D806911121C080E090E0892B19F080E0FE
:104470000E94000080915302882391F081E00E9405
:10448000DF080E9446090E94650360934A02709308
:104490004B0280934C0290934D020E94451548CFE9
:1044A00081E00E94E60BEDCF90915302992309F42D
:1044B00086C08057803108F07FC081E00E94DF080D
:1044C0001091D50680915A0218130AC0412F50E06E
:1044D0006CE572E087ED96E00E945929892B61F026
:1044E0001092590288E0E5EDF6E0AAE5B2E001900D
:1044F0000D928A95E1F7C5CF809159028F5F809325
:104500005902133009F040C09091D706892F877067
:10451000F090D806853029F4F09258020E94BD032D
:10452000B0CF0DE110E0843091F0282F30E08430DE
:10453000F0F4009158020023D1F00150110B000F4C
:10454000111F000F111F020F131F0F5F1F4F93FF4B
:1045500010C061E0C8010E946714882309F491CF5C
:104560006F2DC8010E94CF14F8128BCFD7CF8901CD
:10457000ECCF60E0C8010E946714882309F481CF62
:10458000C8010E94C10CF0CF143009F07ACF80919D
:10459000D706682F70E0762F662766277370909194
:1045A000D806692B6F5F7F4F2BEC33E04091D90623
:1045B0008C700E94B31565CF80E00E94E60BE091FD
:1045C000D706EF3F61F48091D80681115ACF80E081
:1045D00090E0892B09F455CF0E94000052CFE7FDEF
:1045E0000DC00091DA062091D9064091D80670E0FE
:1045F00060E08E2F90E00E94211643CFE03C08F04F
:1046000058C13091510237FF3CCF2091D806822FFC
:1046100090E08C0100951095000F111F000F111FE5
:10462000007C1170EF730E2B95958795F82FF37022
:10463000BF2E8091D506853041F52C782C3029F598
:104640000E94C30C8017910721F00F3F114009F021
:1046500018CF8091D80690E0982F882788279370EC
:104660000091D906080F192F111D0F5F1F4FF090F1
:10467000DA0661E0C8010E9467146F2D882309F4EF
:1046800000CFC8010E94CF14FCCE680141E0C41ADB
:10469000D108CC0CDD1CCC0CDD1CCB2876015FEFE7
:1046A000E51AF50A809166028823F9F036FF41C0C9
:1046B000C70160E071E00E94E727682F81E090E089
:1046C0000E94CF14C701F7FE02C081509F4F692F8F
:1046D00089E090E00E94CF1480E090E0892B19F0EF
:1046E000C7010E940000109266028091510280FD75
:1046F00039C08091D506843009F04FC08091D8062A
:104700008978813009F0BDCE6091D90680E090E0D3
:10471000892B19F0C7010E94000080E090E0892BEE
:1047200009F4AFCE4091D9066B2DC7010E9400005D
:10473000A8CEB8016F73772781E090E00E94CF1474
:10474000B801E6E075956795EA95E1F789E090E0B4
:104750000E94CF1480E090E0892B29F2C8010E94CA
:104760000000C1CF86FF0DC00E94C30C8E159F05AF
:1047700009F4BFCF8DEFE81687E0F8060CF0B9CF4B
:1047800080CE0E94C30C8017910709F4B2CF0F3F6F
:1047900091E0190709F4ADCF74CE833069F54091EB
:1047A000D806A42FA170CA2E43FBDD24D0F880E0E8
:1047B00090E0892B31F047702D2DB801C7010E9480
:1047C00000008091510286FF0BC080E090E0892BB1
:1047D00009F457CE4D2D6C2DC7010E94000051CE1B
:1047E00080E090E0892B09F44CCE2D2D4C2D6B2DC3
:1047F000C8010E94000045CE863009F042CE80916B
:10480000D806982F9978913021F08F78803809F068
:1048100038CE8091510286FF28C00E94C30C8E15AD
:104820009F05E9F48091D90690E0382F22272227AE
:1048300033700091DA06020F132F111D0F5F1F4F07
:10484000F090DB06959587959595879583709927C8
:104850008230910599F0039709F40BCF12CEBDEF8A
:10486000EB16B7E0FB06F4F60CCE0E94C30C8017E3
:104870009107C1F20F3F1140A9F203CEF4FE01CE21
:1048800061E0C8010E946714882309F4FACDC801C9
:104890000E94C10C9F2D977061E070E001C0660F0F
:1048A0009A95EAF7F3FE02C0682BEBCE6095682379
:1048B000E8CEE83E08F0E5CDE05CFF0B8091D8063D
:1048C0000091DB062091DA064091D90661E070E0A4
:1048D0009E2F91CE04E313E09AE0E92EF12CDD2423
:1048E000D39423E6C22E33E0B32E42E0A42E5BE144
:1048F000352ED8011B968D919C91019709F03FC1EF
:10490000F801E654F10980819181329660807180CE
:10491000680E791EF801118A128A1682128615868F
:10492000168617861782108A138A118615821482BA
:104930009301359527954801FCE58F1A9108F401FC
:1049400061E070E086899789A72FA69541E050E045
:104950004C0F5D1F4A0F511DDA0141E0281739073E
:104960000CF040E04C93713248F4408D518D840F2F
:10497000951F8E579109C19708F460E07E5F3496C9
:10498000743201F7FE013196CE9C9001CF9C300D20
:10499000112446EB56E0421B530B90E080E07081FF
:1049A00071118FC071817111A6C0D401A80FB91FF8
:1049B0001D961C92019632968930910581F7F80177
:1049C00080819181A281B38185519540A109B1096E
:1049D00083359B40A105B10508F070C1662309F439
:1049E0006DC181E046E9641671040CF080E0D801E5
:1049F00051968C93F801EC54F109908131978081A4
:104A0000B9E08B9F802D1124939D800D1124329746
:104A10009081890F31964081942F990F940F890FBF
:104A2000F8018683EB54F10946E9641671040CF42D
:104A300030C181E09081913009F080E0D8011D966D
:104A40008C938989880F9F85890F880F9D85890F91
:104A5000880F9B85890F91E009F090E0F801968717
:104A600091E0813009F090E0D8011F969C9381116C
:104A70008150F80187838289882309F456C08C8588
:104A8000880F9E85890F880F9889890F880F9A89CA
:104A9000890FEEEFE80FEE3008F047C0F0E0ED5A76
:104AA000FA4D0C94FB2788258825902590253526DE
:104AB0003526952595253A263A263E263E26432636
:104AC00043267130C1F42180A1E02A1206C0DA0128
:104AD000A80FB91F1D962C926DCF21100CC0D401C8
:104AE000A80FB91F1D96AC92853008F463CFD8018A
:104AF00052967C935FCF853048F0DA01A80FB91F3A
:104B00001D96BC92D8015296DC9254CF60E057CFEC
:104B1000D8011996AC921997817053968C9305C061
:104B200041E050E0F8015583448389E090E0FAE0E9
:104B3000EF16F10411F08E199F09D8011C965C92B2
:104B40004E921B97C89EB001C99E700D1124FB01A7
:104B5000E15CFC4F80819181029789F46B517D4F1C
:104B600049E050E083EC96E0821B930B0E945929A8
:104B7000892B29F423E030E0F80134872387F1E022
:104B8000EF1AF1080D591F4FE114F10409F0B1CEED
:104B9000EFE3F3E090E080E02081318123303105C4
:104BA00009F094C023E6289F8001299F100D11244D
:104BB000F801E15CFC4F84E090E0918380830B512D
:104BC0001D4F0115110509F468CC780125E5E20EA9
:104BD000F11CD701EC91F0E0809127029F01281B86
:104BE0003109C9012130310509F4DDC00CF076C06E
:104BF000892B09F046CC80912402D801A45ABF4FDA
:104C00009C91992309F491C0806180932402909132
:104C10002402D801A85ABF4F8C91823009F4A0C059
:104C200008F085C0813009F48FC02091240241E052
:104C300050E070E060E0CF010E94130DF801ED5AE2
:104C4000FF4F808191818130910509F09FC033969B
:104C5000809127020DE110E021E030E0408170E01A
:104C600060E090E00E94810E0CCCD8011996BC92B5
:104C7000199752CFF8015582448257CFD80119961F
:104C8000DC92199749CF44E0F80141878170838B0A
:104C90004CCF8081811112C08F85880F9D85890F2F
:104CA000880F9B85890FD8011A968C9381E099898A
:104CB000913009F080E0F801808B37CFE5E0F0E03B
:104CC000D8011C96FC93EE931B9759CF0196ED5992
:104CD000FF4F8A30910509F05FCFDFCB22303105DD
:104CE00009F4ADC02330310509F0CBCB80E390E06F
:104CF0000E94A30C83FFC5CB80912102F801E85AE2
:104D0000FF4F9081923009F4FDC008F0E2C091306D
:104D100009F4ECC0D7018C912091210244E050E0CD
:104D200070E060E08350990B59C08F7E6ECF833066
:104D300009F1843009F079CFD801AE59BF4F8C9179
:104D4000882311F1986007C0D801AE59BF4F8C91EC
:104D5000882321F091609093240267CF9E7FFBCF40
:104D6000D801AE59BF4F8C91882311F09260F3CFD8
:104D70009D7FF1CFD801AE59BF4F8C91882311F0A0
:104D80009460E9CF9B7FE7CF977FE5CF029709F04B
:104D900078CBF801EA5AFF4F809127020DE110E02D
:104DA00030E020E05BCF80E390E00E94A30C81FF25
:104DB00068CB80912302F801E85AFF4F908192302E
:104DC00041F178F49130C9F0D7018C912091230200
:104DD00042E050E070E060E08150990B0E94130DBA
:104DE00050CB933001F1943079F7F801EE59FF4F31
:104DF0009081992311F1886007C0F801EE59FF4FA7
:104E00009081992321F0816080932302DDCF8E7FF2
:104E1000FBCFF801EE59FF4F9081992311F082608A
:104E2000F3CF8D7FF1CFF801EE59FF4F9081992399
:104E300011F08460E9CF8B7FE7CF877FE5CF80E3F8
:104E400090E00E94A30C82FF1CCB80912202F8010B
:104E5000E85AFF4F9081923031F168F49130B9F007
:104E6000F70180812091220243E050E070E060E091
:104E70008250990BB3CF933001F1943089F7F80148
:104E8000EE59FF4F9081992311F1886007C0F80116
:104E9000EE59FF4F9081992321F081608093220287
:104EA000DFCF8E7FFBCFF801EE59FF4F9081992322
:104EB00011F08260F3CF8D7FF1CFF801EE59FF4FF3
:104EC0009081992311F08460E9CF8B7FE7CF877FB2
:104ED000E5CF933009F1943009F01CCFF801EE5979
:104EE000FF4F9081992311F1886007C0F801EE59B6
:104EF000FF4F9081992321F08160809321020ACF96
:104F00008E7FFBCFF801EE59FF4F9081992311F06E
:104F10008260F3CF8D7FF1CFF801EE59FF4F908182
:104F2000992311F08460E9CF8B7FE7CF877FE5CFAE
:104F30000E94060A809148028823E1F08DED96E0F8
:104F40000E949D058111A9CA8091C8069091C90649
:104F5000019769F490E080E00E94450A0E94060AE9
:104F60008DED96E00E949D058823D1F396CA81E0DD
:104F700090E0F2CF83EE96E00E949D05811105C07E
:104F800081E090E00E94450A88CA90E080E0FACF74
:104F900060E08DED96E00E94A70260E083EE96E06F
:104FA0000C94A702E199FECF9FBB8EBBE09A992794
:104FB0008DB30895262FE199FECF9FBB8EBB2DBBED
:104FC0000FB6F894E29AE19A0FBE0196089597FB06
:104FD000072E16F4009407D077FD09D00E9404280C
:104FE00007FC05D03EF4909581959F4F08957095EC
:104FF00061957F4F0895EE0FFF1F0024001C0BBE2C
:105000000790F691E02D0994AA1BBB1B51E107C044
:10501000AA1FBB1FA617B70710F0A61BB70B881F48
:10502000991F5A95A9F780959095BC01CD010895D7
:105030000F931F93CF93DF93869F8001879F100D5F
:10504000969F100D1124C8010E943428EC0100978E
:1050500029F0A80170E060E00E946629CE01DF918E
:10506000CF911F910F9108950F931F93CF93DF93CB
:105070008230910510F482E090E0E0918607F09193
:10508000870730E020E0B0E0A0E0309799F42115E8
:10509000310509F44AC0281B390B24303105D8F5F5
:1050A0008A819B816115710589F1FB01938382835C
:1050B000FE0111C0408151810281138148175907B7
:1050C000E0F04817590799F4109761F012960C9385
:1050D000129713961C933296CF01DF91CF911F91B7
:1050E0000F9108950093860710938707F4CF211539
:1050F000310551F04217530738F0A901DB019A013D
:10510000BD01DF01F801C1CFEF01F9CF909387070F
:1051100080938607CDCFFE01E20FF31F8193919319
:105120002250310939832883D7CF209184073091C9
:105130008507232B41F42091130130911401309302
:1051400085072093840720911101309112012115C8
:10515000310541F42DB73EB740911501509116012C
:10516000241B350BE0918407F0918507E217F307C4
:10517000A0F42E1B3F0B2817390778F0AC014E5FC7
:105180005F4F2417350748F04E0F5F1F5093850778
:1051900040938407819391939FCFF0E0E0E09CCF10
:1051A000CF93DF930097E9F0FC01329713821282CC
:1051B000A0918607B0918707ED0130E020E01097BD
:1051C000A1F420813181820F931F209184073091B7
:1051D00085072817390709F061C0F0938507E09328
:1051E0008407DF91CF910895EA01CE17DF07E8F534
:1051F0004A815B819E0141155105B1F7E901FB83AD
:10520000EA8349915991C40FD51FEC17FD0761F44A
:10521000808191810296840F951FE901998388838B
:10522000828193819B838A83F0E0E0E012968D91E6
:105230009C9113970097B9F52D913C911197CD0151
:105240000296820F931F20918407309185072817BB
:10525000390739F6309751F5109287071092860773
:10526000B0938507A0938407BCCFD383C2834081CA
:105270005181840F951FC817D90761F44E5F5F4FA6
:1052800088819981480F591F518340838A819B816E
:10529000938382832115310509F0B0CFF0938707FE
:1052A000E09386079ECFFD01DC01C0CF13821282FE
:1052B000D7CFFB01DC0104C08D910190801921F44E
:1052C00041505040C8F7881B990B0895DC0101C07C
:1052D0006D9341505040E0F7089511E0CFE5D1E0E3
:1052E00004C0FE010E94FB272196C036D107C9F7F2
:0452F000F894FFCF60
:1052F400016C02000000000000000000000000003B
:10530400000000880780001D00021D00227F077A2C
:1053140007750770076B07660761075C0757075235
:10532400074D07480743073E07390734072F072A65
:1053340007250720071B07160711070C0707070295
:1053440007FD06F806F306EE06E90600000000B4C1
:0E535400067F06E30655067806650656060037
:00000001FF
