:100000000C9460010C9406190C94DB180C94B01835
:100010000C9485180C945A180C942F180C940418EE
:100020000C94D9170C948A010C948A010C948A01BF
:100030000C94551A0C948A010C948A010C948A0130
:100040000C948F170C948A010C9459170C942F1749
:100050000C948A010C948A010C948A010C948A01F4
:100060000C948A010C948A010C948A010C948A01E4
:100070000C948A010C948A010C948A010C948A01D4
:100080000C948A010C9431190C948A012803000005
:100090000000000A0D0000000000000101C0800007
:1000A000000000000000000000060000000000004A
:1000B0000000000000000000000000000000000040
:1000C000000000000000FF3F0002000000000000F0
:1000D0000000000000000000000000000000000020
:1000E0000000000000000000000000000000000010
:1000F000000000000000000000000000010080007F
:1001000002008000030080000400800005008000E1
:1001100006008000070080000800800009008000C1
:100120000A0080000B0080000C0080000D008000A1
:100130000E0080000F008000100080001100800081
:100140001200800013008000140080001500800061
:10015000160080001700800018008000000080005A
:10016000000080000000800000008000000080008F
:100170001980FF001981FF00FF000000FF00000050
:10018000FF000000FF000000FF000000FF00000073
:10019000FF000000FF000000FF00000000003A0028
:1001A00037003400310022006100640000003B0091
:1001B00038003500320023006200650070007400D2
:1001C00078007C008000840088008C0090009400FF
:1001D00098009C00A000A400A800AC00B000B400EF
:1001E000B800BC00C000C400C800CC00D000D400DF
:1001F000D800DC00E000E400E800EC00F000F400CF
:10020000F800FC000001040108010C0100003900A5
:10021000360033003000210020006300050505058D
:100220000505050502020202020202020707040494
:100230000404040404040707030303030303030380
:100240000701010101010101010606060606060675
:10025000060102040810204080010204081020401A
:1002600080081001020408102040800102010204ED
:100270000810204080048040201008040201010280
:100280000408102040800000000A0B0C0000000051
:10029000000001040506000000000000000000004E
:1002A000000000000000000000000000000000004E
:1002B000000000000000000000000000AC1B6327ED
:1002C00011241FBECFEFD0E1DEBFCDBF11E0A0E013
:1002D000B1E0EEE6F2E500E00BBF02C007900D9240
:1002E000A238B107D9F728E0A2E8B1E001C01D9219
:1002F000A732B207E1F711E0CFE5D1E004C02197C2
:10030000FE010E94B827CE35D107C9F70E94881E8A
:100310000C942A290C94000020916D0730916E07EF
:100320002115310549F090E0880F991F820F931F26
:10033000FC0180819181089590E080E008959C0106
:100340006115710529F06130710571F080E0089543
:10035000809162078217130681F09091650781E012
:100360009217130699F7089581E040916307509121
:1003700064074217530751F7F6CF81E0F4CFFF929D
:100380000F931F93CF93DF938C01F42EE9010E940A
:100390009F018823B1F0809165078017110619F538
:1003A0008091690790916A078C179D0751F08091A1
:1003B0006607882399F0219751F410926A071092EA
:1003C0006907DF91CF911F910F91FF90089581E010
:1003D00090E090936A0780936907F3CFD0936A0700
:1003E000C0936907EECF8091670790916807C8179F
:1003F000D90739F3F0FE0EC0219729F4109268074F
:1004000010926707DECF81E090E0909368078093B9
:100410006707D7CFD0936807C0936707D2CF0895F7
:1004200081E0809395020895FC01538D448D252F22
:1004300030E0842F90E0821B930B541710F0CF967E
:10044000089501970895FC01918D828D981761F0B0
:10045000A28DAE0FBF2FB11D5D968C91928D9F5FC7
:100460009F73928F90E008958FEF9FEF0895FC01A6
:10047000918D828D981731F0828DE80FF11D858D59
:1004800090E008958FEF9FEF0895FC01918D228DEC
:10049000892F90E0805C9F4F821B91098F73992771
:1004A0000895FC01A48DA80FB92FB11DA35ABF4F09
:1004B0002C91848D90E001968F739927848FA68963
:1004C000B7892C93A089B1898C9180648C93938D8A
:1004D000848D981306C00288F389E02D80818F7D7A
:1004E00080830895EF92FF920F931F93CF93DF9332
:1004F000EC0181E0888F9B8D8C8D981316C0E88964
:10050000F989808185FF11C0EE89FF896083E889C0
:10051000F98980818064808381E090E0DF91CF91D0
:100520001F910F91FF90EF900895F62E0B8D10E024
:100530000F5F1F4F0F731127E02E8C8D8E110CC093
:100540000FB607FCFACFE889F989808185FFF5CFDE
:10055000CE010E945102F1CFEB8DEC0FFD2FF11D6A
:10056000E35AFF4FF0820B8FEA89FB89808180621A
:10057000D2CFCF93DF93EC01888D8823B9F0AA897D
:10058000BB89E889F9898C9185FD03C0808186FD4E
:100590000DC00FB607FCF7CF8C9185FFF2CF80819D
:1005A00085FFEDCFCE010E945102E9CFDF91CF91BF
:1005B00008958EEC92E00E94450221E0892B09F417
:1005C00020E0822F089580E090E0892B29F00E949E
:1005D000D90281110E94000080E090E0892B49F04F
:1005E00080E090E0892B29F00E94000081110C949A
:1005F000000008950895E0915402F091550230975B
:1006000029F0109251021092500209940895CF934C
:10061000DF93AC01E0915602F09157023097F1F070
:1006200090915302809152029817C0F090E0292FC8
:1006300030E02617370754F4D901AD55BE4F240FCB
:10064000351FE90128812C939F5FF1CF109253024F
:1006500060935202CB01DF91CF910994DF91CF914A
:100660000895DC011296ED91FC91139711969C91DF
:100670001197808161110EC09095982390831496F4
:10068000ED91FC911597908111968C91809589231D
:1006900080830895623061F4909598239083149636
:1006A000ED91FC911597808111969C91892BF0CF4B
:1006B000982B90830895AF92BF92CF92DF92EF92E2
:1006C000FF920F931F93CF93DF936C017B018B01FC
:1006D000040F151FEB015E01AE18BF08C017D1074C
:1006E00059F06991D601ED91FC910190F081E02DD6
:1006F000C6010995892B79F7C501DF91CF911F912B
:100700000F91FF90EF90DF90CF90BF90AF90089542
:1007100081508C3088F5E82FF0E0EF56FC4F0C94B8
:10072000B827B903B903BC039D03A103A403A7031E
:10073000BC03BC03AB03B103B5038FB58F778FBD8B
:1007400008958FB58F7DFBCF8FB5877FF8CF85B5A7
:100750008F7D85BD089580918B008F7780938B006E
:10076000089580918B008F7DF9CF80918B00877FDA
:10077000F5CF83B78F7D83BF08951F93CF93DF930A
:10078000282F30E0F901EA57FD4F8491F901EF5A23
:10079000FD4FD491F901E45EFD4FC491CC23A9F043
:1007A000162F81110E948803EC2FF0E0EE0FFF1F3F
:1007B000E455FE4FA591B4918FB7F894EC911111C7
:1007C00008C0D095DE23DC938FBFDF91CF911F91BE
:1007D0000895DE2BF8CFCF93DF9390E0FC01EF5A22
:1007E000FD4F2491845E9D4FFC0184918823D1F0BC
:1007F00090E0880F991FFC01E456FE4FA591B4913B
:10080000FC01E455FE4FC591D49161110EC09FB714
:10081000F8948C91E22FE0958E238C932881E2232B
:10082000E8839FBFDF91CF9108958FB7F894EC9143
:10083000E22BEC938FBFF6CF3FB7F8948091430241
:1008400090914402A0914502B091460222B706B6AB
:1008500000FE05C02F3F19F00196A11DB11D3FBF3D
:10086000BA2FA92F982F8827BC01CD01620F711DC7
:10087000811D911D42E0660F771F881F991F4A95C1
:10088000D1F708958F929F92AF92BF92CF92DF924D
:10089000EF92FF924B015C010E941C046B017C01F2
:1008A0000E941C046C197D098E099F09683E7340E3
:1008B00081059105A8F321E0821A9108A108B108E9
:1008C00088EEC80E83E0D81EE11CF11C811491044F
:1008D000A104B10429F7FF90EF90DF90CF90BF9073
:1008E000AF909F908F90089561E088E00E94BD03D3
:1008F00064E070E080E090E00E94420460E088E004
:100900000C94BD030C9474042FB7F89460913F02CB
:100910007091400280914102909142022FBF089550
:10092000E82FF0E0DF01AA0FBB1FA050BF4F1196C8
:100930007C936E938830A8F4E056FB4F0C94B82754
:10094000A804B204BF04CD04DB04E204ED04F904FE
:1009500080916A008C7F482B40936A0089B7816040
:1009600089BF089580916A00837F440F551F440F0B
:10097000551F482B40936A0089B78260F1CF809160
:100980006A008F7C74E0440F551F7A95E1F7482B7D
:1009900040936A0089B78460E3CF80916A008F73C7
:1009A00066E0440F551F6A95E1F7482B40936A00B3
:1009B00089B78860D5CF8AB78C7F482B4ABF89B763
:1009C0008061CECF8AB7837F440F551F440F551FD8
:1009D000482B4ABF89B78062C3CF8AB78F7C24E097
:1009E000440F551F2A95E1F7482B4ABF89B7806409
:1009F000B7CF8AB78F7396E0440F551F9A95E1F7EA
:100A0000482B4ABF89B78068ABCF883010F40C946C
:100A1000900408950E941C0420913C0230913D02F4
:100A2000FB01E21BF30B2091B5023091B602E217F5
:100A3000F30708F438C12091B7023091B8027093DF
:100A40003D0260933C024091B9025091BA0241309C
:100A5000510599F148F04230510509F4B9C04330CD
:100A6000510509F4EFC00895E217F30708F0D4C068
:100A70008091BC028F5F8093BC028B3008F413C15D
:100A800081E090E09093BA028093B90241E050E097
:100A90006AE075E08091AF020E94050510923B026A
:100AA00082E590E09093B8028093B70283E290E0F1
:100AB0009093B6028093B502089540913B02413075
:100AC000A9F038F0433009F449C0443009F47CC03F
:100AD0000895E217F30730F491E090933B02E0931E
:100AE0003A02089584E080933B020895E217F307E9
:100AF00098F510923B029091BC029F5F9093BC02CC
:100B00008E2FEE0F990B20913A02821B910927FD3F
:100B1000939597FF03C091958195910949970CF49E
:100B2000C2C01092BA021092B90282E990E090938A
:100B3000B8028093B70282E590E09093B60280936A
:100B4000B5021092BC0240919D0250E06AE075E04F
:100B50008091AF020C94050583E0C5CFE217F3073F
:100B600000F380919D02833061F582E080939D02C5
:100B700082E090E09093BA028093B90282E990E01B
:100B80009093B8028093B70282E590E09093B6020A
:100B90008093B5021092BE021092C0021092C10260
:100BA0001092C2021092C3021092C4021092C502A7
:100BB0008091BC028093BF021092BC021092BD02D1
:100BC000C2CF40939D02D4CFE217F30788F6A9CF96
:100BD0005091BC025F5F5093BC024091BD02440F34
:100BE000E217F307E0F04093BD02583009F05BC014
:100BF000E091BE02E630A9F41092BA021092B90256
:100C000082E990E09093B8028093B70282E590E089
:100C10009093B6028093B5021092BC020895416091
:100C2000E2CF83E090E09093BA028093B90281E032
:100C30008E0F8093BE02F0E0E754FD4F8091BD021D
:100C400087830895E217F307F8F41092BA0210921E
:100C5000B9021092BC0282E990E09093B8028093AE
:100C6000B70282E590E09093B6028093B50288E0E7
:100C7000EEEBF2E0A6ECB2E001900D928A95E1F77E
:100C800081E08093BB0208958091BE02863009F412
:100C9000B3CF82E090E09093BA028093B9021092B1
:100CA000BC021092BD02089580E090E0892B29F0EB
:100CB0008091B40283FD0C9400000895E82FF0E0C9
:100CC000E65AFD4F608308950F931F93CF93DF93F0
:100CD000FC018281813089F040F0823009F47AC0D1
:100CE000DF91CF911F910F91089561E08081DF9195
:100CF000CF911F910F910C94BD030181C02FD0E0C3
:100D0000108161E0812F0E94EB03209719F460E0CD
:100D1000812FEDCFCF3FD10511F461E0F9CFE12F65
:100D2000F0E0EA57FD4FE491E150EC3008F04DC09F
:100D3000F0E0E356F94F0C94B827A906A906E5069A
:100D4000AE06B406BA06C206E506E506C706D10633
:100D5000DB0683B7806283BF01BFC2CF8FB58068D7
:100D60008FBDDBBDCABDBCCF8FB580628FBDD9BD85
:100D7000C8BDB6CF8FB588608FBDD0937900C093C2
:100D80007800AECF85B5806285BD03BDA9CF8091C7
:100D90008B00806880938B00D0938700C09386007F
:100DA0009FCF80918B00806280938B00D0938500D1
:100DB000C093840095CF80918B00886080938B00D6
:100DC000D0938300C09382008BCFC038D1050CF044
:100DD000A4CF9DCF8181E381F0E0E65AFD4F80836F
:100DE0007FCF0F931F93CF93DF93D62F8C01C0E05B
:100DF000CD1741F0F801819191918F010E94640615
:100E0000CF5FF6CFDF91CF911F910F910895CF93D0
:100E1000DF93DC01EC91F0E0EE0FFF1FE45FFD4F8C
:100E2000C591D491988111968C91982381E009F411
:100E300080E0DF91CF910895DC0170E0FB01EF5A73
:100E4000FD4FE4911196EC931197645E7D4FFB0189
:100E500024912C9330E0220F331FF901E456FE4F0A
:100E60008591949113969C938E931297F901E45572
:100E7000FE4F8591949115969C938E9314970895A7
:100E8000FC018081813089F4CB018458934088979C
:100E9000C0F06138F3E07F07A1F06C5F734081E040
:100EA0006530710578F080E00895823021F4CB013F
:100EB0008C5A9340ECCF833061F7CB01845D934033
:100EC000E6CF81E00895CF93DF93FC0121812F3F8E
:100ED000F9F0EC0161E0858D968D0E943103AD8DB6
:100EE000BE8D1496ED91FC911597908111968C9181
:100EF00080958923808361E070E080E090E00E942B
:100F0000420460E08D8D9E8DDF91CF910C94310372
:100F100080E090E0892B21F0DF91CF910C940000CC
:100F2000DF91CF91089585ED8093740080917400D6
:100F300084FDFCCF10924F0208952091E301260F0B
:100F40003327331F21323105ECF420914F02FC018D
:100F500090E080E0243069F082E00895A091E30100
:100F60002191AC014D535E4FA40FB52FB11D2C93B1
:100F70000196861798F38091E301680F6093E3016F
:100F800080E0089581E008950895E09153028091F2
:100F90005202E81730F4F0E0ED55FE4F808190E00A
:100FA00008958FEF9FEF0895909153028091520220
:100FB0002FEF3FEF981748F4E92FF0E0ED55FE4F83
:100FC000208130E09F5F90935302C9010895809182
:100FD000520290915302891B990B0895CF92DF9290
:100FE000EF92FF920F931F93CF93DF937C01CB017E
:100FF0008A012091A201222389F0EB016B01C40E2A
:10100000D51ECC15DD0569F06991D701ED91FC91F4
:101010000190F081E02DC7010995F3CF642F0E9464
:101020009D07C801DF91CF911F910F91FF90EF9025
:10103000DF90CF900895CF93DF931F92CDB7DEB7A7
:1010400069832091A2012223F9F0209150022032DD
:1010500058F021E030E0FC013383228390E080E00F
:101060000F90DF91CF91089580915102E82FF0E029
:10107000EE57FE4F998190838F5F8093510280934A
:10108000500281E090E0ECCF61E0CE0101960E9439
:101090009D07F7CF90E080E00895089508958F921E
:1010A0009F92AF92BF92CF92DF92EF92FF920F93F7
:1010B0001F93CF930E941C04AB01BC018091790364
:1010C00090917A03A0917B03B0917C038A019B01EC
:1010D000081B190B2A0B3B0B80918103882309F411
:1010E0007FC08091830390918203E92FEE0FFF0B65
:1010F000A82F082E000CBB0BC3E68C02E00DF11DDF
:101100001124E958FC4F178B068B053F1140210530
:10111000310508F054C09F5F909382039091820341
:101120009332C9F593E69A9F90019B9F300D11244D
:1011300029583C4FF901E45AFF4FC0907D03D090ED
:101140007E03E0907F03F09080034A015B018C18DE
:101150009D08AE08BF0875016401C082D182E28299
:10116000F38229593F4FE1E0F0E0D901ED93FC9380
:101170008F5F8A3094F580938303E0918303B3E615
:10118000EB02F0011124E252FC4F11821082109206
:101190008103109282034093790350937A03609302
:1011A0007B0370937C03CF911F910F91FF90EF9081
:1011B000DF90CF90BF90AF909F908F900895109246
:1011C000820391E09093810340937D0350937E03CB
:1011D00060937F0370938003A1CF10928303CDCFE0
:1011E000053F114021053105B0F281E08093810374
:1011F00040937D0350937E0360937F03709380033D
:10120000CACFE82FF0E0E65AFD4F60830895CF93F0
:10121000FC018281813051F020F0823079F0CF9151
:10122000089560E08081CF910C94BD03C08161E09E
:101230008C2F0E94EB0360E08C2FF5CFE381F0E070
:10124000E65AFD4F1082EBCF80939602882361F01F
:101250000FB6F894A89581B5886181BD11BC0FBE09
:101260008EE198E00C9464068EE198E00E940709F4
:1012700088E19BE00FB6F894A89581BD0FBE91BDA3
:101280000895CF93C82F8091A0028C1731F081E090
:10129000C11101C080E00E942409C093A00260E057
:1012A00070E0CB01C1110E9484046093A10270938D
:1012B000A2028093A3029093A4028091A0028C17B3
:1012C00039F081E0C11101C080E0CF910C94240974
:1012D000CF910895EF92FF920F931F93CF93DF93D7
:1012E0008C01FC01C581D681209751F0E480F12C5E
:1012F000EF1431F0899199910E940709F394F8CF86
:10130000F801C085D185209751F0078110E00117C1
:1013100031F0899199910E9407091F5FF8CFDF9101
:10132000CF911F910F91FF90EF90089520916D073D
:1013300030916E072115310551F090E0880F991F0B
:10134000820F931FFC01808191810C946A0908959A
:10135000CF9380916F07882369F1809170079091F6
:101360007107892B29F1C0E080916C07C81700F53F
:101370008C2F86958695869590E0E0917007F09188
:101380007107E80FF91F208130E043E0880F991FB3
:101390004A95E1F74C2F481B02C0359527954A9591
:1013A000E2F720FF03C08C2F0E949609CF5FDCCFAD
:1013B00010926F07CF9108950F931F93CF938C01D5
:1013C000C42F0E949F018823E1F180916507482F77
:1013D00050E0C03128F5882319F12C2F30E080919E
:1013E0007207909173070C2E02C0969587950A9408
:1013F000E2F780FF15C00417150719F580916D07F6
:1014000090916E070097E9F0220F331F820F931F10
:10141000FC0180819181CF911F910F910C946A09F9
:101420000417150771F080916D0790916E07009772
:1014300041F04C2F50E0440F551F480F591FFA013F
:10144000E8CFCF911F910F9108950F931F93CF93E2
:10145000DF93EC018B81882379F08B0189819A815C
:101460008617970729F0CE010E946A091A8309831B
:1014700089819A81019731F48D819E81009769F06D
:101480006C8105C088859985009739F06F81DF915F
:10149000CF911F910F910C94F106DF91CF911F9185
:1014A0000F91089520916D0730916E072115310538
:1014B00071F0609167077091680790E0880F991F3D
:1014C000820F931FFC01808191810C94250A08955D
:1014D000CF9380916F07811138C0C0E080916C0775
:1014E000C81728F48C2F0E949609CF5FF7CF809100
:1014F000700790917107892B29F1C0E080916C07EA
:10150000C81700F58C2F86958695869590E0E0911A
:101510007007F0917107E80FF91F208130E043E078
:10152000880F991F4A95E1F74C2F481B02C035954B
:1015300027954A95E2F720FF03C08C2F0E94520A9C
:10154000CF5FDCCF81E080936F07CF91089520912A
:101550006707309168072817390761F0909368078B
:101560008093670780916F07882321F00E94A80964
:101570000C94680A0895CF93C62F8230910509F420
:1015800056C020F4019769F1CF91089583309105F9
:1015900009F48BC00497C1F785E160FFC0C00E94C9
:1015A000520A86E1C1FFBEC00E94520A87E1C2FF13
:1015B000BCC00E94520A88E1C3FFBAC00E94520A0E
:1015C00089E1C4FFB8C00E94520A8AE1C5FFB6C0D3
:1015D0000E94520A8BE1C6FFB4C00E94520A8CE1FD
:1015E0004AC080E064FF17C00E94520A81E0C0FF39
:1015F00015C00E94520A82E0C1FF13C00E94520A25
:1016000083E0C2FF11C00E94520A84E0C3FF35C0CC
:10161000CF910C94520A0E949609E8CF0E94960935
:10162000EACF0E949609ECCF0E949609EECF85E0A2
:1016300060FF26C00E94520A86E0C1FF24C00E94BB
:10164000520A87E0C2FF22C00E94520A88E0C3FF0C
:1016500020C00E94520A89E0C4FF1EC00E94520AA4
:101660008AE0C5FF1CC00E94520A8BE0C6FF1AC068
:101670000E94520A8CE0C7FDCBCFCF910C94960903
:101680000E949609D9CF0E949609DBCF0E94960945
:10169000DDCF0E949609DFCF0E949609E1CF0E941C
:1016A0009609E3CF0E949609E5CF8DE060FF22C046
:1016B0000E94520A8EE0C1FF20C00E94520A8FE0B1
:1016C000C2FF1EC00E94520A80E1C3FF1CC00E94DC
:1016D000520A81E1C4FF1AC00E94520A82E1C5FF8A
:1016E00018C00E94520A83E1C6FF16C00E94520A27
:1016F00084E1C1CF0E949609DDCF0E949609DFCF19
:101700000E949609E1CF0E949609E3CF0E949609B4
:10171000E5CF0E949609E7CF0E949609E9CF0E9483
:1017200096093FCF0E94960941CF0E94960943CF68
:101730000E94960945CF0E94960947CF0E949609BC
:1017400049CF0E9496094BCF0F931F93CF938C01E3
:10175000C42F0E949F01882309F444C0809165072B
:10176000482F50E0C03148F5882339F12C2F30E064
:1017700080917207909173070C2E02C09695879501
:101780000A94E2F780FF19C00417150759F58091F4
:101790006D0790916E07009729F16091690770912C
:1017A0006A07220F331F820F931FFC0180819181F2
:1017B000CF911F910F910C94250A0417150791F0F2
:1017C00080916D0790916E07009761F060916707B7
:1017D000709168074C2F50E0440F551F480F591F58
:1017E000FA01E4CFCF911F910F9108950E94410912
:1017F000EEE9F2E081E087831086E7EAF2E088E034
:10180000DF011D928A95E9F708950C946D270F93D7
:101810001F93CF93C82F8B0181E090E00E94050CAD
:1018200090E0209162072817190629F0209165079A
:101830002817190611F4C0936B078DE190E00E9400
:10184000050CC82F81E090E00E94050C90E021E09B
:1018500030E00130110511F030E020E04C2F70E055
:1018600060E0CF911F910F910C94BF01CF93863808
:1018700023E0920719F130F481389340D1F08FEFD3
:10188000CF910895873823E09207D9F088389340A4
:10189000B1F786E893E00E94050CC82F87E893E033
:1018A0000E94050C90E02FEFC29F800D911D112426
:1018B00002C081E893E0CF910C94050C86E893E098
:1018C000FACF87E893E0F7CFCF93C82F8FE290E06D
:1018D0000E94050C811109C085E190E0CC2311F034
:1018E00086E190E0CF910C94050C80E0CF910895B3
:1018F000CF93C82F8FE290E00E94050C811106C0A3
:101900008C2F90E0CA96CF910C94050C80E0CF917B
:101910000895DF92EF92FF920F931F93CF93DF937F
:1019200050918C0251111AC07901D42E8B01EC0117
:101930000E949F018111D0926B078DE190E00E947F
:10194000050C9701482FB801CE01DF91CF911F916F
:101950000F91FF90EF90DF900C94BF01DF91CF913A
:101960001F910F91FF90EF90DF9008951F93CF93F9
:10197000DF93EC0180919602882359F08FE090E08C
:101980000E94050C182F80E190E00E94050C1813AE
:1019900006C0CE01DF91CF911F910C94050C8EE112
:1019A00098E00E940709FFCF0C94B60CCF93DF9309
:1019B0002091B1023091B2022F3F320721F0C901CC
:1019C000DF91CF9108958091B40287FF2BC086FFED
:1019D0000FC089E090E00E94D40CC82F81E090E015
:1019E0000E94D40C9C2F9093B2028093B10215C038
:1019F00089E090E00E94D40CC82F81E090E00E9422
:101A0000D40C90E4C99F90011124207C31708F7315
:101A1000282B3093B2022093B1028091B1029091B1
:101A2000B202CECF85FF0CC081E190E00E94D40CC1
:101A3000C82F82E190E00E94D40CC05CDD0BD2CFB5
:101A400081E090E00E94D40C90E0CDCFFF920F9304
:101A50001F93CF93DF9330918C0231110FC0F22E80
:101A60008B01EC014330510509F47EC068F441302C
:101A70005105E9F04230510509F458C0DF91CF918A
:101A80001F910F91FF9008954530510509F4D4C07E
:101A900008F488C04630510589F740E024FF2CC087
:101AA000DF91CF911F910F91FF900C94A40B809127
:101AB000890281112BC040E0B801CE01F4FE23C0A1
:101AC0000E94A40B41E0B801CE01F0FE26C00E94A6
:101AD000A40B42E0B801CE01F1FE22C00E94A40B8B
:101AE00043E0B801CE01F2FE1EC00E94A40B44E008
:101AF000B801CE01F3FCD4CFDF91CF911F910F91AC
:101B0000FF900C94DC090E94DC09DCCF8DE190E0B1
:101B10000E94D40C81FDCFCFD5CF0E94DC09D9CF54
:101B20000E94DC09DDCF0E94DC09E1CF45E020FF07
:101B300012C00E94A40B46E0B801CE01F1FE0EC017
:101B40000E94A40B47E0B801CE01F2FE0AC00E9439
:101B5000A40B48E0CDCF0E94DC09EDCF0E94DC0948
:101B6000F1CF0E94DC09F5CF49E020FF12C00E94AE
:101B7000A40B4AE0B801CE01F1FE0EC00E94A40BF6
:101B80004BE0B801CE01F2FE0AC00E94A40B4CE06B
:101B9000AFCF0E94DC09EDCF0E94DC09F1CF0E949B
:101BA000DC09F5CF4DE020FF32C00E94A40B4EE0CF
:101BB000B801CE01F1FE2EC00E94A40B4FE0B80187
:101BC000CE01F2FE2AC00E94A40B40E1B801CE0172
:101BD000F3FE26C00E94A40B41E1B801CE01F4FE41
:101BE00022C00E94A40B42E1B801CE01F5FE1EC046
:101BF0000E94A40B43E1B801CE01F6FE1AC00E9478
:101C0000A40B44E1B801CE01F7FE76CF49CF0E9484
:101C1000DC09CDCF0E94DC09D1CF0E94DC09D5CFF1
:101C20000E94DC09D9CF0E94DC09DDCF0E94DC09CB
:101C3000E1CF0E94DC09E5CF45E120FF2EC00E94E4
:101C4000A40B46E1B801CE01F1FE2AC00E94A40B0C
:101C500047E1B801CE01F2FE26C00E94A40B48E184
:101C6000B801CE01F3FE22C00E94A40B49E1B801E5
:101C7000CE01F4FE1EC00E94A40B4AE1B801CE01C1
:101C8000F5FE1AC00E94A40B4BE1B801CE01F6FE8E
:101C900016C00E94A40B4CE1B5CF0E94DC09D1CF45
:101CA0000E94DC09D5CF0E94DC09D9CF0E94DC0953
:101CB000DDCF0E94DC09E1CF0E94DC09E5CF0E9464
:101CC000DC09E9CF1F93CF93DF93EC01162F0E941D
:101CD0006D27181721F0612FCE010E947527CE01C4
:101CE000DF91CF911F910C94050CCF93DF93863831
:101CF00023E0920739F138F481389340E9F08FEF0F
:101D0000DF91CF910895873823E09207F1F088386A
:101D10009340A9F7C62F86E893E00E94050CD82FC0
:101D200087E893E00E94050C90E06C2F2FEFD29F84
:101D3000800D911D112402C081E893E0DF91CF91C5
:101D40000C94620E86E893E0F9CF87E893E0F6CF33
:101D50000F931F93CF93DF930FB7F894D0E0C0E0B9
:101D6000FE01E457FF4F1491CE010E946D27181712
:101D700021F0612FCE010E9475272196C03181E0AC
:101D8000D80771F781E893E00E946D27813029F030
:101D900061E081E893E00E947527CCE1D1E01FEF7C
:101DA00089919991FC0111830E946406F1E0CA3582
:101DB000DF07B1F70FBFDF91CF911F910F9108950A
:101DC0001F93CF93DF93EC01162F089779F46623C6
:101DD00019F10E94A80E80E090E0892BB9F0612FE4
:101DE000CE01DF91CF911F910C94000080E090E034
:101DF000892BA9F781E0C11590E1D90708F080E0AF
:101E0000111105C0DF91CF911F91089581E02797AF
:101E10002297C0F780E0F6CF80E090E0892BF9F6BA
:101E200081E0F0CF2F923F924F925F926F927F921C
:101E30008F929F92AF92BF92CF92DF92EF92FF92DA
:101E40000F931F93CF93DF9300D000D0CDB7DEB7B1
:101E50008C01E0E0CE2EE0E0DE2EF0E02F2EF0E070
:101E60003F2E812C912C54018394B0E0EB2EB0E0F6
:101E7000FB2ED8015B96ED91FC91309709F416C2C8
:101E80005280B181BA838081803409F42DC108F079
:101E900044C0893209F4A2C1F0F4843209F45BC170
:101EA00080F4813209F438C1833209F43EC18111D2
:101EB00010C080E090E0892B61F08A810E940000D0
:101EC00008C0863209F460C108F44FC1883209F4B1
:101ED0007BC180E0DBC18D3209F495C168F48B329F
:101EE00009F48AC108F481C16A8185E090E0E114B7
:101EF000F10409F070C1EDCF8F3209F493C108F4F9
:101F000089C1803309F495C1813319F7E0E0F0E02D
:101F1000EF2BF9F26A8182E093C1813609F4A1C006
:101F200050F5803509F446C170F4823409F4EDC0EF
:101F300008F4E4C0833469F6C114D10451F26A8113
:101F400084E090E0D8C08E3509F47DC1803609F474
:101F500082C0813509F0BDCF80E090E0892B09F483
:101F6000B8CF9A8197FF0CC161E070E0892F80584B
:101F70000E940000AECF8D3609F47FC088F483360E
:101F800009F477C008F471C08C3609F0A2CFE0E004
:101F9000F0E0EF2B09F49DCF8A810E94000099CFD9
:101FA000873709F465C1E8F48E3609F092CF0380D3
:101FB000F481E02D309709F479C180818F3609F0E2
:101FC00088CF2114310409F484CF6A81661F662703
:101FD000661F8181B0E88B9FC0011124EA818E2B9E
:101FE00080C08B3709F4A7C18F3709F072CFFA810F
:101FF000EF2FF0E0EF5FFC4FFC83EB83BF01C801E4
:102000000E944007882309F440C18B819C81853858
:10201000A3E09A0709F439C18D3AB3E09B0709F4AC
:1020200046C2853DE3E09E0709F441C28438F3E0EF
:102030009F0741F08C3A23E0920721F0843D9340C2
:1020400009F028C288E0581225C20E94A80EC801D3
:102050000E9463072CC26A8181E090E00E94BB0A63
:1020600038CF6A8182E090E0F9CF6A8183E090E026
:10207000F5CF6A8184E090E0F1CF8A818F77818308
:102080002114310409F425CF6A81661F6627661F73
:10209000D8015B96ED91FC918181811121C081E095
:1020A0008093390261110EC08091390287FD11CFF2
:1020B00060E090E00E940000809139028F5F809381
:1020C0003902F2CF8091390287FD03CF61E090E0C1
:1020D0000E940000809139028F5F80933902F2CF15
:1020E00090E00E940000F5CE6A8181E090E0C1148A
:1020F000D10409F4EECE0E940000EBCE6A8182E0AA
:1021000090E0C114D104B9F7E4CE6A8183E090E095
:10211000C114D10481F7DDCE80E090E0892B09F471
:10212000D8CE8A810E940000D4CEA0E0B0E0AB2BD4
:1021300009F4CFCEBA818B2F90E0B7FF09C0EA81B6
:10214000E1958E2F90E09C838B83919581959109E9
:102150000E940000BECEAA8161E070E08A2FA7FD38
:102160002FC070E060E08A812CC0E0E0F0E0EF2B4F
:1021700009F4AFCEFA8161E070E08F2FF7FDF7CE62
:1021800070E060E08A81F4CE80E090E0892B09F471
:10219000A0CE9A8197FD05C0892F90E00E94000093
:1021A00098CEAA81A195EA2FF0E0CF019195819573
:1021B0009109F4CF2A8127FFD4CF61E070E0822F0C
:1021C00080580E94070C85CE6A8181E090E0E1147E
:1021D000F10409F47ECE0E9400007BCE6A8182E089
:1021E00090E0E114F104B9F774CE6A8183E090E0E5
:1021F000E114F10481F76DCE6A8184E090E0E1148E
:10220000F10449F766CE6A8186E090E0E114F104BA
:1022100011F75FCEE114F10409F45BCE6A8187E027
:1022200090E0D9CF6A8188E090E0E114F10499F65A
:1022300050CEA0E0B0E06A8181E0AB2B09F449CE3A
:102240000E94000046CE0380F481E02D309771F1AA
:1022500080818F3509F03DCEA0E0B0E0AB2B09F4D2
:1022600038CE8181BA81982F8B2F0E94000031CE09
:102270009A81892F90E08F5F9C4F9C838B83BC0158
:10228000C8010E944007811128C081E0D8015B96F7
:10229000ED91FC915C9723813481148213825C96CA
:1022A0003C932E935B97813009F4E3CD0F900F9010
:1022B0000F900F90DF91CF911F910F91FF90EF90B2
:1022C000DF90CF90BF90AF909F908F907F906F9056
:1022D0005F904F903F902F900895AB81BC81A138C3
:1022E000E3E0BE07C9F0A438F3E0BF0711F1A53859
:1022F00023E0B20779F0AC3A43E0B407D1F0AD3A4D
:1023000083E0B80739F0A43D93E0B90791F0A53D0B
:10231000B34051F48AE002C0D8018C915812B5CF75
:10232000C8010E946307B1CF8B819C810E94360C4B
:10233000F5CF8DE0F3CFBA816B2E712CEFEF6E1AD3
:10234000ECEF7E0AB301C8010E944007882309F41C
:102350009CCF852D90E09C0144E0359527954A95CA
:10236000E1F7F22FF170F983F09338029C0153E00A
:10237000359527955A95E1F7422F4170442E4093A9
:1023800037029C0135952795A22FA170AA0F95952C
:102390008795959587958170880F880F8A0FB52D41
:1023A000B170B80FBB83B0933602E1E86E16E3E07C
:1023B0007E06B1F4D8018C9180933502F130A9F1F9
:1023C0008091350290E00B8002C0959587950A9424
:1023D000E2F7817099274816190609F056CFA0CF69
:1023E000B4E86B16B3E07B0651F0ECEA6E16E3E05E
:1023F0007E0629F0F4ED6F16F3E07F0689F58DE097
:102400008093350299819130D9F6C3018458934065
:10241000029708F43ACF8A818B5A823008F435CF7C
:10242000AA81A35DA23008F430CFD501C4010B808E
:1024300004C0880F991FAA1FBB1F0A94D2F72091CE
:10244000350253FE22C0822B809335026091350203
:10245000C3010E94750E90913502891316CF60CF8B
:1024600025E8621623E0720651F04DEA641643E057
:10247000740629F085ED681683E0780611F48AE089
:10248000BFCFC3010E94360CBBCF482F4095822F8F
:102490008423DACF652D8B819C810E94750ED80133
:1024A0005B96ED91FC919281891709F4D0CDEB8177
:1024B000FC81E138F34009F0E8CE81E893E00E9426
:1024C000050CD8018C93E1CEAF92BF92CF92DF92F0
:1024D000EF92FF920F931F93CF93DF93C091470228
:1024E000D09148021091340211111AC0FE0190E0FF
:1024F00080E025813681232B09F05AC025E0289FF2
:10250000F001299FF00D11243296EC0FFD1FF0937E
:102510003302E0933202309709F43FC014821382F1
:10252000A0903202B0903302A114B104B1F10E9424
:102530008404C0902E02D0902F02E0903002F090E0
:1025400031026C197D098E099F096A307105810578
:102550009105C8F1109234020E94840460932E0207
:1025600070932F0280933002909331028D8D9E8D57
:102570000E940707F5019081882319F191609083EB
:1025800081E0809334020E941C0460932A027093BD
:102590002B0280932C0290932D02DF91CF911F91FB
:1025A0000F91FF90EF90DF90CF90BF90AF90089584
:1025B000019635968530910509F09BCFF0E0E0E07B
:1025C000A6CF9E7FDCCF0E941C04C0902A02D09030
:1025D0002B02E0902C02F0902D026C197D098E09DF
:1025E0009F096531710581059105B8F20E941C04AF
:1025F0006C197D098E099F09643F71408105910521
:1026000060F68D8D9E8D212F2770C12CD12C7601E7
:10261000C39404C0CC0CDD1CEE1CFF1C2A95D2F721
:10262000103108F049C00E940707E12FE695E695B2
:10263000E695EA0DFB2DF11D8823D1F18081C82A92
:10264000C08201E0010F009334020E941C046093D9
:102650002A0270932B0280932C0290932D02177FF5
:10266000173019F0083109F098CF0E948404609364
:102670002E0270932F02809330029093310200312A
:1026800041F1083109F089CF0B8D1C8D8091320208
:10269000909133029C8F8B8FCE010E94120FE0919C
:1026A0003202F0913302148213821C8F0B8F2CC0E4
:1026B000C0948081C822C4CF0E940707F50192818F
:1026C000882319F0C92AC282BCCFC0949C2192836E
:1026D000B8CFA0913202B09133028C91982F977F9E
:1026E000973709F45ACF8B3709F457CFEB8DFC8D10
:1026F000309721F4BC8FAB8F07C0FC01838194819C
:102700000097D9F7B483A3831092340246CF0F9376
:102710001F93CF93DF9320919602222329F08F30CD
:10272000910541F48FE090E0DF91CF911F910F91DF
:102730000C94620E162FEC018FE090E00E94050CC5
:10274000082F80E190E00E94050C08130DC0C730EF
:10275000D10531F0C830D10521F4183031F0FFCF68
:10276000FFCF612FCE01E0CFFFCF0E94A80E88E0FF
:10277000DF91CF911F910F9108958331910588F4D6
:102780008131910530F48130910519F0893091053E
:1027900031F42FEF3FEF3093B2022093B1020C944B
:1027A00087138D319105D9F7677F6093B40220912B
:1027B0009E022F73362F307C232B20939E02E9CF6D
:1027C000CF93DF93E9EBF2E095E1DF011D929A955B
:1027D000E9F722E930E03093B8022093B70222E50E
:1027E00030E03093B6022093B502CEE9D2E0888380
:1027F00019828FEF9FEF9C8B8B8B1D8A83E08093D8
:102800009D0243E050E06AE075E089890E94050579
:102810008DE190E00E94D40C682F6F738DE190E001
:102820000E94BD138E8B6AE087E090E00E94BD138A
:102830006DE088E090E00E94BD1380E0DF91CF91D1
:102840000C94F60B89B78F7789BF8FE092E0909355
:102850000F0180930E0181E00E94E01310929C0210
:1028600010929B0208950F931F930E941C040091E5
:102870009702109198022091990230919A02601B60
:10288000710B820B930B613F79448240910508F4F0
:1028900056C08091960281110BC080919B0290914D
:1028A0009C0281309105B1F188F0029709F444C08F
:1028B0000E941C046093970270939802809399027F
:1028C00090939A0281E01F910F91089580E390E028
:1028D0000E94B60C80FF0EC041E050E06FE478E04B
:1028E00087E00E94900481E090E090939C028093A6
:1028F0009B02DECF8DE190E00E94B60C82FFD8CF24
:1029000041E050E060E172E087E00E94900482E0E4
:1029100090E0EBCF89B78F7789BF8FE092E09093FB
:102920000F0180930E018DE190E00E94B60C82FDB4
:10293000E7CF0E942214BCCF10929502FACF80E01C
:10294000C2CFBF92CF92DF92EF92FF920F931F936D
:10295000CF93DF938B01B42E690182FF23C083FFE5
:1029600017C061E0C8010E94E00E8823D9F16B2DE9
:10297000C8010E94BD138B1135C0F601DF91CF91C4
:102980001F910F91FF90EF90DF90CF90BF9009942F
:1029900060E0C8010E94E00E882321F1C8010E9476
:1029A000D40CE9CF842F8770C1E0D0E07E0101C054
:1029B000EE0C8A95EAF7D42FD870CB010E94D40C84
:1029C000C82FB4FE1CC061E0C8010E94E00E88233D
:1029D00049F0DD2389F0CE296C2FC8010E94BD1378
:1029E0008C1759F2DF91CF911F910F91FF90EF90CB
:1029F000DF90CF90BF900895E094CE21EDCF60E0BE
:102A0000C8010E94E00E882369F3CE21DD2319F06E
:102A1000C111B3CFE7CFCC2309F4AFCFE3CFCF922F
:102A2000DF92EF92FF920F931F93CF93DF937C017E
:102A30006B01C42F122FD42FD07E80919E0287FF6E
:102A40002CC0D03EC1F580919F028823A1F190E077
:102A50000E94D40CD82F80919F0290E001960E9492
:102A6000D40C982F8D2FE816F90629F56C2F70E0FD
:102A7000762F662766277370612B6F5F7F4F24E583
:102A800036E0402F8C2FDF91CF911F910F91FF9057
:102A9000EF90DF90CF900C94A11480FD32C0D0361F
:102AA00009F464C088F4D03209F447C0D03409F482
:102AB0005DC0DD2379F1DF91CF911F910F91FF90E0
:102AC000EF90DF90CF900895D03A09F483C090F44E
:102AD0002C2F2F7141E050E0D03869F7B601C701C3
:102AE000DF91CF911F910F91FF90EF90DF90CF90EA
:102AF0000C94260DD03C09F476C0D03E09F4B6CF34
:102B0000DACF0E94D60C8E159F0549F2E114F1042C
:102B100031F2D1CF8C2F8E7071F680E090E0892B4E
:102B200051F28C2F8170DF91CF911F910F91FF9007
:102B3000EF90DF90CF900C940000CF71CF3109F06F
:102B4000BACF412F4F7771F0413071F0111F11272B
:102B5000111F212F30E00FE710E0B601C7010E94DE
:102B6000890CA9CF41E0F2CF40E0F0CF2C2F30E02C
:102B70008C2F8F71813029F030F0803121F081313C
:102B8000F9F440E001C041E025FB222720F90DE1E6
:102B900010E030E0B601C7010E94890C80E090E0AF
:102BA000892B09F488CF4C2FB601C701DF91CF9153
:102BB0001F910F91FF90EF90DF90CF900C94000049
:102BC000C901880F991F8E71C4FB442740F9482B17
:102BD0004250DACF2C2F2F7043E050E0C4FF7ECF5D
:102BE00042E050E07BCFCF71CE3139F0CF3109F0E8
:102BF00062CF212F45E050E071CF212F44E050E01B
:102C00006DCFCF92DF92EF92FF920F931F93CF93EE
:102C1000DF93EC017B0141305105F9F4CD80DE807A
:102C20002496C114D104E9F462E070E081E090E000
:102C30000E94D5278C01009731F0FC01F182E082DF
:102C400088818F5F8883C801DF91CF911F910F9199
:102C5000FF90EF90DF90CF900895C884D984279695
:102C6000E0CF88818F5F8883C82FD0E062E070E07A
:102C7000CE010E94D5278C0120E0BE016150710970
:102C8000822F90E08617970774F4880F991FF6013A
:102C9000E80FF91F40815181800F911FFC01518382
:102CA00040832F5FEDCFC150D048CC0FDD1FC00F48
:102CB000D11FF982E882C6010E948D28C4CF4F92AD
:102CC0005F926F927F92AF92BF92CF92DF92EF921C
:102CD000FF920F931F93CF93DF93CDB7DEB7C1540D
:102CE000D1090FB6F894DEBF0FBECDBF5C01F82E40
:102CF0006E0182E2C80ED11C8601802F8C198F15BF
:102D000040F48BE693E00E94D407F80181938F0191
:102D1000F4CFF12C8AE0482E512C612C712CF5E077
:102D2000AF16B10409F064C0009158021091590225
:102D300001151105A9F13CA14BA12AA1F80190E0D0
:102D400080E065817681672B31F555E0589F7001F1
:102D5000599FF00C1124C7010296800F911FE00EBD
:102D6000F11EF70116821582228343833483F80112
:102D7000C38CD48C322F377F373741F5F801948FCD
:102D8000838FC8010E94120FF70116821582F80185
:102D9000D48EC38E05C0019635968530910589F68F
:102DA000CF5BDF4F0FB6F894DEBF0FBECDBFDF9114
:102DB000CF911F910F91FF90EF90DF90CF90BF9038
:102DC000AF907F906F905F904F9008952B37B1F246
:102DD000C114D10421F4948F838FE2CF6901F601ED
:102DE0002381348121153105C9F794838383D8CF9A
:102DF0008F2D90E08A159B059CF68C0D9D1DFC0186
:102E0000208130E050E040E019A28E010F5D1F4F9D
:102E1000CA01B901A30192010E949627605DF801E1
:102E200062938F01211531054105510589F73097CE
:102E300061F001900020E9F73197AF01401B510B81
:102E4000B8018EEC92E00E945B0342E050E06EE736
:102E500071E08EEC92E00E945B03F394C9CF1F9265
:102E60000F920FB60F9211240BB60F922F933F9330
:102E70004F935F936F937F938F939F93AF93BF9382
:102E8000EF93FF938EEC92E00E945102FF91EF913D
:102E9000BF91AF919F918F917F916F915F914F9172
:102EA0003F912F910F900BBE0F900FBE0F901F9070
:102EB00018951F920F920FB60F9211240BB60F9216
:102EC0002F938F939F93EF93FF93E091DE02F09106
:102ED000DF028081E091E402F091E50282FD1DC0F5
:102EE00090818091E7028F5F8F732091E8028217B3
:102EF00041F0E091E702F0E0E253FD4F958F8093BF
:102F0000E702FF91EF919F918F912F910F900BBE50
:102F10000F900FBE0F901F9018958081F2CF1F92D7
:102F20000F920FB60F9211242F933F938F939F937D
:102F3000AF93BF9380913F0290914002A0914102D4
:102F4000B091420230913E0223E0230F2D3768F109
:102F500026E8230F0296A11DB11D20933E02809307
:102F60003F0290934002A0934102B09342028091AD
:102F7000430290914402A0914502B091460201960D
:102F8000A11DB11D8093430290934402A09345027A
:102F9000B0934602BF91AF919F918F913F912F9136
:102FA0000F900FBE0F901F9018950196A11DB11D97
:102FB000D4CF1F920F920FB60F9211240BB60F921F
:102FC0002F933F934F935F936F937F938F939F9331
:102FD000AF93BF93EF93FF93E0910E01F0910F0138
:102FE0000995FF91EF91BF91AF919F918F917F9143
:102FF0006F915F914F913F912F910F900BBE0F906A
:103000000FBE0F901F9018951F920F920FB60F9240
:1030100011240BB60F922F933F934F935F936F93AF
:103020007F938F939F93AF93BF93EF93FF93E09121
:103030000C01F0910D010995FF91EF91BF91AF91B6
:103040009F918F917F916F915F914F913F912F91C0
:103050000F900BBE0F900FBE0F901F9018951F92F0
:103060000F920FB60F9211240BB60F922F933F932E
:103070004F935F936F937F938F939F93AF93BF9380
:10308000EF93FF93E0910A01F0910B010995FF91F5
:10309000EF91BF91AF919F918F917F916F915F91D0
:1030A0004F913F912F910F900BBE0F900FBE0F903D
:1030B0001F9018951F920F920FB60F9211240BB606
:1030C0000F922F933F934F935F936F937F938F93C1
:1030D0009F93AF93BF93EF93FF93E0910801F0911B
:1030E00009010995FF91EF91BF91AF919F918F9148
:1030F0007F916F915F914F913F912F910F900BBEF8
:103100000F900FBE0F901F9018951F920F920FB641
:103110000F9211240BB60F922F933F934F935F930F
:103120006F937F938F939F93AF93BF93EF93FF938F
:10313000E0910601F09107010995FF91EF91BF9190
:10314000AF919F918F917F916F915F914F913F913F
:103150002F910F900BBE0F900FBE0F901F901895E0
:103160001F920F920FB60F9211240BB60F922F934E
:103170003F934F935F936F937F938F939F93AF93FF
:10318000BF93EF93FF93E0910401F091050109953E
:10319000FF91EF91BF91AF919F918F917F916F912F
:1031A0005F914F913F912F910F900BBE0F900FBEEB
:1031B0000F901F9018951F920F920FB60F92112427
:1031C0000BB60F922F933F934F935F936F937F9321
:1031D0008F939F93AF93BF93EF93FF93E09102017F
:1031E000F09103010995FF91EF91BF91AF919F91EC
:1031F0008F917F916F915F914F913F912F910F90A0
:103200000BBE0F900FBE0F901F9018951F920F923C
:103210000FB60F9211240BB60F922F933F934F933B
:103220005F936F937F938F939F93AF93BF93EF932E
:10323000FF93E0910001F09101010995FF91EF9159
:10324000BF91AF919F918F917F916F915F914F91BE
:103250003F912F910F900BBE0F900FBE0F901F90BC
:1032600018951F920F920FB60F9211240BB60F9262
:103270002F933F934F935F936F937F938F939F937E
:10328000AF93BF93EF93FF9380917100887F803657
:1032900009F44DC008F040C0883209F4A9C028F5EF
:1032A000803109F49DC0C8F4882309F4FBC088303C
:1032B00009F496C0FF91EF91BF91AF919F918F91CB
:1032C0007F916F915F914F913F912F910F900BBE26
:1032D0000F900FBE0F901F901895883109F488C089
:1032E000803241F78093060214C0803409F49DC0F7
:1032F00040F48033B9F38833E9F68093060285EC15
:10330000B0C0803509F485C0883509F496C088348A
:1033100089F60E949307CECF883909F48CC038F51E
:10332000883729F050F4883611F0803719F683E099
:1033300080934F021092050257C0883809F47BC071
:10334000803919F0803809F0B5CF809105028032BC
:1033500008F071C0E091050281E08E0F80930502B4
:1033600080917300F0E0EB51FE4F80833DC0803BC5
:1033700039F0E0F4803A09F479C0883A09F09ACF3C
:1033800084E080934F021092E4011092E301E091F7
:103390004B02F0914C0209958091E30181110FC01D
:1033A00081E08093E3011092C30109C0803C09F4DD
:1033B000A6CF883C09F4A3CF883B09F07BCFE091EE
:1033C000E40181E08E0F8093E401F0E0ED53FE4FC5
:1033D0008081809373009091E4018091E30129C082
:1033E000809129028093730085EC8093740062CFF2
:1033F0009091280280912702981758F5E0912802B1
:1034000081E08E0F80932802F0E0E95FFD4F80811C
:10341000E9CFE091280281E08E0F8093280280910D
:103420007300F0E0E95FFD4F808390912802809166
:1034300027029817C8F285E8D8CFE091280281E0EA
:103440008E0F8093280280917300F0E0E95FFD4FBA
:10345000808380914E0281115CCF81E080934D0288
:1034600084EA8093740010924F0224CF85EC8093FD
:10347000740010924F0280910502803230F4E09186
:103480000502F0E0EB51FE4F10826091050270E002
:10349000E0914902F0914A0285EE91E0099510927F
:1034A000050208CF1092060234CF1F920F920FB67A
:1034B0000F9211248F939F93789480917902909129
:1034C0007802891708F0E9C0AF9A909177028917BE
:1034D00008F0E5C0AD9A90917602891708F0E1C036
:1034E00090916200946090936200909175028917A8
:1034F00008F0DBC09091620091609093620090911F
:103500007402891708F0D5C090916200986090937A
:10351000620090917302891708F0CFC09091620009
:1035200090619093620090917202891708F0C9C06F
:10353000909162009260909362009091710289175D
:1035400008F0C3C01A9A90917002891708F0BFC0A2
:103550001B9A90916F02891708F0BBC01C9A90913A
:103560006E02891708F0B7C01D9A90916D028917F5
:1035700008F0B3C0909162009062909362009091C5
:103580006C02891708F0ADC0959A90916B0289176B
:1035900008F0A9C0909165009860909365009091A3
:1035A0006A02891708F0A3C0C79A90916902891727
:1035B00008F09FC0C69A90916802891708F09BC0D6
:1035C000C59A90916702891708F097C0C49A9091A4
:1035D0006602891708F093C09091650094609093FB
:1035E000650090916502891708F08DC0AB9A9091A3
:1035F0006402891708F089C0DF9A909163028917E5
:1036000008F085C0DE9A90916202891708F081C0A7
:10361000DD9A90916102891708F07DC0DC9A909143
:103620006002891708F079C0DB9A90915F028917D0
:1036300008F075C0AC9A90915E02891708F071C0CD
:103640009091650091609093650090915D0289175B
:1036500008F06BC090916500926090936500909126
:103660005C02891708F065C0A89A90915B028917DF
:1036700008F061C0A99A90915A02891708F05DC0BC
:10368000AA9A809179028F5F809379029F918F919E
:103690000F900FBE0F901F901895AF9816CFAD9852
:1036A0001ACF909162009B7F1ECF909162009E7F07
:1036B00024CF90916200977F2ACF909162009F7EE5
:1036C00030CF909162009D7F36CF1A983CCF1B98E7
:1036D00040CF1C9844CF1D9848CF909162009F7DA9
:1036E0004CCF959852CF90916500977F56CFC79851
:1036F0005CCFC69860CFC59864CFC49868CF9091CE
:1037000065009B7F6CCFAB9872CFDF9876CFDE9849
:103710007ACFDD987ECFDC9882CFDB9886CFAC98CD
:103720008ACF909165009E7F8ECF909165009D7F9E
:1037300094CFA8989ACFA9989ECFAA98A2CFCF93BA
:10374000DF93EC0161E088810E94EB0360E08881F7
:10375000DF91CF910C94BD039F92AF92BF92CF9215
:10376000DF92EF92FF920F931F93CF93DF9310920C
:10377000D1021092D00288EE93E0A0E0B0E08093F6
:10378000D2029093D302A093D402B093D5022EE537
:1037900031E03093CF022093CE0220E930E0309325
:1037A000DB022093DA0229E230E03093DD0220933D
:1037B000DC022BE230E03093DF022093DE022AE2CB
:1037C00030E03093E1022093E00225E930E03093CD
:1037D000E3022093E2022CE230E03093E5022093F2
:1037E000E4021092E7021092E8021092E9021092AD
:1037F000EA0210926E0310926D0380936F03909310
:103800007003A0937103B093720380E791E09093EB
:103810006C0380936B031092790310927A031092D9
:103820007B0310927C0310927D0310927E03109212
:103830007F031092800310928103109282031092F2
:10384000830387E090E0909378038093770383E18C
:1038500090E00E94050CC82F82E190E00E94050CC8
:10386000D82F81E190E00E94050C182F81E090E0B4
:103870000E94050C21E030E0309368072093670731
:1038800030936A072093690710926B0710926F07B5
:10389000109271071092700780936207212F205CAD
:1038A000330BC9012D2F382FC901909364078093E2
:1038B0006307CF77C0936507109266078DE1809309
:1038C0006C0762E070E08DE190E00E94D527909354
:1038D0006E0780936D070097C9F0EC0110E0EE24AD
:1038E000E394F12C8AE090E00E94F127FC01F2823F
:1038F000E182138214821682158217821186108645
:103900001083899399931F5F1D3161F767E082E807
:1039100097E00E941C076BE08CE797E00E941C0771
:103920001EE110931E08C2E0C093200810922108E7
:10393000DFEFD0931F08109222088EE198E00E94DA
:103940009F1B0DE100931908C0931B0881E0809331
:103950001C08D0931A0810921D0889E198E00E9473
:103960009F1B8CE1F82EF0921408C0931608C093A8
:103970001708D09315081092180884E198E00E9467
:103980009F1B9BE1E92EE0920F08C093110823E0F2
:10399000B22EB0921208D0931008109213088FE044
:1039A00098E00E949F1B3AE1D32ED0920A08C09360
:1039B0000C0844E0A42EA0920D08D0930B0810929E
:1039C0000E088AE098E00E949F1B80E28093050821
:1039D000C093070855E0952E90920808D0930608EA
:1039E0001092090885E098E00E949F1B89E280936D
:1039F0000008C093020886E080930308D093010872
:103A00001092040880E098E00E949F1B88E2809357
:103A1000FB07C093FD0787E08093FE07D093FC0768
:103A20001092FF078BEF97E00E949F1B87E2809325
:103A3000F607C093F80788E08093F907D093F7075B
:103A40001092FA0786EF97E00E949F1B86E2809310
:103A5000F107C093F30789E08093F407D093F2074E
:103A60001092F50781EF97E00E949F1B85E28093FB
:103A7000EC07C093EE078AE08093EF07D093ED0741
:103A80001092F0078CEE97E00E949F1B8FE18093CD
:103A9000E707C093E9078BE08093EA07D093E80734
:103AA0001092EB0787EE97E00E949F1B84E28093C1
:103AB000E207C093E4076CE0C62EC092E507D093FE
:103AC000E3071092E60782EE97E00E949F1BC092E8
:103AD000DD07C093DF077DE0C72EC092E007D093DB
:103AE000DE071092E1078DED97E00E949F1BC092C8
:103AF000D807C093DA07EEE0CE2EC092DB07D09352
:103B0000D9071092DC0788ED97E00E949F1BC092B6
:103B1000D307C093D507FFE0CF2EC092D607D0932E
:103B2000D4071092D70783ED97E00E949F1BC092A5
:103B3000CE07C093D007A0E1CA2EC092D107D09380
:103B4000CF071092D2078EEC97E00E949F1BC09285
:103B5000C907C093CB0781E18093CC07D093CA07F4
:103B60001092CD0789EC97E00E949F1BB7E1CB2E06
:103B7000C092C407C093C60782E18093C707D09361
:103B8000C5071092C80784EC97E00E949F1B82E350
:103B90008093BF07C093C10783E18093C207D0938E
:103BA000C0071092C3078FEB97E00E949F1B909273
:103BB000BA07C093BC0784E18093BD07D093BB07CD
:103BC0001092BE078AEB97E00E949F1BA092B50758
:103BD000C093B70785E18093B807D093B6071092DA
:103BE000B90785EB97E00E949F1BB092B007C09386
:103BF000B20786E18093B307D093B1071092B40760
:103C000080EB97E00E949F1BC093AB07C093AD076A
:103C1000C092AE07D093AC071092AF078BEA97E043
:103C20000E949F1B8EE28093A607C093A80788E19D
:103C30008093A907D093A7071092AA0786EA97E076
:103C40000E949F1B81E38093A107C093A30789E192
:103C50008093A407D093A2071092A50781EA97E06A
:103C60000E949F1B80E380939C07C0939E07D09285
:103C70009F07D0939D071092A0078CE997E00E94C0
:103C80009F1B8DE280939707C0939907E0929A0754
:103C9000D093980710929B0787E997E00E949F1B9B
:103CA0008FE280939207C0939407F0929507D09388
:103CB00093071092960782E997E00E949F1B81E28A
:103CC00080938D07C0938F0700939007D0938E0742
:103CD000109291078DE897E00E949F1B83E28093EA
:103CE0008807C0938A0710938B07D0938907109297
:103CF0008C0788E897E0DF91CF911F910F91FF909B
:103D0000EF90DF90CF90BF90AF909F900C949F1B4F
:103D1000CF93DF93CDB7DEB762970FB6F894DEBFCF
:103D20000FBECDBF789483B78C6483BF87B78160A3
:103D300087BF82E08EBD8EB581608EBD8FB58160FC
:103D40008FBD85B5846085BD85B5806485BD809156
:103D50008A00836080938A0080918B0081608093C9
:103D60008B0087E886B91AB80FB6F894A89581B584
:103D7000886181BD11BC0FBE2FB7F89490E080E040
:103D8000FC01E65AFD4F108201968F319105C1F773
:103D9000AF98AD98809162008B7F80936200809194
:103DA00062008E7F8093620080916200877F8093A3
:103DB0006200809162008F7E809362008091620039
:103DC0008D7F809362001A981B981C981D98809193
:103DD00062008F7D80936200959880916500877F57
:103DE00080936500C798C698C598C498809165006F
:103DF0008B7F80936500AB98DF98DE98DD98DC9828
:103E0000DB98AC98809165008E7F809365008091EF
:103E100065008D7F80936500A898A998AA982FBF08
:103E20009FB7F894A79AA59A8091610084608093C7
:103E300061008091610081608093610080916100E8
:103E4000886080936100809161008061809361004F
:103E500080916100826080936100129A139A149A93
:103E6000159A809161008062809361008D9A8091A3
:103E70006400886080936400BF9ABE9ABD9ABC9A21
:103E800080916400846080936400A39AD79AD69A44
:103E9000D59AD49AD39AA49A809164008160809331
:103EA000640080916400826080936400A09AA19A6B
:103EB000A29A9FBF1FBC89E08EBD8CE093E09BBDA2
:103EC0008ABD87B7806187BF1092790261E088E080
:103ED0000E94EB0360E082E897E00E943103E091EA
:103EE0007E07F0917F07908180917D0780958923DF
:103EF0008083E0918007F0918107808190917D0718
:103F0000892B80832CEBA22E21E0B22E3CE1C32E24
:103F100031E0D32E99249394F501E490F12CC7015C
:103F20000E94050C182FC70101960E94050C082F4E
:103F3000C70102960E94050C882EC70103960E94B5
:103F4000050C90916C07191710F5D601ED90FC90B7
:103F5000F70181828483812F0111D2C00E948C01DC
:103F60003C0141E050E0B7010E940116D3011696D2
:103F70009C938E931597812F0E948C018C0150E0A9
:103F800040E0B7010E940116F80191878087A8954B
:103F9000B2E0AB0EB11CE2E0CE0ED11CFAE5CF16BA
:103FA000F1E0DF0609F0B8CF61E070E084E090E076
:103FB0000E94D5279093710780937007892B91F009
:103FC00010E000E0E0907007F0907107E00EF11E45
:103FD000802F0E94780CD7018C930F5F1F4F043005
:103FE000110581F780E00E94640C082F10E081E049
:103FF0000E94640C282F30E0322F222722273E7F98
:10400000000F111F202B312B309373072093720761
:1040100080FF05C02160309373072093720760E032
:1040200086E10E94EB03ECE9F2E08491E7E6F2E03E
:104030000491E2E3F2E0149111117CC0FF24F394A7
:10404000F0928C028FE190E00E94F1278C0186E0D3
:10405000F801818386E090E00E94F1276C016AE01C
:104060000E941C07D8015E96DC92CE925D97109359
:104070008B0200938A0281E893E00E94050CF8010C
:104080008083843008F024C1F80181818F3FF1F0F2
:10409000109348020093470260E00E94EB0360E047
:1040A000D8015D968D919C910E943103F801818128
:1040B0009CEF980F943020F08251843008F08FEFFD
:1040C00042E050E064E672E10E940505D8011696D0
:1040D0001C921E9215971B961C921E921A97509630
:1040E0001C921E921F9755961C921E9254975A9698
:1040F0001C921E9259975C961C921E925B9729C047
:104100000E948C01DC0113969C92003809F433CF95
:10411000013809F03CCF812F0E948C018C0141E0D5
:1041200050E0B7010E940116D80116969C938E9319
:1041300015972DCF81110E948803E12FF0E0EE0F3B
:10414000FF1FE45FFD4FA591B491EC91E02309F4CA
:1041500075CF81E090E00E94050C21E030E03093C3
:104160007F0220937E028093800281E190E00E9492
:10417000050C21E130E0309382022093810280938C
:10418000830282E190E00E94050C22E130E030934E
:10419000850220938402809386028DE190E00E9444
:1041A000B60C81FD97C08DE190E0909388028093DA
:1041B00087021092890287E08093AF028093B00259
:1041C00060E00E94EB0361E087E00E94BD0380E0B5
:1041D0000E94E0138FE596E1909357028093560278
:1041E0008AEF92E09093550280935402109253020A
:1041F00010925202109251021092500210924F02ED
:1042000081E080934E0210924D0261E083E10E94B2
:10421000BD0361E082E10E94BD03809171008E7F49
:1042200080937100809171008D7F8093710088E48C
:104230008093700085E4809374008BEF92E09093FC
:104240004C0280934B0287E093E090934A02809364
:10425000490282E0809372008CE08093700010929B
:1042600059021092580288E19BE00FB6F894A89585
:1042700081BD0FBE91BD72E0472E512C80918D0201
:1042800081110DC00E941C046093970270939802E4
:104290008093990290939A0281E080938D0280919D
:1042A0009B0290919C028130910509F4AEC260F1AD
:1042B000029709F4D8C5A89580918C028823F1F261
:1042C00080918A0290918B020E94120FA895D6CFFE
:1042D000F082DACE8DE190E00E94B60C85FD0DC033
:1042E0008091160190911701A09118018093870287
:1042F00090938802A09389025ECF809119019091DA
:104300001A01A0911B01F2CF8091A0028823B1F085
:104310000E9484040091A1021091A2022091A302A4
:104320003091A402601B710B820B930B65317105F8
:104330008105910518F080E00E94F60B8091BB0288
:10434000882309F445C0F89488E0E6ECF2E0A4E79D
:10435000B7E001900D928A95E1F71092BB02789434
:104360003091C602E8ECF2E090E080E0391721F0ED
:10437000219182279F5FFACF81112AC080E090E0CF
:10438000892B21F084E797E00E9400008091760756
:10439000811125C090917707911121C080E090E0B4
:1043A000892B19F080E00E9400008091A0028823F0
:1043B00091F081E00E9441090E94A8090E941C041A
:1043C00060939702709398028093990290939A0257
:1043D0000E94331470CF81E00E94F60BEDCF9091D4
:1043E000A002992309F486C08057803108F07FC06D
:1043F00081E00E944109109174078091A70218136F
:104400000AC0412F50E069EA72E086E797E00E9417
:104410001629892B61F01092A60288E0E4E7F7E004
:10442000A7EAB2E001900D928A95E1F7C5CF80919D
:10443000A6028F5F8093A602133009F040C09091CE
:104440007607892F8770F0907707853029F4F092EE
:10445000A5020E947404B0CF0DE110E0843091F009
:10446000282F30E08430F0F40091A5020023D1F031
:104470000150110B000F111F000F111F020F131F0E
:104480000F5F1F4F93FF10C061E0C8010E94E00E54
:10449000882309F491CF6F2DC8010E94BD13F81233
:1044A0008BCFD7CF8901ECCF60E0C8010E94E00E2E
:1044B000882309F481CFC8010E94D40CF0CF1430B6
:1044C00009F07ACF80917607682F70E0762F662703
:1044D0006627737090917707692B6F5F7F4F22E893
:1044E00034E0409178078C700E94A11465CF80E081
:1044F0000E94F60BE0917607EF3F61F48091770719
:1045000081115ACF80E090E0892B09F455CF0E94A9
:10451000000052CFE7FD0DC0009179072091780788
:104520004091770770E060E08E2F90E00E940F15B9
:1045300043CFE03C08F058C130919E0237FF3CCF9A
:1045400020917707822F90E08C0100951095000F45
:10455000111F000F111F007C1170EF730E2B95952A
:104560008795B82FB370BB2E80917407853041F5C5
:104570002C782C3029F50E94D60C8017910721F059
:104580000F3F114009F018CF8091770790E0982FE6
:1045900088278827937000917807080F192F111D1D
:1045A0000F5F1F4FF090790761E0C8010E94E00E95
:1045B0006F2D882309F400CFC8010E94BD13FCCEE3
:1045C0006801F1E0CF1AD108CC0CDD1CCC0CDD1C4D
:1045D000CB2876012FEFE21AF20A8091B3028823EA
:1045E000F9F036FF41C0C70160E071E00E94822708
:1045F000682F81E090E00E94BD13C701F7FE02C062
:1046000081509F4F692F89E090E00E94BD1380E0A8
:1046100090E0892B19F0C7010E9400001092B302AC
:1046200080919E0280FD39C080917407843009F02A
:104630004FC0809177078978813009F0BDCE6091B5
:10464000780780E090E0892B19F0C7010E940000F4
:1046500080E090E0892B09F4AFCE409178076B2D74
:10466000C7010E940000A8CEB8016F73772781E0D0
:1046700090E00E94BD13B801E6E075956795EA9554
:10468000E1F789E090E00E94BD1380E090E0892B83
:1046900029F2C8010E940000C1CF86FF0DC00E9410
:1046A000D60C8E159F0509F4BFCF3DEFE31637E01A
:1046B000F3060CF0B9CF80CE0E94D60C801791077C
:1046C00009F4B2CF0F3F41E0140709F4ADCF74CE27
:1046D000833069F540917707542F5170C52E43FB05
:1046E000DD24D0F880E090E0892B31F047702D2D4B
:1046F000B801C7010E94000080919E0286FF0BC096
:1047000080E090E0892B09F457CE4D2D6C2DC70128
:104710000E94000051CE80E090E0892B09F44CCE3D
:104720002D2D4C2D6B2DC8010E94000045CE8630EA
:1047300009F042CE80917707982F9978913021F037
:104740008F78803809F038CE80919E0286FF28C08D
:104750000E94D60C8E159F05E9F48091780790E0B1
:10476000382F22272227337000917907020F132F49
:10477000111D0F5F1F4FF0907A07959587959595BE
:104780008795837099278230910599F0039709F4F2
:104790000BCF12CE8DEFE81687E0F806F4F60CCEBC
:1047A0000E94D60C80179107C1F20F3F1140A9F269
:1047B00003CEF4FE01CE61E0C8010E94E00E882322
:1047C00009F4FACDC8010E94D40C9F2D977061E0C6
:1047D00070E001C0660F9A95EAF7F3FE02C0682BFD
:1047E000EBCE60956823E8CEE83E08F0E5CDE05CCE
:1047F000FF0B8091770700917A072091790740910C
:10480000780761E070E09E2F91CE03ED13E09AE00F
:10481000E92EF12CDD24D39423E6C22E33E0B32E0F
:1048200042E0A42E5BE1352ED8011B968D919C9120
:10483000019709F03FC1F801E654F10980819181A7
:10484000329660807180680E791EF801118A128A92
:10485000168212861586168617861782108A138A84
:104860001186158214829301359527954801FCE540
:104870008F1A9108F40161E070E086899789A72F6B
:10488000A69541E050E04C0F5D1F4A0F511DDA0123
:1048900041E0281739070CF040E04C93713248F49E
:1048A000408D518D840F951F8E579109C19708F443
:1048B00060E07E5F3496743201F7FE013196CE9C43
:1048C0009001CF9C300D112445E557E0421B530B5E
:1048D00090E080E0708171118FC071817111A6C06C
:1048E000D401A80FB91F1D961C92019632968930EB
:1048F000910581F7F80180819181A281B381855171
:104900009540A109B10983359B40A105B10508F087
:1049100070C1662309F46DC181E046E96416710433
:104920000CF080E0D80151968C93F801EC54F10919
:10493000908131978081B9E08B9F802D1124939DC8
:10494000800D112432979081890F31964081942FE8
:10495000990F940F890FF8018683EB54F10946E90A
:10496000641671040CF430C181E09081913009F03B
:1049700080E0D8011D968C938989880F9F85890FC7
:10498000880F9D85890F880F9B85890F91E009F01D
:1049900090E0F801968791E0813009F090E0D8012D
:1049A0001F969C9381118150F80187838289882307
:1049B00009F456C08C85880F9E85890F880F9889C9
:1049C000890F880F9A89890FEEEFE80FEE3008F013
:1049D00047C0F0E0E251FB4D0C94B8272325232576
:1049E0002B252B25D025D02530253025D525D5259F
:1049F000D925D925DE25DE257130C1F42180A1E03D
:104A00002A1206C0DA01A80FB91F1D962C926DCF8D
:104A100021100CC0D401A80FB91F1D96AC9285308F
:104A200008F463CFD80152967C935FCF853048F06D
:104A3000DA01A80FB91F1D96BC92D8015296DC92DC
:104A400054CF60E057CFD8011996AC921997817076
:104A500053968C9305C041E050E0F80155834483A0
:104A600089E090E0FAE0EF16F10411F08E199F0949
:104A7000D8011C965C924E921B97C89EB001C99EAD
:104A8000700D1124FB01E252FC4F8081918102974D
:104A900089F46C577C4F49E050E082E697E0821B36
:104AA000930B0E941629892B29F423E030E0F801AA
:104AB00034872387F1E0EF1AF1080D591F4FE114F5
:104AC000F10409F0B1CEEEEDF3E090E080E020815A
:104AD00031812330310509F094C023E6289F8001FD
:104AE000299F100D1124F801E252FC4F84E090E060
:104AF000918380830C571C4F0115110509F468CC74
:104B0000780125E5E20EF11CD701EC91F0E08091EF
:104B100080029F01281B3109C9012130310509F4A8
:104B2000DDC00CF076C0892B09F046CC80917D0267
:104B3000D801A45ABF4F9C91992309F491C0806178
:104B400080937D0290917D02D801A85ABF4F8C912D
:104B5000823009F4A0C008F085C0813009F48FC00C
:104B600020917D0241E050E070E060E0CF010E94C2
:104B7000260DF801ED5AFF4F80819181813091051A
:104B800009F09FC03396809180020DE110E021E092
:104B900030E0408170E060E090E00E94890C0CCC35
:104BA000D8011996BC92199752CFF80155824482C8
:104BB00057CFD8011996DC92199749CF44E0F801F4
:104BC00041878170838B4CCF8081811112C08F858A
:104BD000880F9D85890F880F9B85890FD8011A96AC
:104BE0008C9381E09989913009F080E0F801808B05
:104BF00037CFE5E0F0E0D8011C96FC93EE931B97CD
:104C000059CF0196ED59FF4F8A30910509F05FCFDA
:104C1000DFCB2230310509F4ADC02330310509F076
:104C2000CBCB80E390E00E94B60C83FFC5CB809194
:104C30007A02F801E85AFF4F9081923009F4FDC0E2
:104C400008F0E2C0913009F4ECC0D7018C912091BA
:104C50007A0244E050E070E060E08350990B59C064
:104C60008F7E6ECF833009F1843009F079CFD8017F
:104C7000AE59BF4F8C91882311F1986007C0D801BD
:104C8000AE59BF4F8C91882321F0916090937D02A3
:104C900067CF9E7FFBCFD801AE59BF4F8C91882341
:104CA00011F09260F3CF9D7FF1CFD801AE59BF4F85
:104CB0008C91882311F09460E9CF9B7FE7CF977F99
:104CC000E5CF029709F078CBF801EA5AFF4F8091BF
:104CD00080020DE110E030E020E05BCF80E390E067
:104CE0000E94B60C81FF68CB80917C02F801E85AE3
:104CF000FF4F9081923041F178F49130C9F0D701A3
:104D00008C9120917C0242E050E070E060E08150A4
:104D1000990B0E94260D50CB933001F1943079F716
:104D2000F801EE59FF4F9081992311F1886007C077
:104D3000F801EE59FF4F9081992321F08160809313
:104D40007C02DDCF8E7FFBCFF801EE59FF4F9081C3
:104D5000992311F08260F3CF8D7FF1CFF801EE59E6
:104D6000FF4F9081992311F08460E9CF8B7FE7CFCB
:104D7000877FE5CF80E390E00E94B60C82FF1CCBDA
:104D800080917B02F801E85AFF4F9081923031F117
:104D900068F49130B9F0F701808120917B0243E003
:104DA00050E070E060E08250990BB3CF933001F196
:104DB000943089F7F801EE59FF4F9081992311F152
:104DC000886007C0F801EE59FF4F9081992321F0C8
:104DD000816080937B02DFCF8E7FFBCFF801EE599D
:104DE000FF4F9081992311F08260F3CF8D7FF1CF37
:104DF000F801EE59FF4F9081992311F08460E9CFBB
:104E00008B7FE7CF877FE5CF933009F1943009F0AE
:104E10001CCFF801EE59FF4F9081992311F1886062
:104E200007C0F801EE59FF4F9081992321F081606E
:104E300080937A020ACF8E7FFBCFF801EE59FF4FA5
:104E40009081992311F08260F3CF8D7FF1CFF8012B
:104E5000EE59FF4F9081992311F08460E9CF8B7F49
:104E6000E7CF877FE5CF0E94680A8091950288236B
:104E7000E1F08CE797E00E9407078111A9CA8091B1
:104E8000670790916807019769F490E080E00E94BD
:104E9000A70A0E94680A8CE797E00E940707882308
:104EA000D1F396CA81E090E0F2CF82E897E00E94C9
:104EB0000707811105C081E090E00E94A70A88CA17
:104EC00090E080E0FACF60E08CE797E00E94310349
:104ED00060E082E897E00C943103E199FECF9FBB3C
:104EE0008EBBE09A99278DB30895262FE199FECFC6
:104EF0009FBB8EBB2DBB0FB6F894E29AE19A0FBE12
:104F00000196089597FB072E16F4009407D077FDBD
:104F100009D00E94C12707FC05D03EF490958195E9
:104F20009F4F0895709561957F4F0895A1E21A2EC5
:104F3000AA1BBB1BFD010DC0AA1FBB1FEE1FFF1F3D
:104F4000A217B307E407F50720F0A21BB30BE40B8D
:104F5000F50B661F771F881F991F1A9469F76095D4
:104F60007095809590959B01AC01BD01CF0108958E
:104F7000EE0FFF1F0024001C0BBE0790F691E02DE2
:104F80000994AA1BBB1B51E107C0AA1FBB1FA61790
:104F9000B70710F0A61BB70B881F991F5A95A9F7E2
:104FA00080959095BC01CD0108950F931F93CF93E9
:104FB000DF93869F8001879F100D969F100D11240F
:104FC000C8010E94F127EC01009729F0A80170E0C8
:104FD00060E00E942329CE01DF91CF911F910F91B4
:104FE00008950F931F93CF93DF938230910510F4B0
:104FF00082E090E0E0912508F091260830E020E082
:10500000B0E0A0E0309799F42115310509F44AC0C9
:10501000281B390B24303105D8F58A819B81611515
:10502000710589F1FB0193838283FE0111C04081E8
:1050300051810281138148175907E0F04817590739
:1050400099F4109761F012960C93129713961C9393
:105050003296CF01DF91CF911F910F910895009368
:10506000250810932608F4CF2115310551F0421779
:10507000530738F0A901DB019A01BD01DF01F801F6
:10508000C1CFEF01F9CF9093260880932508CDCFAB
:10509000FE01E20FF31F819391932250310939836E
:1050A0002883D7CF2091230830912408232B41F463
:1050B000209112013091130130932408209323088A
:1050C00020911001309111012115310541F42DB7C6
:1050D0003EB74091140150911501241B350BE0910E
:1050E0002308F0912408E217F307A0F42E1B3F0BCE
:1050F0002817390778F0AC014E5F5F4F241735074A
:1051000048F04E0F5F1F509324084093230881936B
:1051100091939FCFF0E0E0E09CCFCF93DF93009797
:10512000E9F0FC01329713821282A0912508B09118
:105130002608ED0130E020E01097A1F420813181B4
:10514000820F931F209123083091240828173907D4
:1051500009F061C0F0932408E0932308DF91CF9118
:105160000895EA01CE17DF07E8F54A815B819E01C9
:1051700041155105B1F7E901FB83EA834991599142
:10518000C40FD51FEC17FD0761F480819181029651
:10519000840F951FE90199838883828193819B8382
:1051A0008A83F0E0E0E012968D919C91139700972E
:1051B000B9F52D913C911197CD010296820F931F65
:1051C00020912308309124082817390739F63097A1
:1051D00051F51092260810922508B0932408A09348
:1051E0002308BCCFD383C28340815181840F951F94
:1051F000C817D90761F44E5F5F4F88819981480FC6
:10520000591F518340838A819B8193838283211517
:10521000310509F0B0CFF0932608E09325089ECF22
:10522000FD01DC01C0CF13821282D7CFFB01DC016C
:1052300004C08D910190801921F441505040C8F76D
:10524000881B990B0895DC0101C06D9341505040BB
:10525000E0F7089511E0CFE5D1E004C0FE010E941F
:0E526000B8272196C036D107C9F7F894FFCFC2
:10526E000F0200000000000000000000000000001F
:10527E000000270880001D00021D00221E081908CC
:10528E0014080F080A0805080008FB07F607F107BF
:10529E00EC07E707E207DD07D807D307CE07C907F4
:1052AE00C407BF07BA07B507B007AB07A607A10724
:1052BE009C07970792078D0788070000000072026F
:1052CE005B031402B90245022302370200000000FC
:1052DE001B08EE074A08C407E707D407C5070D0ADF
:0252EE000000BE
:00000001FF
